:020000040800F2
:1000000008040120DD010008E5010008E7010008FF
:10001000E9010008EB010008ED0100080000000004
:10002000000000000000000000000000EF010008D8
:10003000F101000800000000F3010008F5010008CC
:10004000F7010008F7010008F7010008F7010008B0
:10005000F7010008F7010008F7010008F7010008A0
:10006000F7010008F7010008F7010008F701000890
:10007000F7010008F7010008F7010008F701000880
:10008000F7010008F7010008F7010008F701000870
:10009000F7010008F7010008F7010008F701000860
:1000A000F7010008F7010008F7010008F701000850
:1000B000F7010008F7010008F7010008F701000840
:1000C000F7010008F7010008F7010008F701000830
:1000D000F7010008F7010008F7010008F701000820
:1000E000F7010008F7010008F7010008F701000810
:1000F000F7010008F7010008F7010008F701000800
:10010000F7010008F7010008F7010008F7010008EF
:10011000F7010008F7010008F7010008F7010008DF
:10012000F7010008F7010008F7010008F7010008CF
:10013000F7010008F7010008F7010008F7010008BF
:10014000F7010008F7010008F7010008F7010008AF
:10015000F7010008F7010008F7010008F70100089F
:10016000F7010008F7010008F7010008F70100088F
:10017000F7010008F7010008F7010008000000007F
:10018000F7010008F7010008F7010008F70100086F
:10019000F7010008F7010008F7010008F70100085F
:1001A000F7010008F7010008F7010008F70100084F
:1001B000F7010008F7010008F7010008F70100083F
:1001C000F7010008F7010008DFF80CD000F018F87C
:1001D00000480047A902000808040120064880479B
:1001E00006480047FEE7FEE7FEE7FEE7FEE7FEE71C
:1001F000FEE7FEE7FEE7FEE725020008C90100086A
:10020000064C074D06E0E06840F0010394E8070063
:1002100098471034AC42F6D3FFF7DAFF5C030008CE
:100220007C0300081448006840F47000124908601C
:100230001248006840F001001049086000200F4992
:10024000083108600D4800680D4908400B490860F6
:100250000C48091D0860081F006820F48020091F51
:100260000860002005490C3108604FF00060024929
:10027000803908607047000088ED00E000380240D7
:10028000FFFFF6FE1030002402E008C8121F08C16C
:10029000002AFAD170477047002001E001C1121F07
:1002A000002AFBD1704700000EB50020002200217B
:1002B000224D38CD8DE83800214B1B6843F00203F6
:1002C0001F4C23601F4B204C23600023241D236000
:1002D0001C4B241D2360241D23602DE0002129E0F8
:1002E000002224E0184B14331B681DF82150012410
:1002F000AC402343144C14342360002000E0401C25
:10030000124B1B689842FADB0F4B14331B681DF825
:1003100021500124AC40A3430B4C14342360002033
:1003200000E0401C094B1B689842FADB521C0A2A69
:10033000D8DB491C0329D3DBD0E7000050030008B9
:10034000303802400140001000040240000001204B
:1003500000000000070000000E0000007C03000801
:10036000000001200400000088020008800300084B
:1003700004000120040400009802000820A10700E6
:04000005080001DD11
:00000001FF
