:020000040800F2
:1000000078050120DD010008E5010008E70100088E
:10001000E9010008EB010008ED0100080000000004
:10002000000000000000000000000000EF010008D8
:10003000F101000800000000F30100087D02000843
:10004000F7010008F7010008F7010008F7010008B0
:10005000F7010008F7010008F7010008F7010008A0
:10006000F7010008F7010008F7010008F701000890
:10007000F7010008F7010008F7010008F701000880
:10008000F7010008F7010008F7010008F701000870
:10009000F7010008F7010008F7010008F701000860
:1000A000F7010008F7010008F7010008F701000850
:1000B000F7010008F7010008F7010008F701000840
:1000C000F7010008F7010008F7010008F701000830
:1000D000F7010008F7010008F7010008F701000820
:1000E000F7010008F7010008F7010008F701000810
:1000F000F7010008F7010008F7010008F701000800
:10010000F7010008F7010008F7010008F7010008EF
:10011000F7010008F7010008F7010008F7010008DF
:10012000F7010008F7010008F7010008F7010008CF
:10013000F7010008F7010008F7010008F7010008BF
:10014000F7010008F7010008F7010008F7010008AF
:10015000F7010008F7010008F7010008F70100089F
:10016000F7010008F7010008F7010008F70100088F
:10017000F7010008F7010008F7010008000000007F
:10018000F7010008F7010008F7010008F70100086F
:10019000F7010008F7010008F7010008F70100085F
:1001A000F7010008F7010008F7010008F70100084F
:1001B000F7010008F7010008F7010008F70100083F
:1001C000F7010008F7010008DFF80CD000F018F87C
:1001D000004800472D0400087805012006488047A4
:1001E00006480047FEE7FEE7FEE7FEE7FEE7FEE71C
:1001F000FEE7FEE7FEE7FEE7A9030008C9010008E5
:10020000064C074D06E0E06840F0010394E8070063
:1002100098471034AC42F6D3FFF7DAFF240A0008FF
:10022000440A000870B58C1810F8015B15F007033C
:1002300001D110F8013B2A1106D110F8012B03E07F
:1002400010F8016B01F8016B5B1EF9D12B0705D487
:100250000023521E0DD401F8013BFAE710F8013BD0
:10026000CB1A921C03E013F8015B01F8015B521EEC
:10027000F9D5A142D8D3002070BD00000120154956
:10028000087015480068401C13490860134800684E
:10029000401C1249086010480068132802DD002045
:1002A0000D4908600D480068632812DD00200B49E5
:1002B00008600B480068401C09490860094800684C
:1002C000401C08490860084600683C2801DD002001
:1002D00008607047140001200C000120100001206C
:1002E000700101206C01012070B500200022022362
:1002F00000240221274D2D6805F00C0020B10428B0
:1003000006D0082834D107E0234D244E356033E071
:10031000234D224E35602FE01E4D2D1F2D68C5F355
:1003200080541C4D2D1F2D6805F03F0154B11C4D0C
:10033000B5FBF1F5174E361F3668C6F3881605FB78
:1003400006F209E0144DB5FBF1F5124E361F366882
:10035000C6F3881605FB06F20E4D2D1F2D68C5F35A
:1003600001456D1C6B00B2FBF3F50C4E356003E0EC
:10037000094D0A4E356000BF00BF064D2D68C5F31C
:100380000315084E705D054D2D68C540034E356060
:1003900070BD0000083802400024F4007401012000
:1003A00040787D010C0A00081448006840F4700091
:1003B000124908601248006840F0010010490860C6
:1003C00000200F49083108600D4800680D490840B9
:1003D0000B4908600C48091D0860081F006820F4DC
:1003E0008020091F0860002005490C3108604FF08B
:1003F00000600249803908607047000088ED00E025
:1004000000380240FFFFF6FE1030002402E008C86A
:10041000121F08C1002AFAD170477047002001E07E
:1004200001C1121F002AFBD170470000FF20F949CB
:100430000860F948F94908600020091D0860F6487D
:10044000091D0860091D0860F548F649086000208C
:100450004860F3488860C860F348F44908600020A9
:10046000091D0860F048091D0860091D0860FFF7B4
:100470003BFFEF4800684FF47A72B0FBF2F1481E80
:10048000B0F1807F00D31BE0481E4FF0E0225061A6
:1004900050170F22002804DB13071C0EE54B1C54D9
:1004A00006E013071D0EE44B00F00F04241F1D553A
:1004B00000BF00204FF0E02290610720106100BFD4
:1004C0004FF2FF30D549143108604FF47040D549E0
:1004D00048614FF6C070D54914310860D148406971
:1004E00040F00100CF4948610846406940F00200F1
:1004F00048610846406940F0040048610846406988
:1005000040F0080048610846406940F0100048612A
:100510000846406940F0200048610846406940F0C4
:100520004000486166E2C54800780128FAD1C44815
:10053000006814287ED2DFE800F00A2945617E9A1F
:10054000B6D2FAF8F7F6F5F4F3F2F1F0EFEEB748B9
:100550001430006840F40040B44914310860AF48DA
:100560001430006820F00100AC4914310860AD4837
:1005700040694FF680710840B24AB34909681331A7
:1005800052F821100843A74948612FE2A3481430CC
:10059000006840F00100A149143108600846006875
:1005A00020F0020008609F4840694FF680710840C3
:1005B000A44AA5490968123152F821100843994903
:1005C000486113E295481430006840F002009349F6
:1005D000143108600846006820F004000860914863
:1005E00040694FF680710840964A97490968113171
:1005F00052F8211008438B494861F7E187481430CD
:10060000006840F00400854914310860084600681D
:1006100020F008000860834840694FF68071084068
:10062000884A89490968103152F8211008437D49E8
:100630004861DBE1D9E179481430006840F00800F6
:100640007649143108600846006820F01000086000
:10065000744840694FF6807108407A4A7A490968BF
:100660000F3152F8211008436E494861BEE16B48D2
:100670001430006840F010006849143108600846E2
:10068000006820F020000860664840694FF68071DD
:1006900008406C4A6C4909680E3152F82110084331
:1006A00060494861A2E15D481430006840F02000D4
:1006B0005A49143108600846006820F0400008607C
:1006C000584840694FF6807108405E4A5E490968A3
:1006D0000D3152F8211008435249486186E14F48D4
:1006E0001430006840F040004C491431086008465E
:1006F000006820F0800008604A4840694FF6807129
:100700000840504A504909680C3152F821100843FA
:10071000444948616AE14FE134E119E1FEE0E3E078
:10072000C8E0ADE092E059E039E01CE0FFE73B486B
:100730001430006840F080003849143108600846E1
:10074000006820F480700860364840694FF6807178
:1007500008403C4A3C4909680B3152F821100843D3
:100760003049486142E12D481430006840F48070FF
:100770002A49143108600846006820F400700860B7
:10078000284840694FF6807108402E4A2E49096872
:100790000A3152F8211008432249486126E11F48D6
:1007A0001430006840F400701C49143108601F4880
:1007B0001430006820F040001C49143108601948CA
:1007C00040694FF6807108401E4A1F490968093187
:1007D00052F8211008431349486107E113481430C7
:1007E000006840F040001149143108600846006874
:1007F00020F0800008600B4840694FF68071084087
:10080000104A11490968083152F821100843054976
:100810004861EBE03038024055550555000802406C
:100820005515505500100240005055550014024017
:100830007401012000E400E018ED00E01400012044
:100840000C000120240001206C0101206A4800688E
:1008500040F08000684908600846006820F4807015
:100860000860664840694FF680710840644A6549EF
:100870000968C91D52F82110084360494861B5E074
:100880005D48006840F480705B4908600846006875
:1008900020F400700860594840694FF680710840A4
:1008A000574A58490968891D52F82110084353498D
:1008B00048619BE05048006840F400704E49086071
:1008C0000846006820F4806008604C4840694FF694
:1008D000807108404A4A4B490968491D52F8211065
:1008E00008434649486181E04348006840F480601D
:1008F000414908600846006820F4006008603F48ED
:1009000040694FF6807108403D4A3E490968091D1B
:1009100052F8211008433949486167E036480068B9
:1009200040F40060344908600846006820F48050B4
:100930000860324840694FF680710840304A3149BA
:100940000968C91C52F8211008432C4948614DE040
:100950002948006840F4805027490860084600682C
:1009600020F400500860254840694FF68071084027
:10097000234A24490968891C52F8211008431F4959
:10098000486133E01C48006840F400501A49086090
:100990000846006820F480400860184840694FF617
:1009A00080710840164A17490968491C52F82110FD
:1009B00008431249486119E00F48006840F480403C
:1009C0000D4908600846006820F4004008600B48A4
:1009D00040694FF68071084009490A4A126851F887
:1009E000221008430549486100E000BF00BF002015
:1009F0000549087097E500001414024000100240F9
:100A0000240001206C0101201400012000000000DE
:100A100000000000010203040607080900000000AE
:100A200001020304440A00080000012078010000CC
:100A300024020008780A0008780101200004000060
:100A40001C0400080372E803DA4B04B27F290C9AF5
:100A50001804A91CDA4304A91C32739A5304B25F28
:100A6000290C32335A1304E9700916549A1F34E9D9
:080A700038013D1324F40000DD
:04000005080001DD11
:00000001FF
