:100000000C9415030C943D030C943D030C943D0398
:100010000C943D030C943D030C943D030C943D0360
:100020000C943D030C943D030C943D030C943D0350
:100030000C943D030C943D030C943D030C943D0340
:100040000C943B120C943D030C943D030C943D0323
:100050000C943D030C943D030C943D030C943D0320
:100060000C943D030C943D0300000000003E5B4FE8
:100070005B3E3E6B4F6B3E1C3E7C3E1C183C7E3C08
:10008000181C577D571C1C5E7F5E1C00183C180016
:10009000FFE7C3E7FF0018241800FFE7DBE7FF30A6
:1000A000483A060E2629792926407F050507407F14
:1000B00005253F5A3CE73C5A7F3E1C1C08081C1C87
:1000C0003E7F14227F22145F5F005F5F06097F017D
:1000D0007F006689956A606060606094A2FFA29468
:1000E00008047E040810207E201008082A1C080836
:1000F0001C2A08081E101010100C1E0C1E0C303884
:100100003E3830060E3E0E06000000000000005F84
:1001100000000007000700147F147F14242A7F2AA0
:100120001223130864623649562050000807030062
:10013000001C2241000041221C002A1C7F1C2A08AE
:10014000083E080800807030000808080808000011
:1001500060600020100804023E5149453E00427F85
:10016000400072494949462141494D331814127FD4
:100170001027454545393C4A494931412111090774
:100180003649494936464949291E000014000000F5
:1001900040340000000814224114141414140041C7
:1001A00022140802015909063E415D594E7C121184
:1001B000127C7F494949363E414141227F414141BC
:1001C0003E7F494949417F090909013E4141517337
:1001D0007F0808087F00417F41002040413F017FA8
:1001E000081422417F404040407F021C027F7F0470
:1001F00008107F3E4141413E7F090909063E4151B9
:10020000215E7F09192946264949493203017F01A8
:10021000033F4040403F1F2040201F3F4038403FA9
:10022000631408146303047804036159494D4300BF
:100230007F4141410204081020004141417F0402F6
:10024000010204404040404000030708002054548D
:1002500078407F284444383844444428384444286B
:100260007F385454541800087E090218A4A49C78BE
:100270007F0804047800447D40002040403D007F1A
:100280001028440000417F40007C047804787C08FA
:100290000404783844444438FC18242418182424CE
:1002A00018FC7C08040408485454542404043F44B3
:1002B000243C4040207C1C2040201C3C4030403CE2
:1002C00044281028444C9090907C4464544C440042
:1002D00008364100000077000000413608000201A6
:1002E0000204023C2623263C1EA1A161123A404092
:1002F000207A38545455592155557941225454780F
:1003000042215554784020545579400C1E527212A7
:100310003955555559395454545939555454580030
:1003200000457C410002457D420001457C407D1234
:1003300011127DF0282528F07C5455450020545496
:100340007C547C0A097F4932494949323A44444441
:100350003A324A4848303A4141217A3A424020787C
:10036000009DA0A07D3D4242423D3D4040403D3C7D
:1003700024FF2424487E4943662B2FFC2F2BFF09A2
:1003800029F620C0887E0903205454794100004496
:100390007D413048484A32384040227A007A0A0A81
:1003A000727D0D19317D2629292F282629292926F4
:1003B00030484D4020380808080808080808382F39
:1003C00010C8ACBA2F102834FA00007B00000814C3
:1003D0002A142222142A14085500550055AA55AA99
:1003E00055AAFF55FF55FF000000FF00101010FF39
:1003F00000141414FF001010FF00FF1010F010F094
:10040000141414FC001414F700FF0000FF00FF1484
:1004100014F404FC141417101F10101F101F1414D0
:10042000141F00101010F0000000001F101010101A
:100430001F10101010F010000000FF10101010100E
:1004400010101010FF10000000FF140000FF00FF4C
:1004500000001F10170000FC04F4141417101714E8
:1004600014F404F40000FF00F7141414141414140A
:10047000F700F7141414171410101F101F1414147D
:10048000F4141010F010F000001F101F0000001FE7
:1004900014000000FC140000F010F01010FF10FF1A
:1004A000141414FF141010101F00000000F010FFAF
:1004B000FFFFFFFFF0F0F0F0F0FFFFFF0000000093
:1004C00000FFFF0F0F0F0F0F3844443844FC4A4A17
:1004D0004A347E02020606027E027E0263554941CC
:1004E000633844443C04407E201E2006027E020203
:1004F00099A5E7A5991C2A492A1C4C7201724C3017
:100500004A4D4D303048784830BC625A463D3E49ED
:100510004949007E0101017E2A2A2A2A2A44445F91
:10052000444440514A444040444A51400000FF0185
:1005300003E080FF000008086B6B08361236243693
:10054000060F090F060000181800000010100030F8
:1005500040FF0101001F01011E00191D1712003C80
:100560003C3C3C0000000000EF03038002CF03008E
:10057000C130ED0464031281E803850078CB0539AE
:100580002C003402F70120EA020000C00123C1015F
:1005900010C5023E28C701863601483701003A01DE
:1005A00055B1020018B603088227F20100260101A6
:1005B000E00F0F312B0C0E084EF1370710030E0918
:1005C00000E10F000E1403110731C148080F0C3170
:1005D000360F118029800000000000240027002A27
:1005E0000000000000250028002B0004040404047F
:1005F00004040402020202020203030303030301D0
:1006000002040810204080010204081020010204A6
:100610000810200000000800020100000304070089
:100620000000000000000000CC1311241FBECFEF1B
:10063000D8E0DEBFCDBF11E0A0E0B1E0EAE3FCE22C
:1006400002C005900D92AE34B107D9F723E0AEE4B5
:10065000B1E001C01D92A633B207E1F713E0C5E196
:10066000D3E004C02197FE010E941016C431D107C7
:10067000C9F70E9485120C941B160C940000AF92CF
:10068000BF92CF92DF92EF92FF920F931F93CF937F
:10069000DF936C017B018B01040F151FEB015E01E1
:1006A000AE18BF08C017D10759F06991D601ED9176
:1006B000FC910190F081E02DC6010995892B79F715
:1006C000C501DF91CF911F910F91FF90EF90DF90C7
:1006D000CF90BF90AF90089590E0FC01ED5EF94F90
:1006E0002491FC01E150FA4F3491FC01E551FA4F9D
:1006F000E491EE23C9F0222339F0233001F1A8F46C
:10070000213019F1223029F1F0E0EE0FFF1FEF51F7
:10071000FA4FA591B4918FB7F894EC91611126C06E
:1007200030953E233C938FBF08952730A9F02830A1
:10073000C9F0243049F7809180008F7D03C08091FB
:1007400080008F7780938000DFCF84B58F7784BD62
:10075000DBCF84B58F7DFBCF8091B0008F77809306
:10076000B000D2CF8091B0008F7DF9CF3E2BDACF91
:10077000CF93DF9390E0FC01E150FA4F2491855133
:100780009A4FFC0184918823D1F090E0880F991F43
:10079000FC01E952FA4FA591B491FC01EF51FA4FD7
:1007A000C591D49161110EC09FB7F8948C91E22F3E
:1007B000E0958E238C932881E223E8839FBFDF910D
:1007C000CF9108958FB7F894EC91E22BEC938FBF03
:1007D000F6CF3FB7F8948091530190915401A091C6
:1007E0005501B091560126B5A89B05C02F3F19F0C1
:1007F0000196A11DB11D3FBFBA2FA92F982F8827A1
:10080000BC01CD01620F711D811D911D42E0660F7B
:10081000771F881F991F4A95D1F708958F929F924D
:10082000AF92BF92CF92DF92EF92FF924B015C01A9
:100830000E94E9036B017C010E94E9036C197D09A8
:100840008E099F09683E734081059105A8F321E058
:10085000821A9108A108B10888EEC80E83E0D81E5C
:10086000E11CF11C81149104A104B10429F7FF904B
:10087000EF90DF90CF90BF90AF909F908F900895B2
:10088000FC01A5A1B6A18C9192A589238C93A5A169
:10089000B6A18C9191A5892B8C9308950F931F93EA
:1008A000CF93DF93EC018B018DA981110DC01EBD8B
:1008B0000DB407FEFDCF0EBD0DB407FEFDCFDF91D9
:1008C000CF911F910F9108958130E9F480E1E9A162
:1008D000FAA1908117FF14C02DA1922B9083EBA158
:1008E000FCA190812FA1922B9083EBA1FCA1908180
:1008F00028A592239083000F111F815041F7DFCF6D
:100900002EA19223EBCFEF8DF8A11083CE010E9490
:100910004004EF8DF8A10083CE01DF91CF911F91AC
:100920000F910C944004FC0185A9811105C06EBD96
:100930000DB407FEFDCF08958130E1F488E0A1A158
:10094000B2A19C9167FF13C025A1922B9C93A3A1F8
:10095000B4A19C9127A1922B9C93660FA3A1B4A153
:100960009C9120A592239C93815049F7089526A13C
:100970009223ECCFA78DB0A16C93CF010C944004CF
:10098000CF93DF93EC01ED8DFE8D80819CA98923AF
:100990008083CE010E949304ED8DFE8D80819BA902
:1009A000892B8083DF91CF910895AF92BF92CF9230
:1009B000DF92EF92FF920F931F93CF93DF93EC019F
:1009C0005B016A01215031097901E60EF71E0150E1
:1009D0001109040F151F6AE20E94C004B501CE017F
:1009E0000E944E04B701CE010E944E046BE2CE017C
:1009F0000E94C004B601CE010E944E04B801CE018F
:100A00000E944E046CE2CE01DF91CF911F910F91B5
:100A1000FF90EF90DF90CF90BF90AF900C94C00408
:100A2000FC0185A9811104C091A182A19CBD8DBD4D
:100A300008951F93CF93DF93EC01162FE881F9817E
:100A40000284F385E02D0995112371F06DADCE017F
:100A50000E94C004E881F9810688F789E02DCE0163
:100A6000DF91CF911F9109946EADF1CFAF92BF92FC
:100A7000CF92DF92EF92FF920F931F93CF93DF936A
:100A8000EC0177FD38C088859985681779079CF552
:100A900057FD31C08A859B854817590764F5690160
:100AA0007A015B01E881F9810284F385E02DCE01B2
:100AB0000995E881F98102A4F3A5E02D01E010E099
:100AC00021E030E0A701B501CE010995B601CE01C4
:100AD0000E944E04E881F9810688F789E02DCE0155
:100AE000DF91CF911F910F91FF90EF90DF90CF900A
:100AF000BF90AF900994DF91CF911F910F91FF901C
:100B0000EF90DF90CF90BF90AF9008958F929F921B
:100B1000AF92BF92CF92DF92EF92FF920F931F930B
:100B2000CF93DF93EC0149015701E881F98102A4D9
:100B3000F3A5E02D09959401D8010E9401166B01DF
:100B40007C01C114D104E104F10409F490C08DA921
:100B5000811115C081E0C81AD108E108F1088FEFB2
:100B6000C816D806E806F80609F481C0BEBC0DB464
:100B700007FEFDCFAEBC0DB407FEFDCFEBCF81303D
:100B800009F045C081E0C81AD108E108F1088FEFEB
:100B9000C816D806E806F80609F469C09B2D88E057
:100BA000E9A1FAA1208197FF2CC03DA1232B20832E
:100BB000EBA1FCA120813FA1232B2083EBA1FCA171
:100BC000208138A523232083990F815049F79A2D3E
:100BD00088E0E9A1FAA1208197FF16C03DA1232B4F
:100BE0002083EBA1FCA120813FA1232B2083EBA13B
:100BF000FCA1208138A523232083990F815049F738
:100C0000C1CF3EA12323D3CF3EA12323E9CFBA10E6
:100C100016C0CC0CDD1CEE1CFF1CEF8DF8A1B082C1
:100C200081E0C81AD108E108F1088FEFC816D8068C
:100C3000E806F806E1F0CE010E944004F1CF81E021
:100C4000C81AD108E108F1088FEFC816D806E806DF
:100C5000F80669F0EF8DF8A1B082CE010E94400441
:100C6000EF8DF8A1A082CE010E944004E8CFDF9171
:100C7000CF911F910F91FF90EF90DF90CF90BF9099
:100C8000AF909F908F9008958F929F92AF92BF9256
:100C9000CF92DF92EF92FF920F931F93CF93DF9348
:100CA0004C01EB016A01590137FF07C0C9010196E8
:100CB000C80FD91FB194A194B108F401A085B185E2
:100CC000CA17DB070CF058C017FF07C0C801019610
:100CD000C80ED91E119501951109F40182859385DD
:100CE000C816D9060CF048C0FE01EA0DFB1DAF0185
:100CF0004150510957FD40C0B601600F711F9B0163
:100D00002150310937FD38C0D7FF03C05F01D0E063
:100D1000C0E0D7FE03C08B01D12CC12C4A175B0762
:100D20001CF05D01AC1ABD0A281739071CF08C01B4
:100D30000C191D09D401ED91FC910284F385E02D7D
:100D4000C40109959501A601BE01C4010E94860552
:100D5000D401ED91FC910688F789E02DC401DF9163
:100D6000CF911F910F91FF90EF90DF90CF90BF90A8
:100D7000AF909F908F900994DF91CF911F910F9129
:100D8000FF90EF90DF90CF90BF90AF909F908F90AB
:100D90000895EF92FF920F931F932115310529F0CB
:100DA0000115110511F00E9444061F910F91FF904B
:100DB000EF9008958F929F92AF92BF92CF92DF9261
:100DC000EF92FF920F931F93CF93DF935C014B0140
:100DD0006A01E90177FD52C0DC0118968D919C9162
:100DE000681779070CF04AC0209709F447C037FF0D
:100DF00007C0C9010196C80ED91ED195C195D10968
:100E0000F50182859385C816D906C4F5A6014C0F55
:100E10005D1F9A012150310937FD30C0D7FE03C054
:100E2000EA01D12CC12C281739071CF0EC01CC1990
:100E3000DD09D501ED91FC910284F385E02DC5011A
:100E4000099578018E0121E030E0A601B401C501C9
:100E50000E948605D501ED91FC910688F789E02D69
:100E6000C501DF91CF911F910F91FF90EF90DF901F
:100E7000CF90BF90AF909F908F900994DF91CF91CA
:100E80001F910F91FF90EF90DF90CF90BF90AF90A8
:100E90009F908F9008958F929F92AF92BF92CF9222
:100EA000DF92EF92FF920F931F93CF93DF935C013A
:100EB0006B014A01E90157FD52C0DC011A968D9180
:100EC0009C91481759070CF04AC0209709F447C075
:100ED00037FF07C0C9010196C80ED91ED195C1952B
:100EE000D109F50180859185C816D906C4F5A601FA
:100EF0004C0F5D1F9A012150310937FD30C0D7FEDC
:100F000003C0EA01D12CC12C281739071CF0EC01D1
:100F1000CC19DD09D501ED91FC910284F385E02D1A
:100F2000C5010995780101E010E09E01A401B60118
:100F3000C5010E948605D501ED91FC910688F789CF
:100F4000E02DC501DF91CF911F910F91FF90EF90A0
:100F5000DF90CF90BF90AF909F908F900994DF91DA
:100F6000CF911F910F91FF90EF90DF90CF90BF90A6
:100F7000AF909F908F900895EF92FF920F931F93E1
:100F8000CF93DF9377FD32C0DC011896ED91FC9191
:100F90006E177F075CF52115310541F137FF07C05A
:100FA000F90131964E0F5F1F319521953109DC0112
:100FB0001A96ED91FC914E175F07C4F4EA01C20F37
:100FC000D31FDE011197B7FD11C057FF03C09E016B
:100FD00050E040E0AE17BF071CF09F01241B350B0B
:100FE0007801890121E030E00E948605DF91CF91F0
:100FF0001F910F91FF90EF900895EF92FF920F9342
:101000001F93CF93DF9357FD31C0DC011A96ED910A
:10101000FC914E175F0754F52115310539F137FF63
:1010200007C0F90131966E0F7F1F31952195310967
:10103000DC011896ED91FC916E177F07BCF4EB0173
:10104000C20FD31FDE011197B7FD10C077FF03C099
:101050009E0170E060E0AE17BF071CF09F01261BE9
:10106000370B780101E010E00E948605DF91CF91F7
:101070001F910F91FF90EF9008958F929F92AF92E2
:10108000BF92CF92DF92EF92FF920F931F93CF9375
:10109000DF9347012115310509F44BC001151105F6
:1010A00009F447C037FF07C0F90131966E0F7F1F63
:1010B000319521953109DC011896AD90BC906A15E7
:1010C0007B05BCF517FF07C0F80131964E0F5F1F77
:1010D000119501951109DC011A96ED91FC914E17BD
:1010E0005F073CF56B01C20ED31EE6012197D7FDC9
:1010F00020C07A01E00EF11ED7011197B7FD19C08B
:1011000077FF03C0960170E060E057FF03C08701DE
:1011100050E040E0CA15DB051CF09501261B370B9B
:10112000AE17BF071CF08F01041B150B74010E9442
:101130008605DF91CF911F910F91FF90EF90DF9087
:10114000CF90BF90AF909F908F900895EF92FF92B5
:101150000F931F93CF93DF93EC0177FD22C0888517
:10116000998568177907ECF457FD1BC08A859B8524
:1011700048175907B4F47901E881F98102A4F3A56D
:10118000E02D01E010E021E030E0CE010995B7014B
:10119000CE01DF91CF911F910F91FF90EF900C94B2
:1011A0004E04DF91CF911F910F91FF90EF90089522
:1011B000CF93DF93EC010E9410058FA987FD06C035
:1011C000EB8DFC8D80819AA989238083DF91CF915B
:1011D00008950895EF92FF920F931F93CF93DF939B
:1011E000EC01162F7A01022F0E9410058FA987FDAE
:1011F00006C0EB8DFC8D80819AA989238083ED8DBB
:10120000FE8D80819CA989238083612FCE010E945D
:101210009304ED8DFE8D80819BA9892B808390E0C6
:1012200080E010E0801791074CF4F70161917F0195
:10123000CE010E94930481E090E0F4CF8FA987FD56
:1012400006C0EB8DFC8D808199A9892B8083DF916D
:10125000CF911F910F91FF90EF900895611106C0FB
:1012600060E220E050E040E00C94EA0861E2F9CF4F
:10127000CF93DF931F92CDB7DEB7FC016370668B0F
:10128000623071F0633011F188E4613051F488E22A
:10129000898380E491E09187808780EF90E008C0A7
:1012A00088E8898380EF90E09187808780E491E0EF
:1012B0009387828721E0AE014F5F5F4F66E3CF01E6
:1012C0000E94EA080F90DF91CF91089588EEE0CF59
:1012D000FC0187A987FD06C0A38DB48D9C9181A9CF
:1012E000892B8C9308950895FC016370668B84812B
:1012F000958126813781613039F0633029F09187FB
:101300008087338722870895318720879387828754
:1013100008952F923F924F925F926F927F928F9299
:101320009F92AF92BF92CF92DF92EF92FF920F9374
:101330001F93CF93DF93CDB7DEB76A970FB6F894BC
:10134000DEBF0FBECDBF9A8F898F7A8369834A0132
:10135000D22E18870F833701BC2CDC0159962D91B2
:101360003C915A972115310509F015C118968D91B8
:101370009C911997681779070CF0D7C11A968D912F
:101380009C91481759070CF0D0C14C2C512CB6E059
:10139000CB9E600D711D11247C876B871616170676
:1013A0000CF0C3C1EA2DF0E0FA87E98793E0EE0F75
:1013B000FF1F9A95E1F7F88BEF87CF01840F951FF8
:1013C000181619060CF0B1C1A98DBA8D58968C91DA
:1013D000811104C0BFEABD1508F4D394A98DBA8D5C
:1013E000ED91FC9111970284F385E02DCD010995D3
:1013F000B5E0DB9EC0011124E981FA81FC83EB8317
:10140000312C212C9C0128593F4F388F2F8B4A2D8E
:1014100050E05E8B4D8BEF89F88DE20DF31D44910A
:101420009E828D82D12CC12C69817A81620D731DBF
:101430007A8B698B842F90E09C8B8B8BE98DFA8D56
:10144000A081B18140FF82C0F1E0BF126FC0AF1236
:101450006DC01C96ED91FC912F813885A4014C0D37
:101460005D1D69897A89898D9A8D0995EB89FC8939
:10147000F595E7954E2F5FEFC51AD50A6D817E81F0
:101480008D899E89680F791F7E836D8398E0C916C8
:10149000D10481F6AFEF2A1A3A0AEB81FC81E40D00
:1014A000F51DFC83EB83F5E02F16310409F0B3CF73
:1014B0002F81388526153705B9F0A98DBA8DED91A4
:1014C000FC91B1E0BB1257C0AB1255C069817A8163
:1014D0006B5F7F4F0088F189E02D830128E030E0C9
:1014E000A401898D9A8D0995A98DBA8DED91FC91F4
:1014F00011970688F789E02DCD016A960FB6F8940A
:10150000DEBF0FBECDBFDF91CF911F910F91FF9036
:10151000EF90DF90CF90BF90AF909F908F907F9093
:101520006F905F904F903F902F9009941E96ED9191
:10153000FC91EF80F88409851A8592014D815E81C6
:101540006B817C81898D9A8D099590CF2F8138850B
:101550002615370509F48ACF31E0B31207C0A3126C
:1015600005C01C96ED91FC91930178CF1E96ED91EC
:10157000FC917301E0CF6B857C8564197509068445
:10158000F785E02D73010F8518899201A401898DDB
:101590009A8D0995A9CFF901349694913297459186
:1015A0005491D91AB7E0DB9E400D511D1124F90169
:1015B000259134913C8B2B8BFA0125903490FA01C4
:1015C0003296749031963491398B3296649031967C
:1015D000449041E04C1518F04A1508F07FC0662D84
:1015E000062C000C770B7C836B83842D042C000C61
:1015F000990B9E838D83A98DBA8DED91FC911197E6
:101600000284F385E02DCD010995512CD12CC12CFC
:10161000EA2DF0E0FA87E9872B2D30E03C872B8715
:10162000A401440D511D47FC5A95588F4F8B698179
:101630007A81660D711D67FC7A957E876D87798941
:10164000C71608F051CF2C2D30E04D815E81420F3E
:10165000531FA985BA854A9FC0014B9F900D5A9F81
:10166000900D1124FC01E80DF91DF88BEF87852DF5
:10167000612C4F89588D420F531F5E8B4D8B671421
:1016800008F050C044244394480E877041F4C101CF
:101690000196EB89FC89E20DF31DD4901C01D7FE65
:1016A00019C0A98DBA8DED91FC91662D70E0B1E065
:1016B000BB1219C0AB1217C02D853E85620F731F78
:1016C0000484F585E02D2F8138854D895E89898DCB
:1016D0009A8D0995DD0C6394842DD1CF1E821D82D5
:1016E0001C821B8288CF4B815C81640F751FAB8588
:1016F000BC856A9FC0016B9F900D7A9F900D11244D
:1017000069817A81680F791F0684F785E02DEF8063
:10171000F88409851A859D014F855889898D9A8D90
:101720000995D8CF570CC3948ACF6A960FB6F89410
:10173000DEBF0FBECDBFDF91CF911F910F91FF9004
:10174000EF90DF90CF90BF90AF909F908F907F9061
:101750006F905F904F903F902F9008958F929F923F
:10176000AF92CF92EF92FF920F931F93CF93DF939D
:10177000EC01262F898D9A8D009709F051C06A30AF
:10178000D1F41D861C868D8948E0849F9001112428
:101790008E859F85820F931F9F878E8781E090E0C3
:1017A000DF91CF911F910F91FF90EF90CF90AF906D
:1017B0009F908F9008956D3089F3CC88AD888F8984
:1017C0008823C1F08C859D8536E0C39E800D911DD8
:1017D0001124488559854817590764F44E855F855B
:1017E0001D861C8638E0A39EC0011124840F951F1E
:1017F0009F878E87EA88FB88088919894E855F85CF
:101800006C857D85CE010E9489092C898C859D85FA
:1018100046E0249F800D911D11249D878C87BECFAB
:101820006A3069F41D861C86FC013696E4912D8988
:101830008E859F85E29F800D911D1124ADCF6D3067
:1018400009F4ACCFFC0134963491631708F4A6CFA9
:101850003196E491E61708F4A1CFFC013296859009
:101860009490462F431B342F47E0349F800C911CEB
:101870001124F401329634913196E4913323A9F185
:10188000EE2399F1CC88F4013596E491AD884F8927
:10189000442301F10E2E000CFF0BE30FF11DCE9E31
:1018A000A001CF9E500D11246C857D85460F571FDA
:1018B00068857985641775076CF44E855F851D868C
:1018C0001C86FC013696E491AE9E400D511D1124FC
:1018D0005F874E87EA88FB88088919894E855F856E
:1018E0006C857D85CE010E948909F4013496E491CE
:1018F0002C898C859D85E29F800D911D11248DCFB3
:101900006F927F928F929F92AF92BF92CF92DF920F
:10191000EF92FF920F931F93CF93DF93EC016B0134
:101920005A0139014801E881F9810284F385E02DEB
:101930000995E881F9810288F389E02D87019301F7
:10194000A501B601CE010995A501480D591D4150CB
:101950005109E881F9810288F389E02D9301B601EC
:10196000CE010995E881F9810088F189E02D940183
:10197000A501B601CE010995C60CD71CB601615070
:101980007109E881F9810088F189E02D9401A501B0
:10199000CE010995E881F9810688F789E02DCE010D
:1019A000DF91CF911F910F91FF90EF90DF90CF903B
:1019B000BF90AF909F908F907F906F9009946F929F
:1019C0007F928F929F92AF92BF92CF92DF92EF92CF
:1019D000FF920F931F93CF93DF935C01EB016A019A
:1019E000490138018701DC01ED91FC916217730711
:1019F00019F5641675062CF0962D872D3A01C92E1F
:101A0000D82E9601261937092F5F3F4F048CF58D8C
:101A1000E02DA301BE01C5010995DF91CF911F9172
:101A20000F91FF90EF90DF90CF90BF90AF909F907D
:101A30008F907F906F9008954615570591F4261763
:101A4000370724F0892D4B01C22FD82F9E0128196A
:101A500039092F5F3F4F068CF78DE02DA601B401A9
:101A6000DACF0284F385E02D0995D501ED91FC9143
:101A70000488F589E02D83019401A601BE01C5010A
:101A80000995D501ED91FC910688F789E02DC501F6
:101A9000DF91CF911F910F91FF90EF90DF90CF904A
:101AA000BF90AF909F908F907F906F900994EF922E
:101AB000FF920F931F93DC011A960D911C911B97B7
:101AC00018962D913C911997ED91FC9100A0F1A1F0
:101AD000E02D7B0150E040E070E060E009951F914F
:101AE0000F91FF90EF9008954F925F926F927F92C7
:101AF0008F929F92AF92BF92CF92DF92EF92FF921E
:101B00000F931F93CF93DF936C012B015A0139017F
:101B10004801DC01ED91FC910284F385E02D0995EB
:101B2000E201640C751CD601ED91FC91C615D70538
:101B30005CF40088F189E02D87019401A501BE01C4
:101B4000C60109952196EFCF0688F789E02DC601D9
:101B5000DF91CF911F910F91FF90EF90DF90CF9089
:101B6000BF90AF909F908F907F906F905F904F90BD
:101B700009948F929F92AF92BF92CF92DF92EF9291
:101B8000FF920F931F93CF93DF93EC015B014A0108
:101B90006901E881F9810284F385E02D09959501B9
:101BA0002C0D3D1D21503109E881F9810488F5890A
:101BB000E02D78018401A401B501CE010995E881E9
:101BC000F9810688F789E02DCE01DF91CF911F9131
:101BD0000F91FF90EF90DF90CF90BF90AF909F90CC
:101BE0008F9009948F929F92AF92BF92CF92DF9283
:101BF000EF92FF920F931F93CF93DF93EC015B0162
:101C00004A0169017801E881F9810284F385E02DB8
:101C10000995C80CD91C860101501109E881F98188
:101C20000488F589E02D9501A401B501CE0109953F
:101C3000E881F9810688F789E02DCE01DF91CF9107
:101C40001F910F91FF90EF90DF90CF90BF90AF90DA
:101C50009F908F9009940895EF92FF920F931F9396
:101C6000DC01ED91FC9100A0F1A1E02D09951F91FF
:101C70000F91FF90EF9008950F931F93DC01ED916A
:101C8000FC91068CF78DE02D09951F910F91089519
:101C90000F931F93DC01ED91FC91048CF58DE02DE9
:101CA00009951F910F910895DC01ED91FC9100843D
:101CB000F185E02D09942F923F924F925F926F929F
:101CC0007F928F929F92AF92BF92CF92DF92EF92CC
:101CD000FF920F931F93CF93DF9300D000D000D0DB
:101CE000CDB7DEB73C016A013E832D83FC82EB82D7
:101CF0005801A41AB50AB7FE03C0B194A194B10863
:101D00008D809E80861A970A97FE03C091948194D5
:101D100091088A149B045CF0902F812F0D811E8105
:101D20009D838E839C2D8D2D6B01692F782F0C1533
:101D30001D055CF09D818E817E836D83692F782FD8
:101D4000902F812F8601C92ED82E1601201A310A14
:101D50002B012D813E81421A530A57FE03C0519434
:101D600041945108710137FE03C03FEFE31AF30AB3
:101D7000F594E7948D819E81861797075CF5A1E025
:101D8000B0E0BA83A983C016D1064CF1D301ED911E
:101D9000FC910484F585E02D2B813C81A8016D81A7
:101DA0007E818A149B041CF04D815E81B801C301C1
:101DB0000995E418F508F7FE0AC02D813E81898156
:101DC0009A81280F391F3E832D83E20CF31C0F5F8D
:101DD0001F4FD9CF2FEF3FEF3A832983D4CF2696D9
:101DE0000FB6F894DEBF0FBECDBFDF91CF911F912C
:101DF0000F91FF90EF90DF90CF90BF90AF909F90AA
:101E00008F907F906F905F904F903F902F900895AC
:101E1000089590E080E008958F929F92AF92BF92D4
:101E20000F931F93CF93DF93CDB7DEB7A1970FB674
:101E3000F894DEBF0FBECDBF19A2423008F44AE0CD
:101E40008E010F5D1F4F842E912CB12CA12CA5016A
:101E500094010E949F14E62FB901CA01EA3044F5AB
:101E6000E05DD801EE938D01232B242B252B79F7F0
:101E700090E080E0109769F0FD0101900020E9F703
:101E80003197AF014A1B5B0BBD0183EF92E00E94CB
:101E90003F03A1960FB6F894DEBF0FBECDBFDF9112
:101EA000CF911F910F91BF90AF909F908F90089509
:101EB000E95CD7CFFC0101900020E9F73197AF0131
:101EC000481B590BBC0183EF92E00C943F030E9426
:101ED0001616AF92BF92CF92DF92EF92FF920F93BE
:101EE0001F93CF93DF93EC016A017B01C114D104EE
:101EF000E104F10431F4C12C42E1D42E4AE7E42E8E
:101F0000F12C8FA987FD07C061E00E94B80361E052
:101F10008FA90E946C0361E088AD0E94B80361E064
:101F200088AD0E946C038DA98111C1C040E052E1CF
:101F30006AE770E0C416D506E606F70640F4769523
:101F40006795579547958F5F8630A1F787E0982F63
:101F5000906A969599A3809581708AA31BA21CA272
:101F60001DA21EA21FB7F89480915101811127C0B4
:101F7000E5EFF5E08491E9E0F6E09491E82FF0E0F8
:101F8000EE0FFF1FE952FA4FA591B491EC91E923AE
:101F900021F461E08AE00E946C0361E08AE00E9423
:101FA000B8038CB580618CBD8CB580648CBD61E05C
:101FB0008DE00E94B80361E08BE00E94B80380913D
:101FC00051018F5F809351011FBF8EA987FD21C0F2
:101FD00061E00E94B80361E08EA90E946C0364E690
:101FE00070E080E090E00E940E0460E08EA90E9404
:101FF0006C0364E670E080E090E00E940E0461E013
:102000008EA90E946C0368EC70E080E090E00E9472
:102010000E048EA987FF0DC020E050E040E061E093
:10202000CE010E94EA0866E970E080E090E00E943C
:102030000E0408E615E0C8010196F801E490EE20D0
:1020400009F495C00E5F1F4FFC01F490CF2CE8946B
:10205000C7F8CE010E9410058FA987FD06C0EB8D41
:10206000FC8D80819AA989238083ED8DFE8D8081EE
:102070009CA9892380836E2DCE010E949304ED8D4F
:10208000FE8D80819BA9892B8083B12CA12CD12C22
:10209000AC14BD040CF057C0F801EA0DFB1D6491AF
:1020A000CE010E949304FFEFAF1ABF0AF1CF0BEEEF
:1020B00015E0F12C8130B9F461E08AA50E94B803E3
:1020C00060E08AA50E946C0361E08CA50E94B803C1
:1020D00060E08CA50E946C038BA587FD76CF60E045
:1020E0000E94B80372CFF8018491E82FF0E0EE0F60
:1020F000FF1FEF51FA4F859194912F8D38A128172A
:10210000390741F461E08F2D0E94B80360E08F2D04
:102110000E946C03F3940F5F1F4FF4E1FF12E3CFB3
:1021200061E08EA50E94B80361E08EA50E946C0359
:102130008FA587FD4ACF61E00E94B80361E08FA5BB
:102140000E946C0342CF8FA987FD06C0EB8DFC8DEA
:10215000808199A9892B80830C0D1D1DF7FE6BCF03
:1021600066E970E080E090E00E940E0464CF80EFAA
:1021700090E09987888780E491E09B878A87DF9148
:10218000CF911F910F91FF90EF90DF90CF90BF9074
:10219000AF900895CF92DF92EF92FF920F931F932B
:1021A00070E060E083EF92E00E94570D81E0809341
:1021B0000703809308038FEF9FEF909306038093AC
:1021C000050390930403809303031092000310927D
:1021D000FF028AE090E090930203809301033FE1C5
:1021E000E32EF12C01E010E022E231E04AE050E081
:1021F00064E170E083EF92E00E94440684E491E0A1
:102200000E945A0F109200031092FF0284E290E0A5
:10221000909302038093010322E231E044E250E014
:1022200064E170E083EF92E00E9444068FE391E066
:102230000E945A0F109200031092FF028EE390E06A
:10224000909302038093010322E231E04EE350E0D9
:1022500064E170E083EF92E00E9444068AE391E03B
:102260000E945A0F109200031092FF0288E590E03E
:10227000909302038093010322E231E048E550E0AD
:1022800064E170E083EF92E00E94440685E391E010
:102290000E945A0F109200031092FF0283E790E011
:1022A000909302038093010322E231E043E750E080
:1022B00064E170E083EF92E00E94440682E391E0E3
:1022C0000E945A0F109200031092FF028DE890E0D6
:1022D000909302038093010322E231E04DE850E045
:1022E00064E170E083EF92E00E94440684E391E0B1
:1022F0000E945A0F109200031092FF0287EA90E0AA
:10230000909302038093010322E231E047EA50E018
:1023100064E170E083EF92E00E94440689E391E07B
:102320000E945A0F109200031092FF0282EC90E07C
:10233000909302038093010322E231E042EC50E0EB
:1023400064E170E083EF92E00E9444068EE391E046
:102350000E945A0F109200031092FF028CED90E041
:10236000909302038093010322E231E04CED50E0B0
:1023700064E170E083EF92E00E94440683E491E020
:102380000E945A0F82E0809307038093080380E045
:1023900098EF909306038093050390930403809332
:1023A00003038EE190E0909300038093FF028FE09F
:1023B00090E0909302038093010388E491E00E94EF
:1023C0005A0F20915B0130915C01121613060CF03C
:1023D00049C0032E000C440B550B60E67AEE80E0FA
:1023E00090E00E946D1430934F0120934E0184E6DB
:1023F00090E0909300038093FF028FE090E0909331
:102400000203809301038091ED029091EE028C34DF
:10241000910524F010924F0110924E0180914E01CF
:1024200090914F0197FD0196959587956C01092E26
:10243000000CEE08FF0897FF1AC06DE283EF92E0F0
:102440000E94AE0B66277727CB016C197D098E0998
:102450009F094AE01F910F91FF90EF90DF90CF907E
:102460000C940C0F10924F0110924E01C0CF4AE015
:10247000C701B601EFCF1F920F920FB60F92112432
:102480002F933F938F939F93AF93BF938091570167
:1024900090915801A0915901B0915A013091520187
:1024A00023E0230F2D3758F50196A11DB11D209370
:1024B00052018093570190935801A0935901B09312
:1024C0005A018091530190915401A0915501B0910E
:1024D00056010196A11DB11D8093530190935401A3
:1024E000A0935501B0935601BF91AF919F918F91E9
:1024F0003F912F910F900FBE0F901F90189526E8D7
:10250000230F0296A11DB11DD2CF789484B58260AD
:1025100084BD84B5816084BD85B5826085BD85B587
:10252000816085BD80916E00816080936E00109205
:102530008100809181008260809381008091810080
:102540008160809381008091800081608093800011
:102550008091B10084608093B1008091B00081606F
:102560008093B00080917A00846080937A0080919B
:102570007A00826080937A0080917A0081608093F3
:102580007A0080917A00806880937A001092C1006E
:1025900040E050E0BA0183EF92E00E94690F61E0F1
:1025A00083EF92E00E9438090E94CA1010925E01E7
:1025B00010925D015CEE452E55245394612C712CD4
:1025C0006DE9862E912C70E0272E70E0372EE4E125
:1025D000AE2EB12C2FB7F8948091570190915801ED
:1025E000A0915901B0915A012FBF9093F2028093AC
:1025F000F10220E420937C0080917A008064809333
:102600007A0080917A0086FDFCCF8091780000915D
:102610007900102F082F013A11050CF493C0809116
:10262000EF029091F002892BD1F48091ED0290910C
:10263000EE0201969093EE028093ED0221E030E0ED
:102640003093F0022093EF02880F991FFC01E35AA8
:10265000FE4F8091F1029091F20291838083A091CC
:10266000FD02B091FE029801012E000C440B550BA7
:1026700024513109410951090E9497146B017C01D1
:10268000A30192010E946D14CA01B9010E9475153F
:1026900035E1C3163EEFD3063FEFE306F3060CF435
:1026A0006EC020E030E040E05FE30E94D1140E9461
:1026B0003D15EB01013A110594F060910001709114
:1026C0000101675E7F4FE12C98EFF92E08E710E0DB
:1026D00022E030E0AE0183EF92E00E944406A401C4
:1026E0004C1B5D0B609100017091010180EEE82EA2
:1026F00087E0F82E02E010E022E030E083EF92E085
:102700000E94440680910001909101012091FB02FA
:102710003091FC022150310982179307BCF1B0922D
:102720000101A09200010E94CA1063E070E080E005
:1027300090E00E940E042114310409F44BCF0E9452
:10274000000048CF1092F0021092EF028091ED024B
:102750009091EE02FC01EE0FFF1FE35AFE4F880F2F
:10276000991FDC01A55ABE4F808191812D913C912A
:10277000821B930B90935C0180935B0170CF20E0F0
:1027800030E040E05FE30E94D01491CF0196909337
:10279000010180930001C9CFA3EFB2E013961C9210
:1027A0001E92129720EF30E015963C932E931497CB
:1027B00080E491E017969C938E93169719963C931C
:1027C0002E9318971B969C938E931A9756961C924D
:1027D00056971D961C921E921C971F961C921E9235
:1027E0001E9781E055968C93559754968C935497E9
:1027F0002FEF3FEF53963C932E93529751963C9375
:102800002E93509757968C93579758961C9258979B
:102810005A961C921E925997D5961C92D5978FEF77
:10282000D6968C93D6978AE0D7968C93D79789E0E3
:10283000D8968C93D897DA961C921E92D997DC96EC
:102840001C921E92DB97DD961C92DD97DE961C9201
:10285000DE971092320310923303109234031092D9
:10286000350380E591E090969C938E935F97E4EF1B
:10287000F5E0E491F0E0EE0FFF1FEF51FA4F859184
:1028800094915E969C938E935D97E8E0F6E0849138
:10289000D3968C93D397E5EFF5E0E491F0E0EE0F5B
:1028A000FF1FEF51FA4F259134915C963C932E9384
:1028B0005B97E9E0F6E0E491D196EC93D197E0954F
:1028C000D296EC93D297E82FE095D496EC93D497D8
:1028D00086E091E08D939C930895052E97FB1EF45E
:1028E00000940E94841457FD07D00E949F1407FC97
:1028F00003D04EF40C948414509540953095219556
:102900003F4F4F4F5F4F089590958095709561951B
:102910007F4F8F4F9F4F08950E94C114A59F900D28
:10292000B49F900DA49F800D911D11240895B7FFB1
:102930000C948C140E948C14821B930B0895A1E2BA
:102940001A2EAA1BBB1BFD010DC0AA1FBB1FEE1F29
:10295000FF1FA217B307E407F50720F0A21BB30B74
:10296000E40BF50B661F771F881F991F1A9469F7F0
:1029700060957095809590959B01AC01BD01CF014C
:102980000895A29FB001B39FC001A39F700D811D48
:102990001124911DB29F700D811D1124911D089568
:1029A0005058BB27AA270E94E8140C94C7150E9410
:1029B000B91538F00E94C01520F039F49F3F19F482
:1029C00026F40C94B6150EF4E095E7FB0C94B015C4
:1029D000E92F0E94D81558F3BA17620773078407C6
:1029E000950720F079F4A6F50C94FA150EF4E0950D
:1029F0000B2EBA2FA02D0B01B90190010C01CA01B9
:102A0000A0011124FF27591B99F0593F50F4503E63
:102A100068F11A16F040A22F232F342F4427585F55
:102A2000F3CF469537952795A795F0405395C9F76D
:102A30007EF41F16BA0B620B730B840BBAF0915025
:102A4000A1F0FF0FBB1F661F771F881FC2F70EC0C4
:102A5000BA0F621F731F841F48F487957795679597
:102A6000B795F7959E3F08F0B0CF9395880F08F083
:102A70009927EE0F9795879508950E9444156894BD
:102A8000B1110C94FB1508950E94E01588F09F5732
:102A900098F0B92F9927B751B0F0E1F0660F771F82
:102AA000881F991F1AF0BA95C9F714C0B13091F078
:102AB0000E94FA15B1E008950C94FA15672F782F4B
:102AC0008827B85F39F0B93FCCF38695779567953D
:102AD000B395D9F73EF490958095709561957F4FA9
:102AE0008F4F9F4F0895E89409C097FB3EF490954F
:102AF0008095709561957F4F8F4F9F4F9923A9F0D7
:102B0000F92F96E9BB279395F69587957795679565
:102B1000B795F111F8CFFAF4BB0F11F460FF1BC0A9
:102B20006F5F7F4F8F4F9F4F16C0882311F096E93C
:102B300011C0772321F09EE8872F762F05C06623EA
:102B400071F096E8862F70E060E02AF09A95660FA3
:102B5000771F881FDAF7880F9695879597F908955C
:102B600097F99F6780E870E060E008959FEF80EC40
:102B7000089500240A9416161706180609060895E3
:102B800000240A9412161306140605060895092E49
:102B90000394000C11F4882352F0BB0F40F4BF2BB8
:102BA00011F460FF04C06F5F7F4F8F4F9F4F0895F8
:102BB00057FD9058440F551F59F05F3F71F04795EE
:102BC000880F97FB991F61F09F3F79F087950895D3
:102BD000121613061406551FF2CF4695F1DF08C0F2
:102BE000161617061806991FF1CF8695710561050F
:102BF00008940895E894BB2766277727CB0197F9B7
:102C000008950E94C114332312F48A1B9B0B0C9469
:102C10000B160E94C114B7FF0895821B930B0895F1
:102C2000EE0FFF1F0590F491E02D099481E090E0F4
:0A2C3000F8940C941B16F894FFCFE3
:102C3A00140000000000AE0B3F03090F080F360511
:102C4A00D808A6083D08BC07FD075B0E68093809C5
:102C5A002E09DA064B07C906570DDF0C800C690FDF
:102C6A00D50430002D302E32002D302E34002D3078
:0E2C7A002E36002D302E380042504D3A00000C
:00000001FF
