:020000040800F2
:10000000B80601208D02000895020008970200083A
:10001000990200089B0200089D02000800000000F1
:100020000000000000000000000000009F02000827
:10003000A102000800000000A3020008A5020008B9
:10004000A7020008A7020008A7020008A7020008EC
:10005000A7020008A7020008A7020008A7020008DC
:10006000A7020008A7020008A7020008A7020008CC
:10007000A7020008A7020008A7020008A7020008BC
:10008000A7020008A7020008A7020008A7020008AC
:10009000A7020008A7020008A7020008A70200089C
:1000A000A7020008A7020008A7020008A70200088C
:1000B000A7020008A7020008A7020008A70200087C
:1000C000A7020008A7020008A7020008A70200086C
:1000D000A7020008A7020008A7020008A70200085C
:1000E000A7020008A7020008A7020008A70200084C
:1000F000A7020008A7020008A7020008A70200083C
:10010000A7020008A7020008A7020008A70200082B
:10011000A7020008A7020008A7020008A70200081B
:10012000A7020008A7020008A7020008A70200080B
:10013000A7020008A7020008A7020008A7020008FB
:10014000A7020008A7020008A7020008A7020008EB
:10015000A7020008A7020008A7020008A7020008DB
:10016000A7020008A7020008A7020008A7020008CB
:10017000A7020008A7020008A7020008000000006C
:10018000A7020008A7020008A7020008A7020008AB
:10019000A7020008A7020008A7020008A70200089B
:1001A000A7020008A7020008A7020008A70200088B
:1001B000A7020008A7020008A7020008A70200087B
:1001C000A7020008A702000800F002F800F04FF8AC
:1001D0000AA090E8000C82448344AAF10107DA45A2
:1001E00001D100F044F8AFF2090EBAE80F0013F0A5
:1001F000010F18BFFB1A43F0010318473024000019
:1002000050240000103A24BF78C878C1FAD85207A9
:1002100024BF30C830C144BF04680C607047000080
:100220000023002400250026103A28BF78C1FBD8FF
:10023000520728BF30C148BF0B607047662902F0E3
:100240000181002070471FB502F0F7F89DE8030018
:1002500000F03EFB00F01CFB04000020002102F037
:100260005FF8E06000F084F81FBD10B510BD00F02D
:1002700090FC1146FFF7E7FF01F0DEFF00F0C8FC3D
:1002800003B4FFF7F2FF03BC00F03AFD09488047D2
:1002900009480047FEE7FEE7FEE7FEE7FEE7FEE768
:1002A000FEE7FEE7FEE7FEE704480549054A064B80
:1002B00070470000C1150008C9010008B8000120FE
:1002C000B8060120B8020120B80201200FB41CB505
:1002D0000C0007AA009001D02044401E074B7B442D
:1002E00069460190069800F0A8FA002C03D06946F0
:1002F000002000F0B5FA1CBC5DF814FB8905000075
:100300002DE9F0410E460446002020622046E168B7
:10031000884730B3252805D0D4E901219047206AC9
:10032000401CF2E7E168204600278847050018D006
:10033000A5F14100192802D820354FF40067324654
:10034000294620462760FFF779FF40B1012804D0F5
:10035000F61D26F007060836D8E7361DD6E72846EC
:10036000DAE7206ABDE8F081704770477047000007
:1003700070B5064C7C44064D7D4403E02068204463
:100380008047241DAC42F9D170BD0000F02200006E
:10039000F0220000004870478C00012070B506462E
:1003A00000F072FA056806F10B0020F00704B44271
:1003B0009CBF002070BD2B466A68BAB11068A0428D
:1003C00010D304F1080188423CBF5068586007D33D
:1003D0005168101941601168091B01605860146070
:1003E000101D70BD13465268002AE7D121462846E9
:1003F00000F05AFA0028DED170BD10B500F04CFABA
:10040000006810BD10B5044600F046FA046010BD47
:1004100070472DE9FF4F0C461E464FF0FF378BB05B
:10042000D2E90001DDF860800A908A46C1F30A55DE
:1004300005B93D46002108464FF00000BAF1000F13
:1004400000F4400005DA00EB80004FF4400101EABF
:1004500050004FEA9059B9F1010F00DDB9460A98F2
:1004600050EA4A000ED044F61050A5F2FF3545433D
:100470002F14B8F1000F1ED07542291E1EDDC9F1E0
:1004800000021CE0B8F1010F4FF0000001D0302154
:1004900003E0F24305E02154401CB042FBDB304650
:1004A0000022002121540B99C1F80880C1E90020E5
:1004B0000FB0BDE8F08FBD1B6D1CDEE74A4600DAC9
:1004C000694206A800F0E6FA06AB93E8070003AB22
:1004D00083E8070050460A9900F0A9FC8DE8070060
:1004E000A0F500501F3800900398002D0ADD42F25D
:1004F0001F014A460844002303A90390684600F000
:1005000012FF09E0A0F500504A461F38002303A956
:100510000390684600F01CFF8DE807000004000C03
:1005200003D04FF0FF30410800E01046B8F1000F53
:1005300003D00022009215461EE0751E05D400F07F
:1005400024FA303262556D1EF9D5B34601220843B4
:1005500002D000227F1C04E02078302801D1002244
:100560007F1E002A099784D01DE0112D07DA00F0C4
:100570000CFA303262556D1C50EA0102F5D1084385
:1005800002D00098C8B10EE00021681E05E0235C8F
:10059000625C63542254401E491C8142F7DBAB4627
:1005A000A81B401E0990002004F80B000B98099A24
:1005B000C0F80880C0E9002B7AE711264FF0000848
:1005C00057E72DE9F04F88460446D21D22F0070177
:1005D00091B0D1E90001CDE90A0101F0ADF902467F
:1005E0000B98C00F01D02D2007E02068810701D5AE
:1005F0002B2002E0202101EAC000032A099001D04B
:10060000072A05DB03464146204600F003FA0BE1CA
:100610002078800601D5E06900E00620B8F1650F7A
:10062000814606D0B8F1660F18D0B8F1670F70D1C7
:1006300031E00020B9F1110F009001DB112301E03E
:1006400009F101030AAA01A90CA8FFF7E2FEDDE9FE
:100650000C70002609F10105834647E001204B4656
:1006600000904FF000470AAA01A90CA8FFF7D1FE9D
:10067000DDE90DB00C995D46002610B909F10100C5
:100680000D18B9EB050003D4C0F1FF3609F10105DF
:10069000A5EB09002BE0B9F1010F01DA4FF00109D8
:1006A0000020B9F1110F0090484601DD112300E050
:1006B00003460AAA01A90CA8FFF7ABFEDDE90C70FE
:1006C0004D4600268346207800070AD4AB4500DA61
:1006D0005D4601A8012D04DD411911F8011C3029E6
:1006E00007D04F4502DA17F1040F04DA01208246E1
:1006F0000FE06D1EEEE7002F02DCED1B3E4403E031
:10070000781CA84200DD7D1CB81B00F1010A4FF0E7
:1007100000472078000703D4AA4501DB4FF0FF3AD9
:100720000021B7F1004F0DF143088DF8431024D09C
:1007300002202B23002F01DA7F422D230A21021EE3
:10074000A0F1010000DC5FB197FBF1FC97FBF1F237
:1007500001FB1C7C17460CF1300C08F801CDEEE7CC
:10076000A8F1010003702188090501D5452100E0A9
:100770006521A0F1010800F8011C09980FA9A1EB5F
:100780000807FF1D00B10120411901EBEA70A169C2
:100790003844081A401EA0612078C00602D42046C2
:1007A000AFF30080099828B1D4E901219047206A6D
:1007B000401C20622078C00622D52046AFF300807E
:1007C0001EE0002E04DBB34502DD01A8805D00E0E1
:1007D0003020D4E901219047206A401C2062761C19
:1007E000AAF101005FEA000A0AD100F051F8C068DE
:1007F0000168405CD4E901219047206A401C2062D6
:10080000281EA5F10105DCDC07E0D4E9012118F878
:10081000010B9047206A401C2062381EA7F1010797
:10082000F3DC2046AFF30080032011B041E6000066
:1008300001694A1C02610878704700B58FB0CDE9A4
:1008400001310021059105497944CDE90310114694
:100850006846FFF755FD0FB000BD0000E5FFFFFF44
:100860000A6802F8010B0A607047D1E900239A4236
:1008700002D2531C0B601070704700F07DB900006D
:100880000048704758000120004870476000012070
:100890000048704778000120004870475800012048
:1008A000704770477047704738B504460A460020C5
:1008B0006946AFF30080002808BF38BD02460099A2
:1008C000204600F08BF9012038BD012000F0B4B9BA
:1008D000F8B5AFF30080054600200C46102000BF9D
:1008E0000646A819A0420DD9324669460020AFF34A
:1008F0000080070008BF00F09FF90098A04218BFD1
:100900000546C419FFF7C0FF05600746F01D20F03B
:1009100007004619284600F00AF8B44208BFF8BD9F
:10092000A21B31463868BDE8F84000F057B90021F5
:100930000160C0E9011070471020704770B504468F
:10094000051FFFF7A1FF0068002C14BF446870BDAD
:10095000002C18BFAC423CBF20466468F8D3016845
:100960000A18AA4218BF456003D12A6805461144F7
:10097000016028684119A1421CBF6C6070BD6168AC
:10098000696021680844286070BD30B5B0F10A0282
:100990004FEA900E71F100034EEA817EB0EB0E003B
:1009A00061EB91014FEA101E4EEA017E10EB0E0042
:1009B00041EB11114FEA102E4EEA016E10EB0E00C2
:1009C00041EB11214FEA104E4EEA014E10EB0E00A2
:1009D00041EB1141401841F100014FEAD00040EADB
:1009E00041704FEAD10110EB80054FEA810444EADF
:1009F000907444EB01046D1944EB0404521BA341B1
:100A00004FF0000348BF0A3200D530BD401C41F111
:100A1000000130BD2DE9F0411F4604460326016860
:100A2000072A01F4006004DB08B116A505E016A54D
:100A300003E008B115A500E015A521F01000206025
:100A4000A069C01EA0610FB1401EA0612046AFF397
:100A500000804FB1D4E9012138469047206A401CFC
:100A60002062C01C206206E0206AFAE7D4E9012176
:100A700015F8010B9047761EF8D22046AFF30080A0
:100A8000BDE8F0814E414E006E616E00494E460059
:100A9000696E66002DE9F047814616468AB03548F2
:100AA00078440DC88DE80D0032487844801C03ACB2
:100AB0000DC884E80D0041F69B300844372190FBB7
:100AC000F1F290FBF1F5A5F1800501FB12041B3C4E
:100AD00002D56442012000E00020DFF898A08046A3
:100AE0000027FA44AAF1BE0A0EE0E0070AD0324617
:100AF000684607EB470101230AEB810100F028FC5F
:100B00008DE8070064107F1C002CEED1194F7F4444
:100B1000AE3F19E0E80715D007EB04100DF1180AF5
:100B200090E80E008AE80E00C068F04201D19819E2
:100B300008903246012306A903A800F009FC03AB84
:100B400083E807006D10641C002DE3D14FF0010312
:100B500032466946B8F1000F03A802D000F0E3FB6B
:100B600001E000F0F5FBC9E90001C9F808200AB06E
:100B7000BDE8F087701B000010B500F09CF801691B
:100B800019B100220261884701E08068804700F0C7
:100B900048F87546FFF774FEAE46050069465346B1
:100BA00020F00700854618B020B5FFF77DFBBDE8B3
:100BB00020404FF000064FF000074FF000084FF0C4
:100BC000000B21F00701AC46ACE8C009ACE8C00955
:100BD000ACE8C009ACE8C0098D46704703464068E0
:100BE0008C46002818BF88423CBF03464068F8D3B3
:100BF00018681844884207D00CF1030020F0070061
:100C0000001D411A521A0146081D0A60FFF796BEE0
:100C100010B50446AFF300802046BDE81040FFF752
:100C20002FBB10B5002000F07CF8FFF71EFBBDE8DD
:100C30001040012000F064B810B500F079F8BDE86C
:100C4000104000F069B800004FF0013C50F8042B50
:100C500051F8043B9A4215D1A2EB0C03934313EADB
:100C6000CC130BD150F8042B51F8043B9A4209D114
:100C7000A2EB0C03934313EACC13E7D04FF0000030
:100C8000704700BFD01A01BAB1FA81F101F0180122
:100C900022FA01F0CB40C1F12001DBB2C0B2C01A90
:100CA0002CFA01F3D11A914311EAC311E6D170472E
:100CB00010B5FFF7B6FF70B500F02AF804680546D6
:100CC000A4B92020FFF76AFB040011D009490020D5
:100CD0002C60C4E900010849A160207320616061B3
:100CE0000649A06109B100F04BF8E061204670BDF3
:100CF000FFF797FF00000000B10C000800000000A3
:100D000001491820ABBEFEE7260002007047000034
:100D10000048704794000120002801D0FFF7F0BF81
:100D2000704710B500F064F8BDE81040FFF7F4BF5D
:100D300010B5012805D0002103A000F03FF80120E4
:100D400010BD09A1F8E7000053494752544D454DE5
:100D50003A204F7574206F662068656170206D655C
:100D60006D6F7279000000003A2048656170206D57
:100D7000656D6F727920636F72727570746564004F
:100D800010B58820FFF70AFB002801D00021017070
:100D900010BD802902D808B1017809B10020704740
:100DA000012100F8081B704718B100F108029142B8
:100DB00001D00020704700210170704770B50546D2
:100DC0000C460A2000E06D1C00F02AF835B12878A6
:100DD0000028F8D102E0641C00F022F814B1207859
:100DE0000028F8D1BDE870400A2000F019B80000D2
:100DF00010B5002102A0FFF7E1FF012010BD0000A7
:100E0000534947414252543A2041626E6F726D61BC
:100E10006C207465726D696E6174696F6E0000009C
:100E200008B569468DF800000320ABBE08BD5FEA37
:100E3000400C08BF91F0000F4FEA8C234FEAC1220B
:100E400043EA51514FEA1C5018BF00F5F0404FEAF9
:100E5000300018BF41F000415FEA6C5C00F029806F
:100E6000BCF1FF3F08BF40F080407047130C06BF45
:100E700012044FF0100C4FF0000C130E04BF1202BE
:100E80000CF1080C130F04BF12010CF1040C930FAA
:100E900004BF92000CF1020CD30F04BF52000CF1FE
:100EA000010C11464FF00002A0F11F00A0EB0C0056
:100EB000704711F0004F08BF704731F000413FF418
:100EC000D5AF0B0C06BF09044FF0100C4FF0000C0F
:100ED0000B0E04BF09020CF1080C0B0F04BF090133
:100EE0000CF1040C8B0F04BF89000CF1020CCB0F2A
:100EF00004BF49000CF1010CCCF12003A0EB0C0065
:100F000022FA03F302FA0CF241EA030100F10100B4
:100F1000704720F07F4C80EA030023F07F47ACEB62
:100F2000070303F57C5300F0004003F1FF032DE9B4
:100F300080494FEA154B09B44FEA144325EA0B4E9A
:100F400024EA03480FF2042606EB132749083E78EB
:100F50005FEA320203FB0667C7F5000707FB06F6E8
:100F60004FEA54374FEAD64606F1020607FB066CF5
:100F7000CCF1005C4FEA1C472CEA074C07FB06F457
:100F80000CFB06F504EB15464FEA961634BF00201D
:100F90004FF000404FEAD13706FB07FC4FEA1C4CEC
:100FA0000CFB0BF7D21B03FB0CF761EB07010CFBEF
:100FB0000EF7B0EB074072EB17420CFB08F734BF9B
:100FC000A2EB0742B2EB074261EB17414FEA0C4438
:100FD0004FEA910706FB07FC4FEA1C4C0CFB0BF792
:100FE000B0EBC74072EB573203FB0CF734BFA2EBF8
:100FF000C742B2EBC74261EB57310CFB0EF7B0EBC7
:10100000C70072EB57720CFB08F734BFA2EBC702A4
:10101000B2EBC70261EB5771039F4FEA816141EA6E
:10102000921104EBCC044FEAD1374FEA826206FBFF
:1010300007FC42EA90124FEA80604FEA1C4C0CFB1E
:101040000BF7D21B03FB0CF761EB07010CFB0EF750
:10105000B0EB074072EB17420CFB08F734BFA2EB72
:101060000742B2EB074261EB17414FEA8C554FEA5A
:10107000910704EB9C2406FB07FC4FEA1C4C0CFB7D
:101080000BF7B0EBC74072EB573203FB0CF734BFE2
:10109000A2EBC742B2EBC74261EB57310CFB0EF734
:1010A000B0EBC70072EB57720CFB08F734BFA2EB32
:1010B000C702B2EBC70261EB577115EB4C254FEA43
:1010C000816141EA92114FEA82624FEAD13742EAE6
:1010D000901206FB07FC44F100044FEA80604FEADF
:1010E0001C4C0CFB0BF7D21B03FB0CF761EB07014D
:1010F0000CFB0EF7B0EB074072EB17420CFB08F746
:1011000034BFA2EB0742B2EB074261EB174115EB8C
:101110001C154FEA813141EA92414FEA823242EA9C
:1011200090424FEA80304FEA0C7644F1000448EADE
:1011300003434EEA0B484FF0000EB2EB080C71EB84
:10114000030724BF624639464EEB0E0E4FF0000BEC
:101150000018524149414BEB0B0BB2EB080C71EB01
:1011600003077BF1000B24BF624639464EEB0E0E9F
:101170004FF0000B0018524149414BEB0B0BB2EB07
:10118000080C71EB03077BF1000B24BF6246394664
:101190004EEB0E0E51EA020718BF46F0010616EBA1
:1011A0000E7655F1000254F1000103D5BDE8890126
:1011B000BDE80088BDE88901BDE80048B619524184
:1011C00041EB0101A3F10103704780807F7E7D7CAC
:1011D0007B7A7978777676757473727171706F6EC9
:1011E0006E6D6C6C6B6A6A69686867666665646474
:1011F000636362616160605F5F5E5E5D5D5C5C5BFE
:101200005B5A5A595958585757565655555554546C
:10121000535352525251515050504F4F4F4E4E4DCA
:101220004D4D4C4C4C4B4B4B4A4A4A494949484816
:101230004847474747464646454545444444444356
:1012400043434342424242414141002B9C4630D4F9
:1012500077002BD01CB54FEA370703B44FF01000CE
:101260004FF01001BAF1000F06D0BCF1000FDCBF47
:1012700040F0080040F008014FF000000FBCBDE84E
:1012800010400BF1010BBBF1010F08BF5FEA17071C
:1012900022BF12F1010211F101014FF0004143F1AF
:1012A000000300F0004043EA00007047F9D35708FC
:1012B000D0E746EA064613F1400F4FEA16461FDD17
:1012C00013F1200FDFBF16430A46002120335B4293
:1012D000BED0C3F1200746EA064602FA07F74FEAF6
:1012E000164646EA0706C3F1200722FA03F201FA7E
:1012F00007F721FA03F14FF0000342EA0702A7E7DC
:1013000046EA020646EA06464FEA164646EA01065D
:10131000BCBF46EA0646360C4FF000034FF0000211
:101320004FF0000194E72DE9804C9A46934670B443
:1013300091E8380007C831EA400C48BF34EA430C52
:1013400003D5FFF7E6FDFFF780FFF0BCBDE8008C9A
:101350002DE9804C9A46934670B491E8380007C84E
:1013600010F0804F08BF13F0804F03D100F005F854
:10137000FFF76BFFF0BCBDE8008C20F07F4780EAF0
:10138000030023F07F4C07EB0C03A3F57C5300F024
:101390000040A3F1FE0392F0000F00F0B38095F03F
:1013A000000F00F077802DE901494FEA11404FEA24
:1013B000144621EA004800FB06FC24EA064708FB25
:1013C00006F607FB08F800FB07F718EB06484CEB9E
:1013D000164C4FEA124B18EB07484FEA15464CEBF8
:1013E000174022EA0B4E0BFB06FC25EA06470EFBD4
:1013F00006F607FB0EFE0BFB07F71EEB064E4CEB4B
:10140000164C4FF000061EEB074E4CEB174B18EB3B
:101410000B0840F1000018EB0E0B58EB000840F1F0
:1014200000008F1A4FF000013CBFC943661B14BF78
:10143000B5EB040C00213CBFC943F61B4FEA17442F
:101440004EEA8E0E27EA04454FEA1C4704FB07626A
:101450002CEA074C05FB07F70CFB05F604FB0CFC1C
:1014600016EB074642EB174216EB0C4642EB1C42CA
:101470001BEB060658EB0202414146EA9E0601D5E7
:10148000BDE80189B619524141EB0101A3F1010305
:10149000BDE801894FEA14454FEA114724EA0546A1
:1014A00021EA074C05FB07F406FB07F70CFB06F1E6
:1014B00005FB0CFC11EB074144EB17444FEA1247C4
:1014C00011EB0C4144EB1C4422EA074C05FB07F2EC
:1014D00006FB07F70CFB06F605FB0CFC16EB0746B4
:1014E00042EB174216EB0C4642EB1C456A1854F1CE
:1014F000000148BF7047B619524141EB0101A3F109
:101500000103704795F0000F37D04FEA11424FEAC0
:10151000144721EA024624EA074C02FB07F106FBC6
:1015200007F70CFB06F402FB0CFC14EB074441EB41
:1015300017414FEA154714EB0C4441EB1C4125EAD7
:10154000074C02FB07F506FB07F70CFB06F602FB50
:101550000CFC16EB074645EB174516EB0C4645EB26
:101560001C42121951F1000148BF7047B61952418F
:1015700041EB0101A3F1010370474FEA14454FEA23
:10158000114724EA054621EA074C05FB07F106FB53
:1015900007F70CFB06F24FF0000605FB0CFC12EB04
:1015A000074241EB174112EB0C4251EB1C4148BF83
:1015B0007047921841EB0101A3F10103704700004D
:1015C0001448006840F4700012490860124800682E
:1015D00040F001001049086000200F490831086000
:1015E0000D4800680D4908400B4908600C48091D6A
:1015F0000860081F006820F48020091F0860002090
:1016000005490C3108604FF00060024980390860DC
:101610007047000088ED00E000380240FFFFF6FE52
:101620001030002410B50446204600F0A3F8012134
:101630000B48006800F0DEF800210A48006800F05E
:10164000D9F801210848006800F0D4F841F2883048
:1016500000F0C4F800210448006800F0CBF810BD89
:1016600024000120280001202000012010B50120C5
:1016700000F010F8022000F00DF83C2000F00AF80D
:101680000C2000F007F8062000F004F8802000F09D
:1016900001F810BD10B50446204600F06BF800219B
:1016A0000B48006800F0A6F800210A48006800F026
:1016B000A1F801210848006800F09CF841F2883048
:1016C00000F08CF800210448006800F093F810BD89
:1016D00024000120280001202000012000B52DED6C
:1016E000048B85B0B0EE408A18EE100A00F034FE8C
:1016F00041EC190B8DED009B05A2062103A8FEF716
:10170000E5FD03A800F02AF805B0BDEC048B00BD90
:10171000256600007FB504460D46012C05D105F174
:101720007F01C8B2FFF7B6FF0FE0022C05D105F12B
:10173000BF01C8B2FFF7AEFF07E004A30FCB8DE8EF
:101740000F00684600F00AF800BF7FBD46696C6173
:10175000206F20506F73204572726F7210B504466F
:1017600003E014F8010BFFF75DFF20780028F8D1A3
:1017700010BD000030B52DED028B81B00546002074
:101780000090002422E0B0EE008A00EE104AF8EE4D
:10179000C08AF0EE680AB0EE480A00F0F9F8BDEE33
:1017A000C00A8DED000A009828400099884206D1B1
:1017B000094951F82400012100F01CF805E0064910
:1017C00051F82400002100F015F8641C082CDADB25
:1017D00001B0BDEC028B30BD3800012008B50021FE
:1017E0000091009102E00099491C0091009981420A
:1017F000F9DB08BD01290AD100BF8279012303FA70
:1018000002F203685B691A4303685A6108E000BF8B
:10181000827901239340026852699A4303685A61AE
:1018200070470000F0B505AC70CC01608280C380C9
:101830000472458186812F4FB94207D12E4F3F68F0
:1018400047F00107DFF8B0C0CCF800702B4FB94269
:1018500007D1294F3F6847F00207DFF89CC0CCF85A
:101860000070274FB94207D1234F3F6847F0040764
:10187000DFF884C0CCF80070224FB94207D11E4F68
:101880003F6847F00807DFF870C0CCF800701E4FC3
:10189000B94207D1184F3F6847F01007DFF858C02A
:1018A000CCF80070194FB94207D1134F3F6847F089
:1018B0002007DFF844C0CCF800700F684FEA430CF3
:1018C00002FA0CFC47EA0C070F6004FA03F74F60BA
:1018D0008F684FEA430C05FA0CFC47EA0C078F604F
:1018E000CF684FEA430C06FA0CFC47EA0C07CF60BE
:1018F000F0BD000000000240303802400004024009
:1019000000080240000C0240001002400014024097
:1019100010B5040007D1012405E0FEF73BFD006887
:1019200000B9044880472046FEF738FD0028F4D06F
:1019300010BD00007B08000803B401984100009826
:1019400050EAC12018BF04204A0D18BF40F0010022
:1019500040F2FF72B2EB515F08BF40F00200012875
:1019600008BF052002B070474100080218BF0420DC
:101970000A0E18BF40F001004FF07F4232EA010129
:1019800008BF40F00200012808BF05207047000092
:1019900010B510EE100A2DED068BB7EE001A10EE02
:1019A000901AB0EE418A0022A0F5000CDFEDFE9AFD
:1019B0004FF00073BCF1FE4F4FF07F4403EB410C3E
:1019C00080F0B481BCF1804FC0F02082F74901441F
:1019D0009FEDF73AB1F5005F40F2D48200F5802127
:1019E000CB0C03F00F0101EE901AC3F307137F3BFA
:1019F000A0EBC350B8EEE12A00EE100A1A44DFED66
:101A0000ED2AF0EE411A42EE221AF0EE613A70EE43
:101A1000232A30EE632A12EE900A00F500606FF37D
:101A20000B0001EE900A73EEE13A33EE804AC1EE0C
:101A3000223A22EE230A10EE100A00F500606FF33E
:101A40000B0000EE100A00EE612A00EE442A62EE5E
:101A5000232A70EE221A21EEA12ADFEDD73A02EEF8
:101A6000233A23EE023A20EE012A22EE811A03EEF7
:101A7000211A32EE010A10EE100A00F500606FF331
:101A80000B0000EE100A72EE401A31EE812A9FED33
:101A9000CB1A60EE011A9FEDCA1A20EE011A9FEDD3
:101AA000C90A02EE001A31EE810A10EE100A00F5A2
:101AB00000606FF30B0000EE100AC34871EEC01A0D
:101AC00031EE812A784400EBC10090ED003AD0ED70
:101AD000011A100101EE100AF8EEC12A32EE211AA5
:101AE00031EE001A31EE031A31EE221A11EE100A0D
:101AF00000F500606FF30B0009EE100A39EE621A70
:101B000031EE431A31EE400A30EE610A32EE40AA5D
:101B100010EE900A002100F500606FF30B0008EE54
:101B2000900A084670EEE8AA4FF0000029EE280A55
:101B300000F00C01F0EEC00A10EE900AB0F18B4FED
:101B40000DDD10EE900AB4EB400F08D310EE100A32
:101B50004FF08B4262F31E0008EE900A13E069EE2C
:101B60002A0A38EEAA1A4AEE010A30EE201A11EEBD
:101B7000100A00F500606FF30B0008EE900A30EEDB
:101B8000680A70EE209A0C204FF0000038EEA90A87
:101B9000B5EEC00AF1EE10FA34BFFEEE000AF6EE22
:101BA000000A30EE800ABDEEC00A10EE100A0111E4
:101BB00000EE101AF8EEC00A00EE100AB8EEC00AE5
:101BC00038EEC00A30EE290ADFED801A9FED801A48
:101BD00000EE211ADFED7F1A7F4900F00F0040EE82
:101BE000011A21EE800A794401EB800191ED001A7F
:101BF0007A49794401EB8001D1ED001A784901EE70
:101C0000801A794401EB8000764990ED000A31EEAC
:101C1000001AB0EEE00A10EE100A884215DA10EE53
:101C2000100AB4EB400F10D39FED6F0A30EE800A1C
:101C3000DFED6E0A20EE200A68EE010ABDEC068B8D
:101C4000BCEEC00A20EE200A10BD10EE100A684952
:101C5000884243DA10EE100AB4EB400F3ED3BDEEDB
:101C6000E00A68EE010A10EE100A00EBD072511083
:101C7000C90501F17E5100EE101AA0EB6200C0050B
:101C800060EE200A00F17E5000EE100A60EE808ABD
:101C900018EE900AB4EB400F0FD10220FEF7B2FB12
:101CA00000F0BEF910EE101A18EE100ABDEC068B0B
:101CB00061F31E0000EE100A10BD18EE900A4000FD
:101CC00011D018EE900AFFF74FFE042808BF00F06D
:101CD000AFF9B0EE680ABDEC068B10BDF5EEC00A98
:101CE000F1EE10FA0FD20220FEF78CFB00F0A0F903
:101CF00010EE101A18EE100ABDEC068B61F31E00F0
:101D000000EE100A10BD0220FEF77CFB00F088F9FF
:101D100010EE101AB0EE480A10EE100ABDEC068B59
:101D200061F31E0000EE100A10BD00BFBCF1804F31
:101D30006CD300BF00F1FF43B3F1FE4F24D200BFCC
:101D4000B0EEC00A10EE100AC1F3C7537F2B0DDBB3
:101D5000972BBFF63BAEC3F196034FF0010C0CFA84
:101D600003F3A3F1010C1CEA010F08D00120FEF7D8
:101D700049FBBDEC068BBDE8104000F049B90B42B1
:101D800018BFBFEE008A21E643001CBF4FF08073EE
:101D9000B3EB400F34D96FF01A02DFED161A20EEC4
:101DA000210A10EE100A27E000000000001080C099
:101DB000ABAAAA3E0000803D7EE24C3E00B0384215
:101DC000D49AB8BB3BAA384290090000FC5963374B
:101DD000C9FF753A1872313D2E09000062090000F2
:101DE000D20800000000FC420000FE420000004B50
:101DF000000040430000004D10F0004FA0D1E5E589
:101E0000A0F50003B3F1FE4F21D2DFE503EB410360
:101E1000B3F1007F11D3F5EEC00AF1EE10FA05D14F
:101E2000430018BFB4EB400F76D883E701F00041C0
:101E300041F0FC5100EE901A7CE7B3F1807F06D2AE
:101E400010EE903AA3F5000300EE903A72E720F00E
:101E500000426FF0FF4C604C02EB0C03A34210D326
:101E600021F000439C44A4450BD3B0F17E5F18BF22
:101E70005FEA410C50D0B2F1FF4F98BFB3F1FF4F72
:101E800005D9BDEC068BBDE8104000F0BDB8B0F13F
:101E9000FF4F0FD0C1F3C7527F2A09DB972A11DA0F
:101EA000C2F19602012303FA02F2531E0B4205D03F
:101EB000002208E011F0004F55D128E00A4218BF77
:101EC000012200D1022210F5000F13D028B3B0F187
:101ED000004F26D010F1814F4FD04FF0FE42B2EBB1
:101EE000400F94BF01200020012202EBE1718842E3
:101EF00039D10CE011F0004F02D0012A38D032E085
:101F0000012A02BF9FED350ABDEC068B10BD9FED87
:101F1000340ABDEC068B10BD2FE011F0004F0CD140
:101F200021E0B1F1FF4F1ED011F5000F05D011F0E7
:101F3000004F15D00AB1012A08D00220FEF762FA3C
:101F4000BDEC068BBDE8104000F054B80220FEF74F
:101F500059FA00F04FF8BDEC068BB1EE400A10BD07
:101F60000AB1012A04D0B0EE690ABDEC068B10BD9F
:101F7000BDEC068B9FED1B0A10BDBDEC068BB7EECA
:101F8000000A10BD30EE410AB5EE001A9FED172A87
:101F900000EE413AB6EE001A60EE001A00EE431A67
:101FA00061EEC11A9FED101A20EE011A20EE020A0E
:101FB0009FED0F2A01EE820A71EE001A11EE900ACF
:101FC00000F500606FF30B0009EE100A31EE491ABC
:101FD00031EE00AA9CE50000FFFF3F00000080FFFB
:101FE0000000807F0000008000B0B841D49A38BB68
:101FF0003BAAB841DFED030AB7EE001A81EE200AD2
:10200000704700000000000030EE200A704700001A
:10201000DFED020A80EEA00A704700000000000019
:102020009FED020A20EE000A7047000000000070D9
:102030009FED020A20EE000A704700000000001029
:102040003EB51020FFF764FC044601200022CDE9D4
:102050000020134602466B4902902046FFF7E2FB40
:102060000446694804601020FFF752FC0446012032
:102070000022CDE900200346024662490290204634
:10208000FFF7D0FB0446614804601020FFF740FCD6
:10209000044601200022CDE90020022302465949CE
:1020A00002902046FFF7BEFB04465948046010200A
:1020B000FFF72EFC044601200022CDE900200B236F
:1020C0000246504902902046FFF7ACFB04465148B7
:1020D00004601020FFF71CFC044601200022CDE91B
:1020E00000200C230246474902902046FFF79AFB46
:1020F0000446494804601020FFF70AFC044601200A
:102100000022CDE90020052302463E4902902046E8
:10211000FFF788FB0446414804601020FFF7F8FBF6
:10212000044601200022CDE900200623024635495D
:1021300002902046FFF776FB0446394804601020E1
:10214000FFF7E6FB044601200022CDE9002007232B
:1021500002462C4902902046FFF764FB04463148B2
:1021600004601020FFF7D4FB044601200022CDE9D3
:10217000002009230246234902902046FFF752FB24
:102180000446294804601020FFF7C2FB04460120E2
:102190000022CDE90020082302461A490290204679
:1021A000FFF740FB0446214804601020FFF7B0FB16
:1021B000044601200022CDE900200A2302461149ED
:1021C00002902046FFF72EFB0446194804600E4893
:1021D0000068184908600D48006848600C480068AD
:1021E00088600C480068C8600B48006808610B48AC
:1021F000006848610A48006888610A480068C86148
:102200003EBD000000040240000001200400012047
:10221000080001200C000120100001201400012002
:10222000180001201C0001202000012024000120B2
:1022300028000120380001201FB52E48006840F01A
:102240000E002C4908602B481430006840F4807060
:102250002849143108602848006840F0C000264929
:10226000086026484068254948600846806840F074
:10227000010088600846C06860F07840C860084681
:1022800000691F4908431D4908610D204863FFF795
:10229000EDF91CA0FFF762FA1D4B0FCB8DE80F0084
:1022A00000BF26E01548806840F0804013498860F0
:1022B0000846C06C00EE100AB8EE400A154880EDE2
:1022C000000A0B210120FFF725FA124890ED000AC1
:1022D000DFED110A20EE200ADFED100A80EE201A51
:1022E00080ED001A90ED000AFFF7F8F98020FFF763
:1022F000D1F9D7E730380240000802400020014001
:102300007777773720566F6C74616A653A200000E2
:1023100048240008340001200090FB458096184BAB
:1023200010B500290AD00878002807D0054878445D
:10233000FEF78AFC002801D0002010BD0248784436
:1023400010BD00001E030000160300000808A0F5E1
:1023500000114FEA3101704743004FEAD30C4FEAB6
:102360003C0C43401FBF40070CF1605113F0FE4F7F
:1023700070471CF0006F03D100200CF00041704743
:102380000CF0004343EA507010B540EACC0000F076
:102390000EF800BF000000924FEA0001FFF7D6BF21
:1023A0004FF000414FF00000A1F5002170470EF101
:1023B000020E2EF0030E5EF8044B244204D44FEAC2
:1023C0004102B2F17F4F11D84FEA4003B3F17F4F82
:1023D0000CD80ED14FEAD07CB2F17F4F0CEB4C0CF5
:1023E0000CF1020C08BF4CEBD17C04E04FF0080C60
:1023F00001E04FEAD17C0CEB4C0324FA03F404F027
:102400000704B4F1040C06D20EEB840CBDE81040B6
:102410004CF0010C6047DFE80CF0070802024FF0B7
:102420000040A0F5800010BD0846420018BFD2F160
:10243000807288BF00F0004010BD4FF04070E1EEA8
:10244000100A7047FEF7BDB8000000000000000051
:10245000000000000100000000000000000000007B
:102460000000B33FB2BE7D3A00002E40DFCF5138AE
:1024700000007E40BF51FABA00E0A44019DAC3BAA6
:1024800000E0C840C2ED8AB90040EB40CD1F2CBA35
:10249000001006412AFFFABA00C01541DFCFD1373C
:1024A00000D024419A97703A0050334189478E36C4
:1024B00000404141E75B9D3800B04E41C00A98B9E9
:1024C00000A05B41558F943A00306841DA92C0BA5F
:1024D0000040744162B3C63A0000803F00A0853FCF
:1024E00000908B3F00C0913F0030983F00F09E3F2E
:1024F00000F0A53F0050AD3F0000B53F0000BD3FDC
:102500000060C53F0020CE3F0040D73F00C0E03F05
:1025100000C0EA3F0020F53F000000007D36AC39E6
:102520007D3C3839EBDCF438320A7E39124C2639DE
:102530009B6AED39A4EE83397F661E39F6398A39F4
:102540002B426539A48211395B991F39C3EECD390D
:10255000DDE7C637A5A22F390000803FC3AA853F1B
:10256000C2958B3FD3C3913FF037983F32F59E3FE2
:10257000D7FEA53F3F58AD3FF304B53FA408BD3F8C
:102580002A67C53F8C24CE3FFD44D73FDFCCE03FD8
:10259000C7C0EA3F7D25F53F02400000000000A0D3
:1025A0000000000005400000000000C8000000001E
:1025B0000C4000000000409C00000000194000009A
:1025C0000020BCBE0000000034400000BFC91B8ECC
:1025D00000000004B5400000504BCFD06607E2CFAA
:1025E000010000006C4100003E8251AADFEEA734DA
:1025F00001000000D9420000DCB5A0E23A301F978C
:10260000FFFFFFFFB4450000FD25A0C8E9A3C14FAF
:10261000FFFFFFFFFF3F0000000000800000000000
:10262000FF3F000000000080000000006C26000852
:10263000000001203800000004020008A426000861
:102640003800012080060000200200081C00000065
:1026500043000000F8FFFFFF0C0000000E00000028
:102660000F0000002E000000D9F9FFFF000000005D
:10267000000000000000000000000000000000005A
:10268000000000000000000000000000000000004A
:10269000000000000000000040414243444546471E
:0426A0000000000036
:040000050800028D60
:00000001FF
