:020000040800F2
:10000000600601204D020008550200085702000852
:10001000590200085B0200085D02000800000000B1
:100020000000000000000000000000005F02000867
:100030006102000800000000630200086502000879
:1000400067020008670200086702000867020008EC
:1000500067020008670200086702000867020008DC
:1000600067020008670200086702000867020008CC
:1000700067020008670200086702000867020008BC
:1000800067020008670200086702000867020008AC
:10009000670200086702000867020008670200089C
:1000A000670200086702000867020008670200088C
:1000B000670200086702000867020008670200087C
:1000C000670200086702000867020008670200086C
:1000D000670200086702000867020008670200085C
:1000E00009030008670200086702000867020008A9
:1000F000670200086702000867020008670200083C
:10010000670200086702000867020008670200082B
:10011000670200086702000867020008670200081B
:10012000670200086702000867020008670200080B
:1001300067020008670200086702000867020008FB
:1001400067020008670200086702000867020008EB
:1001500067020008670200086702000867020008DB
:1001600067020008670200086702000867020008CB
:10017000670200086702000867020008000000002C
:1001800067020008670200086702000867020008AB
:10019000670200086702000867020008670200089B
:1001A000670200086702000867020008670200088B
:1001B000670200086702000867020008670200087B
:1001C000670200086702000800F002F800F02EF84D
:1001D0000AA090E8000C82448344AAF10107DA45A2
:1001E00001D100F023F8AFF2090EBAE80F0013F0C6
:1001F000010F18BFFB1A43F001031847A0020000CB
:10020000B00200000023002400250026103A28BF79
:1002100078C1FBD8520728BF30C148BF0B60704778
:100220001FB500F035F91FBD10B510BD00F036F850
:100230001146FFF7F5FF00F0C7F800F054F803B4DB
:10024000FFF7F2FF03BC00F057F8000009488047B1
:1002500009480047FEE7FEE7FEE7FEE7FEE7FEE7A8
:10026000FEE7FEE7FEE7FEE704480549054A064BC0
:100270007047000065030008C90100086000012004
:100280006006012060020120600201207047704773
:100290007047000000487047000001207546FFF7D6
:1002A000F9FFAE4605006946534620F00700854633
:1002B00018B020B5FFF7D8FFBDE820404FF000068A
:1002C0004FF000074FF000084FF0000B21F007013E
:1002D000AC46ACE8C009ACE8C009ACE8C009ACE881
:1002E000C0098D46704710B50446AFF30080204624
:1002F000BDE81040FFF7A3BF01491820ABBEFEE7E1
:1003000026000200704700004FF4005010490860BA
:10031000012010490860002000E0401C0E4988427E
:10032000FBDB80200B490860002000E0401C0B49EB
:100330008842FBDB4FF4804006490860002000E063
:10034000401C07498842FBDB0020024908607047D7
:10035000143C014014040240002D310180969800A5
:1003600040787D011448006840F47000124908602C
:100370001248006840F001001049086000200F4951
:10038000083108600D4800680D4908400B490860B5
:100390000C48091D0860081F006820F48020091F10
:1003A0000860002005490C3108604FF000600249E8
:1003B000803908607047000088ED00E00038024096
:1003C000FFFFF6FE1030002407202B4908604FF491
:1003D00080402949143108602848006840F03F00F7
:1003E000264908600846806840F055308860002043
:1003F00048600846C06840F05530C8602048006832
:10040000204908431E4908601D480830006840F034
:1004100055301B49083108600020091F0860184842
:100420000C30006840F0553015490C310860164812
:10043000406940F02001144841611448006840F4CC
:1004400000501249086011480830006840F400501C
:100450000E49083108602820002809DB00F01F023F
:10046000012191404209920002F1E022C2F80011FC
:1004700000BF00BFFEE7000030380240000002402D
:10048000000402400140001000380140003C0140DF
:100490004FF04070E1EE100A70470000AC04000815
:0C04A000000001206006000004020008BB
:040000050800024DA0
:00000001FF
