:1000000008308A00002800000A108A100A118207AE
:1000100028340C34013406340C1E2010D4326D38D0
:100020006539613A75396110201020052010A01241
:100030003417323320003F30840083130008031943
:100040002F280130F800F701F70B2428F80B23289C
:100050004A30F700F70B2A282D28800B21280800AA
:10006000460EF039F7000F300805770488000000CD
:1000700008143A28081008000808F700080E0F397D
:10008000F800080088100F3083160805F038880043
:10009000831208150000081400003C207808C600F0
:1000A00008100000081400003C207808C500081063
:1000B0000F308316080588008312460EF700F030D3
:1000C000F70577084504F8007808C500C51B4328E4
:1000D000431C881043188814000008110000081001
:1000E000440EC5000F30C5054508C6003020440841
:1000F0000F39C500C600302008000F3083160805F0
:100100008800081088100811831288100811081040
:100110000F30BF001B200130B1003108033C031C2D
:1001200099280330C60030200530BF001B20B10ADB
:100130008D280230C6003020B1013108033C031C79
:10014000AA2831080420B200C3013208C4004220AA
:10015000B10A9D288A150A121E288E30F70032082F
:10016000F8003108F900FA01F808031DC1287908E0
:10017000F800F9010830F702F808031DC128F7015B
:10018000C9280310F81BC828F90DF80DF703C1287A
:10019000F8138A150A1239284708CE004B08CE06F4
:1001A000CE1FD72803110310C71B03140A294708C1
:1001B000CE004A08CF004608CF020319E528CE1F1B
:1001C0000A290308013A83000A294B08CF0047088F
:1001D000CF020319F128CE1F0A290308013A830030
:1001E0000A294C08CF004808CF020319FD28CE1F6A
:1001F0000A290308013A83000A294D08CF0049085B
:10020000CF0203190929CE1F0A290308013A8300E6
:100210000A29031008004A080319D029D6004E08FD
:100220000319D029D602031C1A297F30D6070318D8
:10023000D02920298130D602031CD0290319D029C6
:100240005608F700F801F901FA01D5014B08D4006E
:10025000D4174C08D3004D08D2001930D6005108ED
:10026000D202031843290130D30203184329D402D0
:1002700003184329D50203184329D50AD40AD30AFF
:100280005108D20775295008D30203185E2901309E
:10029000D40203185E29D50203185E29D50AD40AB0
:1002A0005008D3075108D207031C7529D30A031D30
:1002B0007529D40A031D7529D50A75294F08803878
:1002C000D402031874290130D50203187429D50A01
:1002D0004F088038D4075008D307031C5229D40A8A
:1002E000031D5229D50A52297A14D60B782983295D
:1002F0000310D20DD30DD40DD50D0310FA0DF90D49
:10030000F80DD70D2F29571C8B290310F80CF90C69
:10031000FA0CD70C8E29F7030319D029D71BB7295C
:100320000310D20DD30DD40DD50D5108D2020318F0
:10033000A3290130D3020318A329D4020318A32947
:10034000D502031CC6295008D3020318AE29013078
:10035000D4020318AE29D502031CC6294F088038E1
:10036000D4020318B7290130D502031CC629FA0AA2
:10037000031DC629F90A031DC629F80A031DC6294B
:10038000F70A0319D029F80CF90CFA0C4B08D6001F
:100390004F08D606D61FCE29F817D429F813D4292A
:1003A000F701F801F901FA01080080308318CF063F
:1003B000D401D5014B08D3004F08D3064A080319CE
:1003C000C52AD200F7004E080319CE2AD20203191B
:1003D0006A2A031C282A4F08D800D8175008D700CB
:1003E0005108D600D5010310D80CD70CD60CD50C6B
:1003F000D20BF229D31FFF295414E22A54105210B1
:1004000054164D3084008313F72A5412D31B122A3A
:10041000521C1D2AD80CD70CD60CD50CF70A031980
:10042000DD2A1D2AD81B202A0310D50DD60DD70D85
:10043000D80DF7030319DD2A122A54178A2A5413F8
:100440004B08D300D31F262AD817D62AD813D62A6A
:100450004E08D200F7004A08D2024B08D800D8173D
:100460004C08D7004D08D600D5010310D80CD70C86
:10047000D60CD50CD20B342AD31F412AD414E22A2D
:10048000D4105210D416513084008313F72AD4129A
:10049000D31B542A521C5F2AD80CD70CD60CD50C6F
:1004A000F70A0319DD2A5F2AD81B622A0310D50D2B
:1004B000D60DD70DD80DF7030319DD2A542AD4170A
:1004C0008A2AD4134F08D300D31F682AD817D62AF4
:1004D000D813D62A4F08D800D8175008D70051088B
:1004E000D600D31F772AD8135415E22A5411D50108
:1004F00052104D3084008313F72AD31BA02A4B08D7
:10050000D300521C8A2AD80CD70CD60CD50CF70A6B
:100510000319DD2AD51F9B2AD60A031D9B2AD70A59
:10052000031D9B2AD80A031D9B2AD80CD70CD60C76
:10053000F70A0319DD2A541B1F2AD41B612ABF2A7C
:100540008030D806D81FA82AE22A4F08D300B52A3F
:100550004B08D300D808031DB52AD708031DB52AB8
:10056000D608031DB52AF701D62AD81BBF2A0310C7
:10057000D50DD60DD70DD80DF70BB52ADD2AD31F13
:10058000C32AD817D62AD813D62A4E08F7004F0800
:10059000D8005008D7005108D600D62A4A08F700DC
:1005A0004B08D8004C08D7004D08D6005808F80072
:1005B0005708F9005608FA00152BF701F801F90160
:1005C000FA01152BD501D609D709D809D509D50ABD
:1005D000031DF02AD60A031DF02AD70A0319D80AE8
:1005E0005418FE29D418402A5419762AA52A00083E
:1005F000D607031C012BD70A031D012BD80A0319A8
:10060000521484030008D707031C092BD80A0319C6
:10061000521484030008801F803AD807031852142C
:10062000541A052AD41A472A7D2A080046080319B5
:10063000862BCE004A080319862BCE070318272BDA
:100640007F30CE02031C862B0319862B2B2B813087
:10065000CE070318862B4E08F700F801F901FA01BE
:100660004708D200D2174808D1004908D0001830F6
:10067000CE00CF01501C542B4D08FA07031C462B0B
:10068000F90A031D462BF80A0319CF174C08F9077E
:10069000031C4D2BF80A0319CF174B08C800C817C5
:1006A0004808F8070318CF17CF0DF80CF90CFA0C0F
:1006B000D20CD10CD00C0310CE0B392B0130F70724
:1006C0000318862BF81B6B2BD20DFA0DF90DF80DC4
:1006D000F7030319862BD21F7C2BFA0A031D7C2BF0
:1006E000F90A031D7C2BF80A031D7C2BF80CF90C6E
:1006F000FA0CF70A0319862B4708CF004B08CF06E0
:10070000CF1F842BF8178A2BF8138A2BF701F801D7
:10071000F901FA0108008E30F7004708F800460892
:10072000F900FA01C71F992BF809F909F90A031909
:10073000F80AF808031DA62B7908F800F90108301B
:10074000F702F808031DA62BF701AF2B0310F81BC7
:10075000AD2BF90DF80DF703A62BC71FF8130800F2
:100760003408B8003308B7003208B6003108B500C5
:100770003808C9003708C8003608C7003508C60061
:10078000CD01CC01CB017F30CA00CC200319E12D73
:10079000C7013530C6004608840083134718831705
:1007A0007E30800083143808CD003708CC0036082E
:1007B000CB003508CA00D101D001CF017F30CE0077
:1007C000D5217708C6007808C7007908C8007A08DC
:1007D000C90083103808CD003708CC003608CB009C
:1007E0003508CA00D101D001CF017F30CE00D5211C
:1007F0004908CD004808CC004708CB004608CA008D
:100800007A08D1007908D0007808CF007708CE00A8
:100810000B217A08B8007908B7007808B600770885
:10082000B5003808C9003708C8003608C7003508C1
:10083000C6003808CD003708CC003608CB00350894
:10084000CA0016237A08C4007908C3007808C200D9
:100850007708C100BC30C9002430C8006730C70029
:100860007D30C6004408CD004308CC004208CB00D0
:100870004108CA0016237708C6007808C70079081F
:10088000C8007A08C90083107A08CD007908CC0026
:100890007808CB007708CA00E330D100E430D000FC
:1008A0009030CF008230CE00D5217A08BC00790884
:1008B000BB007808BA007708B9003C08C9003B08BB
:1008C000C8003A08C7003908C6004408CD004308EC
:1008D000CC004208CB004108CA0016237708C600A6
:1008E0007808C7007908C8007A08C90083107A0818
:1008F000CD007908CC007808CB007708CA001C30FE
:10090000D1008730D0005730CF008330CE00D521C2
:100910007A08BC007908BB007808BA007708B900EB
:100920003C08C9003B08C8003A08C7003908C6009F
:100930004408CD004308CC004208CB004108CA005F
:1009400016237708C6007808C7007908C8007A0817
:10095000C90083107A08CD007908CC007808CB0054
:100960007708CA00AB30D100E130D0009E30CF0014
:100970008330CE00D5217A08BC007908BB00780806
:10098000BA007708B900C901C801C7017F30C600A5
:100990004408CD004308CC004208CB004108CA00FF
:1009A00016237708C6007808C7007908C8007A08B7
:1009B000C90083107A08CD007908CC007808CB00F4
:1009C0007708CA00B430D1002A30D0008230CF007E
:1009D000CE00D5217A08C0007908BF007808BE0093
:1009E0007708BD004008C9003F08C8003E08C7009E
:1009F0003D08C6004408CD004308CC004208CB00A7
:100A00004108CA0016237708C6007808C70079088D
:100A1000C8007A08C90083107A08CD007908CC0094
:100A20007808CB007708CA008030D1003E30D00073
:100A30000630CF008330CE00D5217A08C000790877
:100A4000BF007808BE007708BD004008C9003F0815
:100A5000C8003E08C7003D08C6004408CD00430852
:100A6000CC004208CB004108CA0016237708C60014
:100A70007808C7007908C8007A08C90083107A0886
:100A8000CD007908CC007808CB007708CA00AB30DD
:100A9000D100E130D0009E30CF008230CE00D52191
:100AA0007A08C0007908BF007808BE007708BD004A
:100AB0003808C9003708C8003608C7003508C6001E
:100AC0003C08CD003B08CC003A08CB003908CA00EE
:100AD00016237708C6007808C7007908C8007A0886
:100AE000C900CD007908CC007808CB007708CA008F
:100AF0004008D1003F08D0003E08CF003D08CE009E
:100B00000B217A08BC007908BB007808BA00770886
:100B1000B900C7013130C600460884008313471866
:100B200083177E300002C500C51FA72D4508003C75
:100B3000C701C600C61BC7038B237708BD00780812
:100B4000803ABE007908BF007A08C000B52DC70101
:100B50004508C600C61BC7038B237A08C000790866
:100B6000BF007808BE007708BD004008C9003F08F4
:100B7000C8003E08C7003D08C6001830CD007230DE
:100B8000CC003130CB007E30CA00162383103C08E5
:100B9000CD003B08CC003A08CB003908CA007A08DF
:100BA000D1007908D0007808CF007708CE00D52191
:100BB0007A08BC007908BB007808BA007708B90049
:100BC000E52DBC01BB01BA01B9013908F7003A08AB
:100BD000F8003B08F9003C08FA000800400BF12D32
:100BE000F42D4030C100F52DC10101303F02C10795
:100BF00041088038C200C3014208C40042200800F6
:100C00003E080C3A03190B2E063A0319132E023A2A
:100C10000319192E1E2EC3010130C40042200230D8
:100C2000BF001B20242E0130BF000230C000EE2583
:100C3000242EC3011030C4004220242E0130C300F2
:100C40003E08C4004220242E0800831603178C1788
:100C50000C14000000000318542E83120C087F3976
:100C60000313B20003170D080313B30003170F0893
:100C70000313B4003208BE000026330803178D00AA
:100C80000313340803178F0083168C170C1400000D
:100C9000000083120313B10B4E2E512E831603173F
:100CA000542E722E8316031783120C0D0E0D7F39EE
:100CB0000313B20003170D080313B30003170F0843
:100CC0000313B4003208BE000026330803178D005A
:100CD0000313340803178F008D0A03198F0A0313B7
:100CE000B10B252E8A150A123C2AF701F801F901E9
:100CF000FA01C601C701C801C901450844044304FB
:100D000042040319B32E2030CA000310BE0DBF0DDC
:100D1000C00DC10DC60DC70DC80DC90D450849024E
:100D2000031D9C2E44084802031D9C2E43084702C5
:100D3000031D9C2E42084602031CAD2E4208C6022B
:100D40004308031C430FC7024408031C440FC80296
:100D50004508031C450FC9020314F70DF80DF90DE2
:100D6000FA0DCA0B852E4630840083130800040850
:100D7000B6003508B8000319D62E3408C900330868
:100D8000C8003208C7003108C600CD01CC012030B0
:100D9000CB008230CA0016237A08B4007908B30069
:100DA0007808B2007708B100B80BBD2E3408C10036
:100DB0003308C0003208BF003108BE003E08B63C10
:100DC000BE00FA013F08C200BF170310BF0CC00CE1
:100DD000C10CFA0CF90CF80CF70CBE0BE52EC21F77
:100DE000FC2EF709F809F909FA09F70A0319F80AB4
:100DF0000319F90A0319FA0A7A08B4007908B3004A
:100E00007808B2007708B100B41F132FB603B616E6
:100E1000B109B209B309B409B10A0319B20A031935
:100E2000B30A0319B40A3B30BD009A30BC00CA3083
:100E3000BB00BA010A30B80035080319B60A3408F5
:100E4000C1003308C0003208BF003108BE003D08B1
:100E5000C5003C08C4003B08C3003A08C200752620
:100E60000008B100840A0008B200840A0008B30038
:100E7000840A0008B400FD308407F708031D532FCF
:100E8000350A38020319532F36080319552F0F3925
:100E9000380203194D2F0318852FB61B852F361BDB
:100EA000552F2030812F2030B605B61E632FB61285
:100EB0003508031DB6037708B6002D30BE000026A6
:100EC0003608F700B60135083802031D712F770880
:100ED000B6002E30BE0000263608F7002030B605DA
:100EE00000303030B61E812FB6123508031DB60310
:100EF0007708B6002D30BE0000263608F700B60190
:100F00003030F7077708BE0000263D08C1003C08D6
:100F1000C0003B08BF003A08BE00C501C401C301C0
:100F20000A30C20075267A08BD007908BC0078082E
:100F3000BB007708BA00B80B1F2F8A150A124B2A7C
:10100000840183131F30830583161F149F141F153B
:101010009F1107309C008312A401A301A201A1012A
:10102000A801A701A601A501AC01AB01AA01A90174
:101030000030831688008A1183127D288A15831652
:101040001F109F141F159F151F1783121F179F1323
:1010500083169F1383121F146430BF008A111B2054
:101060008A151F151F1932281E08B201B1008A11F6
:10107000AD288A157A08A4007908A3007808A20090
:101080007708A100C901C8014030C7008330C600FD
:101090002408CD002308CC002208CB002108CA0078
:1010A0008A11CC208A1503185928031959280030B1
:1010B0005A280130B1005E2800305F280130310528
:1010C0000319CB282408CD002308CC002208CB002C
:1010D0002108CA00A730D1001430D0004D30CF0015
:1010E0008430CE008A110B218A157A08A80079086D
:1010F000A7007808A6007708A5002808B4002708EC
:10110000B3002608B2002508B1008A11B0238A1561
:101110003D30C9008A30C8000330C7008430C600A3
:101120007A08CD007908CC007808CB007708CA008F
:101130008A1116238A157708B1007808B200790859
:10114000B3007A08B400B6010408B5003610831B5A
:10115000361483103408CD003308CC003208CB009D
:101160003108CA00F230D1005230D0001730CF0021
:101170008430CE008A11D5218A1535088400831366
:10118000361883177A08AC007908AB007808AA00F3
:101190007708A900262AC901C8012830C700833072
:1011A000C6002408CD002308CC002208CB0021086B
:1011B000CA008A11CC208A150318E2280319E228F4
:1011C0000030E3280130B100E7280030E828013082
:1011D0003105031979292408CD002308CC00220801
:1011E000CB002108CA00A730D1001430D0004D3008
:1011F000CF008430CE008A110B218A157A08A8000E
:101200007908A7007808A6007708A5002808B40088
:101210002708B3002608B2002508B1008A11B023C0
:101220008A153D30C9008A30C8000330C7008430B9
:10123000C6007A08CD007908CC007808CB00770882
:10124000CA008A1116238A157708B1007808B200FF
:101250007908B3007A08B400B6010408B500361066
:10126000831B361483103408CD003308CC003208B9
:10127000CB003108CA00F230D1005230D000173014
:10128000CF008430CE008A11D5218A15350884001C
:101290008313361883177708B1007808B2007908ED
:1012A000B3007A08B400B8010408B7003810831BF3
:1012B000381483143408CD003308CC003208CB0036
:1012C0003108CA006630D100D000CF007F30CE0098
:1012D0008A11D5218A15370884008313381883179B
:1012E0007A08AC007908AB007808AA007708A90052
:1012F000262AC901C8011030C7008330C60024085F
:10130000CD002308CC002208CB002108CA008A1196
:10131000CC208A15031890290319902900309129AF
:101320000130B100952900309629013031050319AB
:10133000262A2408CD002308CC002208CB0021084F
:10134000CA00A730D1001430D0004D30CF00843017
:10135000CE008A110B218A157A08A8007908A70007
:101360007808A6007708A5002808B4002708B3006D
:101370002608B2002508B1008A11B0238A153D3035
:10138000C9008A30C8000330C7008430C6007A081C
:10139000CD007908CC007808CB007708CA008A1104
:1013A00016238A157708B1007808B2007908B300CF
:1013B0007A08B400B6010408B5003610831B361451
:1013C00083103408CD003308CC003208CB0031083C
:1013D000CA00F230D1005230D0001730CF00843034
:1013E000CE008A11D5218A1535088400831336185A
:1013F00083177708B1007808B2007908B3007A083B
:10140000B400B8010408B7003810831B38148314E3
:101410003408CD003308CC003208CB003108CA00B4
:10142000D101D0014030CF008030CE008A11D521CB
:101430008A15370884008313381883177A08AC009C
:101440007908AB007808AA007708A9006430BF00CB
:101450008A111B208A150130BF00C0008A11EE25B9
:101460008A150C3003178D0000308F0003101730E1
:101470000313B1008A11252E8A15033084002C082D
:10148000B4002B08B3002A08B2002908B1000230CA
:10149000B5008A11B72E8A152030BE008A110026A9
:0614A0008A152C286300F0
:02400E00723FFF
:00000001FF
;PIC16F877A
;CRC=DBFC  CREATED="02-sept.-19 00:11"
