:020000040800F2
:1000000008070120750200087D0200087F02000831
:100010008102000883020008850200080000000039
:10002000000000000000000000000000870200083F
:1000300089020008000000008B0200088D02000801
:100040008F0200088F0200088F0200088F0200084C
:100050008F0200088F0200088F0200088F0200083C
:100060008F0200088F0200088F0200088F0200082C
:100070008F0200088F0200088F0200088F0200081C
:100080008F0200088F0200088F0200088F0200080C
:100090008F0200088F0200088F0200088F020008FC
:1000A0008F0200088F0200088F0200088F020008EC
:1000B0008F0200088F0200088F0200088F020008DC
:1000C0008F0200088F0200088F0200088F020008CC
:1000D0008F0200088F0200088F0200088F020008BC
:1000E0008F0200088F0200088F0200088F020008AC
:1000F0008F0200088F0200088F0200088F0200089C
:100100008F0200088F0200088F0200088F0200088B
:100110008F0200088F0200088F0200088F0200087B
:100120008F0200088F0200088F0200088F0200086B
:100130008F0200088F0200088F0200088F0200085B
:100140008F0200088F0200088F0200088F0200084B
:100150008F0200088F0200088F0200088F0200083B
:100160008F0200088F0200088F0200088F0200082B
:100170008F0200088F0200088F02000800000000B4
:100180008F0200088F0200088F0200088F0200080B
:100190008F0200088F0200088F0200088F020008FB
:1001A0008F0200088F0200088F0200088F020008EB
:1001B0008F0200088F0200088F0200088F020008DB
:1001C0008F0200088F02000800F002F800F042F8E9
:1001D0000AA090E8000C82448344AAF10107DA45A2
:1001E00001D100F037F8AFF2090EBAE80F0013F0B2
:1001F000010F18BFFB1A43F001031847CC1200008F
:10020000EC120000103A24BF78C878C1FAD852071F
:1002100024BF30C830C144BF04680C607047000080
:100220000023002400250026103A28BF78C1FBD8FF
:10023000520728BF30C148BF0B6070471FB501F09F
:100240009DF89DE8030000F0AFF800F037F81FBDFF
:1002500010B510BD00F012F91146FFF7EFFF01F0E5
:1002600079F800F04AF903B4FFF7F2FF03BC00F09D
:1002700087F900000948804709480047FEE7FEE784
:10028000FEE7FEE7FEE7FEE7FEE7FEE7FEE7FEE746
:1002900004480549054A064B70470000B1060008AE
:1002A000C9010008080101200807012008030120F6
:1002B00008030120704770477047000070B5064C76
:1002C0007C44064D7D4403E0206820448047241D83
:1002D000AC42F9D170BD00002412000024120000CD
:1002E00000487047DC00012070B5064600F03CF87D
:1002F000056806F10B0020F00704B4429CBF002003
:1003000070BD2B466A68BAB11068A04210D304F1E0
:10031000080188423CBF5068586007D351681019E3
:1003200041601168091B016058601460101D70BDA8
:1003300013465268002AE7D12146284600F020F8EB
:100340000028DED170BD10B500F012F8006810BDB5
:1003500010B5044600F00CF8046010BD00F081B840
:1003600000487047A800012000487047B0000120F5
:1003700000487047A80001207047704770477047D9
:1003800038B504460A4600206946AFF300800028CD
:1003900008BF38BD02460099204600F094F80120BD
:1003A00038BD012000F0BDB8F8B5AFF300800546B8
:1003B00000200C46102000BF0646A819A0420DD907
:1003C000324669460020AFF30080070008BF00F006
:1003D000A8F80098A04218BF0546C419FFF7C4FF4B
:1003E00005600746F01D20F007004619284600F07A
:1003F0000AF8B44208BFF8BDA21B31463868BDE810
:10040000F84000F060B800210160C0E901107047B9
:100410001020704770B50446051FFFF7A5FF006860
:10042000002C14BF446870BD002C18BFAC423CBF08
:1004300020466468F8D301680A18AA4218BF4560CC
:1004400003D12A6805461144016028684119A14278
:100450001CBF6C6070BD61686960216808442860D9
:1004600070BD10B500F067F8016919B10022026192
:10047000884701E08068804700F048F87546FFF73C
:100480006FFFAE4605006946534620F007008546DB
:1004900018B020B5FFF7FCFEBDE820404FF0000685
:1004A0004FF000074FF000084FF0000B21F007015C
:1004B000AC46ACE8C009ACE8C009ACE8C009ACE89F
:1004C000C0098D467047034640688C46002818BF17
:1004D00088423CBF03464068F8D3186818448842F5
:1004E00007D00CF1030020F00700001D411A521A3A
:1004F0000146081D0A60FFF78DBF10B50446AFF333
:1005000000802046BDE81040FFF7ADBE10B50020CA
:1005100000F047F8FFF79CFEBDE81040012000F016
:100520002FB810B500F044F8BDE8104000F034B822
:1005300010B5FFF7EBFF70B500F02AF80468054628
:10054000A4B92020FFF7D0FE040011D009490020F3
:100550002C60C4E900010849A1602073206160613A
:100560000649A06109B100F04BF8E061204670BD7A
:10057000FFF7CCFF0000000031050008000000007C
:1005800001491820ABBEFEE72600020070470000BC
:1005900000487047E4000120002801D0FFF7F0BFB9
:1005A000704710B500F064F8BDE81040FFF7F4BFE5
:1005B00010B5012805D0002103A000F03FF801206C
:1005C00010BD09A1F8E7000053494752544D454D6D
:1005D0003A204F7574206F662068656170206D65E4
:1005E0006D6F7279000000003A2048656170206DDF
:1005F000656D6F727920636F7272757074656400D7
:1006000010B58820FFF770FE002801D0002101708E
:1006100010BD802902D808B1017809B100207047C7
:10062000012100F8081B704718B100F1080291423F
:1006300001D00020704700210170704770B5054659
:100640000C460A2000E06D1C00F02AF835B128782D
:100650000028F8D102E0641C00F022F814B12078E0
:100660000028F8D1BDE870400A2000F019B8000059
:1006700010B5002102A0FFF7E1FF012010BD00002E
:10068000534947414252543A2041626E6F726D6144
:100690006C207465726D696E6174696F6E00000024
:1006A00008B569468DF800000320ABBE08BD000008
:1006B0001448006840F4700012490860124800684D
:1006C00040F001001049086000200F49083108601F
:1006D0000D4800680D4908400B4908600C48091D89
:1006E0000860081F006820F48020091F08600020AF
:1006F00005490C3108604FF00060024980390860FC
:100700007047000088ED00E000380240FFFFF6FE71
:100710001030002410B5002449E0012C1BDA002021
:1007200000E0401C23498842FBDB812000F080F878
:10073000E0B200F045F8832000F07AF81E4800F09F
:10074000B3F8002000E0401C1A498842FBDB01207E
:1007500000F06EF82AE0012C15D1842000F068F832
:10076000E0B200F02DF8852000F062F8134800F0A8
:100770009BF8002000E0401C0E498842FBDB012072
:1007800000F056F812E0052C08DA04F18401C8B232
:1007900000F04EF8E0B200F013F807E004F1C101F8
:1007A000C8B200F045F8E0B200F00AF8641C082C6A
:1007B000B3DB10BD60E31600740001207D00012052
:1007C00010B50446204600F07BF801210B48006874
:1007D00000F0B6F800210A48006800F0B1F80121E5
:1007E0000848006800F0ACF849F6404000F09CF87A
:1007F00000210448006800F0A3F810BD2400012087
:10080000280001202000012010B5012000F010F880
:10081000022000F00DF83C2000F00AF80C2000F057
:1008200007F8062000F004F8802000F001F810BD61
:1008300010B50446204600F043F800210B4800683C
:1008400000F07EF800210A48006800F079F80121E4
:100850000848006800F074F849F6404000F064F879
:1008600000210448006800F06BF810BD240001204E
:10087000280001202000012070B5064609490878AB
:10088000FFF7D6FF00240AE0002505E006EBC401CF
:10089000485DFFF795FF6D1C082DF7DB641C082CE5
:1008A000F2DB70BD2C00012010B5044603E014F803
:1008B000010BFFF785FF20780028F8D110BD00005C
:1008C00030B52DED028B81B005460020009000244C
:1008D00022E0B0EE008A00EE104AF8EEC08AF0EE98
:1008E000680AB0EE480A00F0E1F8BDEEC00A8DEDEE
:1008F000000A009828400099884206D1094951F819
:100900002400012100F01CF805E0064951F82400FC
:10091000002100F015F8641C082CDADB01B0BDECF6
:10092000028B30BD8800012008B5002100910091A4
:1009300002E00099491C009100998142F9DB08BD51
:1009400001290AD100BF8279012303FA02F2036868
:100950005B691A4303685A6108E000BF827901238A
:100960009340026852699A4303685A6170470000D5
:10097000F0B505AC70CC01608280C3800472458103
:1009800086812F4FB94207D12E4F3F6847F00107AC
:10099000DFF8B0C0CCF800702B4FB94207D1294F17
:1009A0003F6847F00207DFF89CC0CCF80070274F83
:1009B000B94207D1234F3F6847F00407DFF884C0EE
:1009C000CCF80070224FB94207D11E4F3F6847F064
:1009D0000807DFF870C0CCF800701E4FB94207D18D
:1009E000184F3F6847F01007DFF858C0CCF8007088
:1009F000194FB94207D1134F3F6847F02007DFF87E
:100A000044C0CCF800700F684FEA430C02FA0CFCAB
:100A100047EA0C070F6004FA03F74F608F684FEA4C
:100A2000430C05FA0CFC47EA0C078F60CF684FEACD
:100A3000430C06FA0CFC47EA0C07CF60F0BD00003F
:100A4000000002403038024000040240000802402A
:100A5000000C0240001002400014024010B50400D7
:100A600007D1012405E0FFF73BFC006800B904480A
:100A700080472046FFF738FC0028F4D010BD000066
:100A80005D0300084100080218BF04200A0E18BFC9
:100A900040F001004FF07F4232EA010108BF40F010
:100AA0000200012808BF05207047000010B510EEB5
:100AB000100A2DED068BB7EE001A10EE901AB0EE6C
:100AC000418A0022A0F5000CDFEDFE9A4FF0007382
:100AD000BCF1FE4F4FF07F4403EB410C80F0B4813A
:100AE000BCF1804FC0F02082F74901449FEDF73AF6
:100AF000B1F5005F40F2D48200F58021CB0C03F009
:100B00000F0101EE901AC3F307137F3BA0EBC35014
:100B1000B8EEE12A00EE100A1A44DFEDED2AF0EEFD
:100B2000411A42EE221AF0EE613A70EE232A30EEBC
:100B3000632A12EE900A00F500606FF30B0001EEDD
:100B4000900A73EEE13A33EE804AC1EE223A22EE89
:100B5000230A10EE100A00F500606FF30B0000EEA0
:100B6000100A00EE612A00EE442A62EE232A70EE9B
:100B7000221A21EEA12ADFEDD73A02EE233A23EE24
:100B8000023A20EE012A22EE811A03EE211A32EEF9
:100B9000010A10EE100A00F500606FF30B0000EE82
:100BA000100A72EE401A31EE812A9FEDCB1A60EEE8
:100BB000011A9FEDCA1A20EE011A9FEDC90A02EE32
:100BC000001A31EE810A10EE100A00F500606FF392
:100BD0000B0000EE100AC34871EEC01A31EE812AF4
:100BE000784400EBC10090ED003AD0ED011A1001FD
:100BF00001EE100AF8EEC12A32EE211A31EE001A87
:100C000031EE031A31EE221A11EE100A00F50060DF
:100C10006FF30B0009EE100A39EE621A31EE431A37
:100C200031EE400A30EE610A32EE40AA10EE900A30
:100C3000002100F500606FF30B0008EE900A0846F3
:100C400070EEE8AA4FF0000029EE280A00F00C012F
:100C5000F0EEC00A10EE900AB0F18B4F0DDD10EEF1
:100C6000900AB4EB400F08D310EE100A4FF08B42FD
:100C700062F31E0008EE900A13E069EE2A0A38EECD
:100C8000AA1A4AEE010A30EE201A11EE100A00F5F7
:100C900000606FF30B0008EE900A30EE680A70EE09
:100CA000209A0C204FF0000038EEA90AB5EEC00AD9
:100CB000F1EE10FA34BFFEEE000AF6EE000A30EE56
:100CC000800ABDEEC00A10EE100A011100EE101AE3
:100CD000F8EEC00A00EE100AB8EEC00A38EEC00AFC
:100CE00030EE290ADFED801A9FED801A00EE211AFE
:100CF000DFED7F1A7F4900F00F0040EE011A21EE70
:100D0000800A794401EB800191ED001A7A49794417
:100D100001EB8001D1ED001A784901EE801A794487
:100D200001EB8000764990ED000A31EE001AB0EE3A
:100D3000E00A10EE100A884215DA10EE100AB4EB41
:100D4000400F10D39FED6F0A30EE800ADFED6E0A80
:100D500020EE200A68EE010ABDEC068BBCEEC00A4C
:100D600020EE200A10BD10EE100A6849884243DACE
:100D700010EE100AB4EB400F3ED3BDEEE00A68EE71
:100D8000010A10EE100A00EBD0725110C90501F1F2
:100D90007E5100EE101AA0EB6200C00560EE200A42
:100DA00000F17E5000EE100A60EE808A18EE900A84
:100DB000B4EB400F0FD10220FFF7CAFA00F0BEF9E2
:100DC00010EE101A18EE100ABDEC068B61F31E002F
:100DD00000EE100A10BD18EE900A400011D018EE77
:100DE000900AFFF74FFE042808BF00F0AFF9B0EEFD
:100DF000680ABDEC068B10BDF5EEC00AF1EE10FAE4
:100E00000FD20220FFF7A4FA00F0A0F910EE101A9A
:100E100018EE100ABDEC068B61F31E0000EE100AFE
:100E200010BD0220FFF794FA00F088F910EE101AB6
:100E3000B0EE480A10EE100ABDEC068B61F31E00FE
:100E400000EE100A10BD00BFBCF1804F6CD300BF94
:100E500000F1FF43B3F1FE4F24D200BFB0EEC00A51
:100E600010EE100AC1F3C7537F2B0DDB972BBFF693
:100E70003BAEC3F196034FF0010C0CFA03F3A3F160
:100E8000010C1CEA010F08D00120FFF761FABDEC4C
:100E9000068BBDE8104000F049B90B4218BFBFEE09
:100EA000008A21E643001CBF4FF08073B3EB400F74
:100EB00034D96FF01A02DFED161A20EE210A10EE77
:100EC000100A27E000000000001080C0ABAAAA3E74
:100ED0000000803D7EE24C3E00B03842D49AB8BB60
:100EE0003BAA3842A4070000FC596337C9FF753A92
:100EF0001872313D4207000076070000E606000048
:100F00000000FC420000FE420000004B0000404395
:100F10000000004D10F0004FA0D1E5E5A0F5000362
:100F2000B3F1FE4F21D2DFE503EB4103B3F1007FC4
:100F300011D3F5EEC00AF1EE10FA05D1430018BF47
:100F4000B4EB400F76D883E701F0004141F0FC514B
:100F500000EE901A7CE7B3F1807F06D210EE903A53
:100F6000A3F5000300EE903A72E720F000426FF024
:100F7000FF4C604C02EB0C03A34210D321F0004362
:100F80009C44A4450BD3B0F17E5F18BF5FEA410CCF
:100F900050D0B2F1FF4F98BFB3F1FF4F05D9BDEC70
:100FA000068BBDE8104000F0BDB8B0F1FF4F0FD088
:100FB000C1F3C7527F2A09DB972A11DAC2F19602E0
:100FC000012303FA02F2531E0B4205D0002208E06F
:100FD00011F0004F55D128E00A4218BF012200D17C
:100FE000022210F5000F13D028B3B0F1004F26D025
:100FF00010F1814F4FD04FF0FE42B2EB400F94BF43
:1010000001200020012202EBE171884239D10CE07D
:1010100011F0004F02D0012A38D032E0012A02BF7D
:101020009FED350ABDEC068B10BD9FED340ABDEC7B
:10103000068B10BD2FE011F0004F0CD121E0B1F173
:10104000FF4F1ED011F5000F05D011F0004F15D045
:101050000AB1012A08D00220FFF77AF9BDEC068B0D
:10106000BDE8104000F054B80220FFF771F900F01D
:101070004FF8BDEC068BB1EE400A10BD0AB1012A53
:1010800004D0B0EE690ABDEC068B10BDBDEC068B3A
:101090009FED1B0A10BDBDEC068BB7EE000A10BD1C
:1010A00030EE410AB5EE001A9FED172A00EE413AE4
:1010B000B6EE001A60EE001A00EE431A61EEC11A95
:1010C0009FED101A20EE011A20EE020A9FED0F2A62
:1010D00001EE820A71EE001A11EE900A00F500602E
:1010E0006FF30B0009EE100A31EE491A31EE00AA37
:1010F0009CE50000FFFF3F00000080FF0000807FB4
:101100000000008000B0B841D49A38BB3BAAB84177
:10111000DFED030AB7EE001A81EE200A70470000E7
:101120000000000030EE200A70470000DFED020AE8
:1011300080EEA00A70470000000000009FED020A48
:1011400020EE000A70470000000000709FED020AC8
:1011500020EE000A70470000000000103EB510208D
:10116000FFF77CFC044601200022CDE90020134655
:1011700002466B4902902046FFF7FAFB0446694895
:1011800004601020FFF76AFC044601200022CDE92C
:10119000002003460246624902902046FFF7E8FB22
:1011A0000446614804601020FFF758FC0446012003
:1011B0000022CDE900200223024659490290204630
:1011C000FFF7D6FB0446594804601020FFF746FCA1
:1011D000044601200022CDE90020032302465049A5
:1011E00002902046FFF7C4FB0446514804601020DB
:1011F000FFF734FC044601200022CDE9002004233F
:101200000246474902902046FFF7B2FB0446494890
:1012100004601020FFF722FC044601200022CDE9E3
:101220000020052302463E4902902046FFF7A0FB1E
:101230000446414804601020FFF710FC04460120DA
:101240000022CDE9002006230246354902902046BF
:10125000FFF78EFB0446394804601020FFF7FEFBC1
:10126000044601200022CDE90020072302462C4934
:1012700002902046FFF77CFB0446314804601020B2
:10128000FFF7ECFB044601200022CDE900200923F2
:101290000246234902902046FFF76AFB044629488C
:1012A00004601020FFF7DAFB044601200022CDE99C
:1012B0000020082302461A4902902046FFF758FBF7
:1012C0000446214804601020FFF7C8FB04460120B3
:1012D0000022CDE900200A2302461149029020464F
:1012E000FFF746FB0446194804600E480068184999
:1012F00008600D48006848600C48006888600C4829
:101300000068C8600B48006808610B4800684861C5
:101310000A48006888610A480068C8613EBD00004C
:10132000000C024000000120040001200800012000
:101330000C000120100001201400012018000120E1
:101340001C00012020000120240001202800012091
:1013500088000120FFF758FA0648FFF78DFA07E0EA
:10136000FFF7D8F9002000E0401C03498842FBDB6E
:10137000F6E7000034000120400D03004FF04070FC
:10138000E1EE100A704700000000000000000000BD
:101390000000B33FB2BE7D3A00002E40DFCF51388F
:1013A00000007E40BF51FABA00E0A44019DAC3BA87
:1013B00000E0C840C2ED8AB90040EB40CD1F2CBA16
:1013C000001006412AFFFABA00C01541DFCFD1371D
:1013D00000D024419A97703A0050334189478E36A5
:1013E00000404141E75B9D3800B04E41C00A98B9CA
:1013F00000A05B41558F943A00306841DA92C0BA40
:101400000040744162B3C63A0000803F00A0853FAF
:1014100000908B3F00C0913F0030983F00F09E3F0E
:1014200000F0A53F0050AD3F0000B53F0000BD3FBC
:101430000060C53F0020CE3F0040D73F00C0E03FE6
:1014400000C0EA3F0020F53F000000007D36AC39C7
:101450007D3C3839EBDCF438320A7E39124C2639BF
:101460009B6AED39A4EE83397F661E39F6398A39D5
:101470002B426539A48211395B991F39C3EECD39EE
:10148000DDE7C637A5A22F390000803FC3AA853FFC
:10149000C2958B3FD3C3913FF037983F32F59E3FC3
:1014A000D7FEA53F3F58AD3FF304B53FA408BD3F6D
:1014B0002A67C53F8C24CE3FFD44D73FDFCCE03FB9
:1014C000C7C0EA3F7D25F53FEC140008000001206D
:1014D000880000000402000874150008880001203C
:1014E000800600002002000875FCFFFF00000000DD
:1014F00000000000000000000000000000000000EC
:1015000000000000000000000000000000000000DB
:1015100000000000000000004041424344454647AF
:10152000060F1C18181C0F0600070F0C0C0F0700E5
:1015300001030303050505021F1F1F1911180103ED
:1015400010101F080E111E1C01000709111515159A
:1015500000101F11111F000008081C12111515158D
:101560005061632D4D616E2D475061632D4D616E4D
:041570002D43000007
:040000050800027578
:00000001FF
