:020000040800F2
:10000000B8060120750200087D0200087F02000882
:100010008102000883020008850200080000000039
:10002000000000000000000000000000870200083F
:1000300089020008000000008B0200088D02000801
:100040008F0200088F0200088F0200088F0200084C
:100050008F0200088F0200088F0200088F0200083C
:100060008F0200088F0200088F0200088F0200082C
:100070008F0200088F0200088F0200088F0200081C
:100080008F0200088F0200088F0200088F0200080C
:100090008F0200088F0200088F0200088F020008FC
:1000A0008F0200088F0200088F0200088F020008EC
:1000B0008F0200088F0200088F0200088F020008DC
:1000C0008F0200088F0200088F0200088F020008CC
:1000D0008F0200088F0200088F0200088F020008BC
:1000E0008F0200088F0200088F0200088F020008AC
:1000F0008F0200088F0200088F0200088F0200089C
:100100008F0200088F0200088F0200088F0200088B
:100110008F0200088F0200088F0200088F0200087B
:100120008F0200088F0200088F0200088F0200086B
:100130008F0200088F0200088F0200088F0200085B
:100140008F0200088F0200088F0200088F0200084B
:100150008F0200088F0200088F0200088F0200083B
:100160008F0200088F0200088F0200088F0200082B
:100170008F0200088F0200088F02000800000000B4
:100180008F0200088F0200088F0200088F0200080B
:100190008F0200088F0200088F0200088F020008FB
:1001A0008F0200088F0200088F0200088F020008EB
:1001B0008F0200088F0200088F0200088F020008DB
:1001C0008F0200088F02000800F002F800F042F8E9
:1001D0000AA090E8000C82448344AAF10107DA45A2
:1001E00001D100F037F8AFF2090EBAE80F0013F0B2
:1001F000010F18BFFB1A43F001031847D415000084
:10020000F4150000103A24BF78C878C1FAD8520714
:1002100024BF30C830C144BF04680C607047000080
:100220000023002400250026103A28BF78C1FBD8FF
:10023000520728BF30C148BF0B6070471FB501F09F
:1002400021FA9DE8030000F0AFF800F037F81FBD79
:1002500010B510BD00F012F91146FFF7EFFF01F0E5
:10026000D5F900F04AF903B4FFF7F2FF03BC00F040
:1002700087F900000948804709480047FEE7FEE784
:10028000FEE7FEE7FEE7FEE7FEE7FEE7FEE7FEE746
:1002900004480549054A064B70470000B1060008AE
:1002A000C9010008B8000120B8060120B8020120E9
:1002B000B8020120704770477047000070B5064CC7
:1002C0007C44064D7D4403E0206820448047241D83
:1002D000AC42F9D170BD00002C1500002C150000B7
:1002E000004870478C00012070B5064600F03CF8CD
:1002F000056806F10B0020F00704B4429CBF002003
:1003000070BD2B466A68BAB11068A04210D304F1E0
:10031000080188423CBF5068586007D351681019E3
:1003200041601168091B016058601460101D70BDA8
:1003300013465268002AE7D12146284600F020F8EB
:100340000028DED170BD10B500F012F8006810BDB5
:1003500010B5044600F00CF8046010BD00F081B840
:100360000048704758000120004870476000012095
:100370000048704758000120704770477047704729
:1003800038B504460A4600206946AFF300800028CD
:1003900008BF38BD02460099204600F094F80120BD
:1003A00038BD012000F0BDB8F8B5AFF300800546B8
:1003B00000200C46102000BF0646A819A0420DD907
:1003C000324669460020AFF30080070008BF00F006
:1003D000A8F80098A04218BF0546C419FFF7C4FF4B
:1003E00005600746F01D20F007004619284600F07A
:1003F0000AF8B44208BFF8BDA21B31463868BDE810
:10040000F84000F060B800210160C0E901107047B9
:100410001020704770B50446051FFFF7A5FF006860
:10042000002C14BF446870BD002C18BFAC423CBF08
:1004300020466468F8D301680A18AA4218BF4560CC
:1004400003D12A6805461144016028684119A14278
:100450001CBF6C6070BD61686960216808442860D9
:1004600070BD10B500F067F8016919B10022026192
:10047000884701E08068804700F048F87546FFF73C
:100480006FFFAE4605006946534620F007008546DB
:1004900018B020B5FFF7FCFEBDE820404FF0000685
:1004A0004FF000074FF000084FF0000B21F007015C
:1004B000AC46ACE8C009ACE8C009ACE8C009ACE89F
:1004C000C0098D467047034640688C46002818BF17
:1004D00088423CBF03464068F8D3186818448842F5
:1004E00007D00CF1030020F00700001D411A521A3A
:1004F0000146081D0A60FFF78DBF10B50446AFF333
:1005000000802046BDE81040FFF7ADBE10B50020CA
:1005100000F047F8FFF79CFEBDE81040012000F016
:100520002FB810B500F044F8BDE8104000F034B822
:1005300010B5FFF7EBFF70B500F02AF80468054628
:10054000A4B92020FFF7D0FE040011D009490020F3
:100550002C60C4E900010849A1602073206160613A
:100560000649A06109B100F04BF8E061204670BD7A
:10057000FFF7CCFF0000000031050008000000007C
:1005800001491820ABBEFEE72600020070470000BC
:100590000048704794000120002801D0FFF7F0BF09
:1005A000704710B500F064F8BDE81040FFF7F4BFE5
:1005B00010B5012805D0002103A000F03FF801206C
:1005C00010BD09A1F8E7000053494752544D454D6D
:1005D0003A204F7574206F662068656170206D65E4
:1005E0006D6F7279000000003A2048656170206DDF
:1005F000656D6F727920636F7272757074656400D7
:1006000010B58820FFF770FE002801D0002101708E
:1006100010BD802902D808B1017809B100207047C7
:10062000012100F8081B704718B100F1080291423F
:1006300001D00020704700210170704770B5054659
:100640000C460A2000E06D1C00F02AF835B128782D
:100650000028F8D102E0641C00F022F814B12078E0
:100660000028F8D1BDE870400A2000F019B8000059
:1006700010B5002102A0FFF7E1FF012010BD00002E
:10068000534947414252543A2041626E6F726D6144
:100690006C207465726D696E6174696F6E00000024
:1006A00008B569468DF800000320ABBE08BD000008
:1006B0001448006840F4700012490860124800684D
:1006C00040F001001049086000200F49083108601F
:1006D0000D4800680D4908400B4908600C48091D89
:1006E0000860081F006820F48020091F08600020AF
:1006F00005490C3108604FF00060024980390860FC
:100700007047000088ED00E000380240FFFFF6FE71
:100710001030002410B50446094951F82400012185
:1007200000F010F8002000E0401C49F640418842EB
:10073000FADB034951F82400002100F003F810BD52
:100740002C00012070B505460C4600BF28784138C2
:10075000082877D2DFE800F0041D364F68829BB48A
:10076000012C0BD1284600F0D7F8012101FA00F046
:100770006149496908436049486109E0284600F039
:10078000CBF8012181405C48406988435A4948615F
:10079000B0E0012C0BD1284600F0BEF8012101FA8F
:1007A00000F05649096808435449086009E02846A2
:1007B00000F0B2F8012181405048006888434F4959
:1007C000086097E0012C0BD1284600F0A5F8012124
:1007D00001FA00F04A49096808434949086009E0FC
:1007E000284600F099F80121814045480068884377
:1007F000434908607EE0012C0BD1284600F08CF8BC
:10080000012101FA00F03F49096808433D490860A9
:1008100009E0284600F080F801218140394800684D
:1008200088433849086065E0012C0CD1284600F067
:1008300073F8012101FA00F033494969084332494C
:1008400048610AE055E0284600F066F80121814041
:100850002D48406988432C4948614BE0012C0BD15D
:10086000284600F059F8012101FA00F027490968EB
:1008700008432649086009E0284600F04DF80121A8
:1008800081402248006888432049086032E0012CFA
:100890000BD1284600F040F8012101FA00F01C4974
:1008A000096808431A49086009E0284600F034F84E
:1008B000012181401648006888431549086019E005
:1008C000012C0BD1284600F027F8012101FA00F095
:1008D0001049096808430F49086009E0284600F0FC
:1008E0001BF8012181400B480068884309490860D2
:1008F00000E000BF00BF70BD0000024014040240D1
:1009000014080240140C024000100240141402406B
:1009100014180240141C02400146B1F9040070474B
:10092000F0B505AC70CC0170428083808471058184
:100930004681A1F14107082F6FD2DFE807F00435A7
:100940006FA8E1FDFCFBE04F3F6847F00107DFF8CF
:1009500078C3CCF80070DD4F3F684FEA430C02FAD1
:100960000CFC47EA0C07DFF864C3CCF8007004FA0B
:1009700003F7CCF804706746BF684FEA430C05FAEA
:100980000CFC47EA0C07DFF844C3CCF80870674654
:10099000FF684FEA430C06FA0CFC47EA0C07DFF845
:1009A0002CC3CCF80C708CE1C74F3F6847F00207AE
:1009B000DFF814C3CCF80070C54F3F684FEA430C12
:1009C00002FA0CFC47EA0C07DFF804C3CCF800700D
:1009D00004FA03F70CF1040CCCF800700CF10407D6
:1009E0003F684FEA430C05FA0CFC47EA0C07DFF8B6
:1009F000E0C20CF1080CCCF800700CF104073F6861
:100A00004FEA430C06FA0CFC47EA0C07DFF8C0C2B9
:100A10000CF10C0CCCF8007053E151E1AA4F3F6887
:100A200047F00407DFF8A0C2CCF80070A94F3F6878
:100A30004FEA430C02FA0CFC47EA0C07DFF894C2B9
:100A4000CCF8007004FA03F70CF1040CCCF8007039
:100A50000CF104073F684FEA430C05FA0CFC47EA27
:100A60000C07DFF870C20CF1080CCCF800700CF128
:100A700004073F684FEA430C06FA0CFC47EA0C07F0
:100A8000DFF850C20CF10C0CCCF8007019E18E4F5D
:100A90003F6847F00807DFF830C2CCF800708E4F8F
:100AA0003F684FEA430C02FA0CFC47EA0C07DFF8F8
:100AB00028C2CCF8007004FA03F70CF1040CCCF84F
:100AC00000700CF104073F684FEA430C05FA0CFC78
:100AD00047EA0C07DFF800C20CF1080CCCF80070F4
:100AE0000CF104073F684FEA430C06FA0CFC47EA96
:100AF0000C07DFF8E4C10CF10C0CCCF80070E0E05E
:100B0000714F3F6847F01007DFF8BCC1CCF80070A8
:100B1000724F3F684FEA430C02FA0CFC47EA0C079D
:100B2000DFF8B8C1CCF8007004FA03F7CCF8047011
:100B3000674602E08BE051E017E0BF684FEA430CE4
:100B400005FA0CFC47EA0C07DFF890C1CCF80870F6
:100B50006746FF684FEA430C06FA0CFC47EA0C07AD
:100B6000DFF878C1CCF80C70ABE0574F3F6847F026
:100B70002007DFF854C1CCF80070594F3F684FEAA6
:100B8000430C02FA0CFC47EA0C07DFF854C1CCF81E
:100B9000007004FA03F70CF1040CCCF800700CF1AF
:100BA00004073F684FEA430C05FA0CFC47EA0C07C0
:100BB000DFF82CC10CF1080CCCF800700CF1040724
:100BC0003F684FEA430C06FA0CFC47EA0C07DFF8D3
:100BD00010C10CF10C0CCCF8007072E03A4F3F6879
:100BE00047F04007DFF8E0C0CCF800703D4F3F68A9
:100BF0004FEA430C02FA0CFC47EA0C07DFF8E4C0AA
:100C0000CCF8007004FA03F70CF1040CCCF8007077
:100C10000CF104073F684FEA430C05FA0CFC47EA65
:100C20000C07DFF8C0C00CF1080CCCF800700CF118
:100C300004073F684FEA430C06FA0CFC47EA0C072E
:100C4000DFF8A0C00CF10C0CCCF8007039E01E4F9E
:100C50003F6847F08007DFF870C0CCF80070224F83
:100C60003F684FEA430C02FA0CFC47EA0C07DFF836
:100C700078C0CCF8007004FA03F70CF1040CCCF83F
:100C800000700CF104073F684FEA430C05FA0CFCB6
:100C900047EA0C07DFF850C00CF1080CCCF80070E4
:100CA0000CF104073F684FEA430C06FA0CFC47EAD4
:100CB0000C07DFF834C00CF10C0CCCF8007000E02D
:100CC00000BF00BFF0BD000030380240000002400D
:100CD0000004024000080240000C024000100240E4
:100CE0000014024000180240001C024010B504002D
:100CF00007D1012405E0FFF7F3FA006800B90448C2
:100D000080472046FFF7F0FA0028F4D010BD00001D
:100D10005D0300084100080218BF04200A0E18BF36
:100D200040F001004FF07F4232EA010108BF40F07D
:100D30000200012808BF05207047000010B510EE22
:100D4000100A2DED068BB7EE001A10EE901AB0EED9
:100D5000418A0022A0F5000CDFEDFE9A4FF00073EF
:100D6000BCF1FE4F4FF07F4403EB410C80F0B481A7
:100D7000BCF1804FC0F02082F74901449FEDF73A63
:100D8000B1F5005F40F2D48200F58021CB0C03F076
:100D90000F0101EE901AC3F307137F3BA0EBC35082
:100DA000B8EEE12A00EE100A1A44DFEDED2AF0EE6B
:100DB000411A42EE221AF0EE613A70EE232A30EE2A
:100DC000632A12EE900A00F500606FF30B0001EE4B
:100DD000900A73EEE13A33EE804AC1EE223A22EEF7
:100DE000230A10EE100A00F500606FF30B0000EE0E
:100DF000100A00EE612A00EE442A62EE232A70EE09
:100E0000221A21EEA12ADFEDD73A02EE233A23EE91
:100E1000023A20EE012A22EE811A03EE211A32EE66
:100E2000010A10EE100A00F500606FF30B0000EEEF
:100E3000100A72EE401A31EE812A9FEDCB1A60EE55
:100E4000011A9FEDCA1A20EE011A9FEDC90A02EE9F
:100E5000001A31EE810A10EE100A00F500606FF3FF
:100E60000B0000EE100AC34871EEC01A31EE812A61
:100E7000784400EBC10090ED003AD0ED011A10016A
:100E800001EE100AF8EEC12A32EE211A31EE001AF4
:100E900031EE031A31EE221A11EE100A00F500604D
:100EA0006FF30B0009EE100A39EE621A31EE431AA5
:100EB00031EE400A30EE610A32EE40AA10EE900A9E
:100EC000002100F500606FF30B0008EE900A084661
:100ED00070EEE8AA4FF0000029EE280A00F00C019D
:100EE000F0EEC00A10EE900AB0F18B4F0DDD10EE5F
:100EF000900AB4EB400F08D310EE100A4FF08B426B
:100F000062F31E0008EE900A13E069EE2A0A38EE3A
:100F1000AA1A4AEE010A30EE201A11EE100A00F564
:100F200000606FF30B0008EE900A30EE680A70EE76
:100F3000209A0C204FF0000038EEA90AB5EEC00A46
:100F4000F1EE10FA34BFFEEE000AF6EE000A30EEC3
:100F5000800ABDEEC00A10EE100A011100EE101A50
:100F6000F8EEC00A00EE100AB8EEC00A38EEC00A69
:100F700030EE290ADFED801A9FED801A00EE211A6B
:100F8000DFED7F1A7F4900F00F0040EE011A21EEDD
:100F9000800A794401EB800191ED001A7A49794485
:100FA00001EB8001D1ED001A784901EE801A7944F5
:100FB00001EB8000764990ED000A31EE001AB0EEA8
:100FC000E00A10EE100A884215DA10EE100AB4EBAF
:100FD000400F10D39FED6F0A30EE800ADFED6E0AEE
:100FE00020EE200A68EE010ABDEC068BBCEEC00ABA
:100FF00020EE200A10BD10EE100A6849884243DA3C
:1010000010EE100AB4EB400F3ED3BDEEE00A68EEDE
:10101000010A10EE100A00EBD0725110C90501F15F
:101020007E5100EE101AA0EB6200C00560EE200AAF
:1010300000F17E5000EE100A60EE808A18EE900AF1
:10104000B4EB400F0FD10220FFF782F900F0BEF998
:1010500010EE101A18EE100ABDEC068B61F31E009C
:1010600000EE100A10BD18EE900A400011D018EEE4
:10107000900AFFF74FFE042808BF00F0AFF9B0EE6A
:10108000680ABDEC068B10BDF5EEC00AF1EE10FA51
:101090000FD20220FFF75CF900F0A0F910EE101A51
:1010A00018EE100ABDEC068B61F31E0000EE100A6C
:1010B00010BD0220FFF74CF900F088F910EE101A6D
:1010C000B0EE480A10EE100ABDEC068B61F31E006C
:1010D00000EE100A10BD00BFBCF1804F6CD300BF02
:1010E00000F1FF43B3F1FE4F24D200BFB0EEC00ABF
:1010F00010EE100AC1F3C7537F2B0DDB972BBFF601
:101100003BAEC3F196034FF0010C0CFA03F3A3F1CD
:10111000010C1CEA010F08D00120FFF719F9BDEC02
:10112000068BBDE8104000F049B90B4218BFBFEE76
:10113000008A21E643001CBF4FF08073B3EB400FE1
:1011400034D96FF01A02DFED161A20EE210A10EEE4
:10115000100A27E000000000001080C0ABAAAA3EE1
:101160000000803D7EE24C3E00B03842D49AB8BBCD
:101170003BAA38421C080000FC596337C9FF753A86
:101180001872313DBA070000EE0700005E0700004C
:101190000000FC420000FE420000004B0000404303
:1011A0000000004D10F0004FA0D1E5E5A0F50003D0
:1011B000B3F1FE4F21D2DFE503EB4103B3F1007F32
:1011C00011D3F5EEC00AF1EE10FA05D1430018BFB5
:1011D000B4EB400F76D883E701F0004141F0FC51B9
:1011E00000EE901A7CE7B3F1807F06D210EE903AC1
:1011F000A3F5000300EE903A72E720F000426FF092
:10120000FF4C604C02EB0C03A34210D321F00043CF
:101210009C44A4450BD3B0F17E5F18BF5FEA410C3C
:1012200050D0B2F1FF4F98BFB3F1FF4F05D9BDECDD
:10123000068BBDE8104000F0BDB8B0F1FF4F0FD0F5
:10124000C1F3C7527F2A09DB972A11DAC2F196024D
:10125000012303FA02F2531E0B4205D0002208E0DC
:1012600011F0004F55D128E00A4218BF012200D1E9
:10127000022210F5000F13D028B3B0F1004F26D092
:1012800010F1814F4FD04FF0FE42B2EB400F94BFB0
:1012900001200020012202EBE171884239D10CE0EB
:1012A00011F0004F02D0012A38D032E0012A02BFEB
:1012B0009FED350ABDEC068B10BD9FED340ABDECE9
:1012C000068B10BD2FE011F0004F0CD121E0B1F1E1
:1012D000FF4F1ED011F5000F05D011F0004F15D0B3
:1012E0000AB1012A08D00220FFF732F8BDEC068BC4
:1012F000BDE8104000F054B80220FFF729F800F0D4
:101300004FF8BDEC068BB1EE400A10BD0AB1012AC0
:1013100004D0B0EE690ABDEC068B10BDBDEC068BA7
:101320009FED1B0A10BDBDEC068BB7EE000A10BD89
:1013300030EE410AB5EE001A9FED172A00EE413A51
:10134000B6EE001A60EE001A00EE431A61EEC11A02
:101350009FED101A20EE011A20EE020A9FED0F2ACF
:1013600001EE820A71EE001A11EE900A00F500609B
:101370006FF30B0009EE100A31EE491A31EE00AAA4
:101380009CE50000FFFF3F00000080FF0000807F21
:101390000000008000B0B841D49A38BB3BAAB841E5
:1013A000DFED030AB7EE001A81EE200A7047000055
:1013B0000000000030EE200A70470000DFED020A56
:1013C00080EEA00A70470000000000009FED020AB6
:1013D00020EE000A70470000000000709FED020A36
:1013E00020EE000A70470000000000103EB50C20FF
:1013F000FFF77CFC04460220012100220623CDE9F0
:10140000002102900A4643212046FFF789FA04464C
:10141000714804600C20FFF769FC0446022001219A
:1014200000220523CDE9002102900A4643212046EF
:10143000FFF776FA0446694804600C20FFF756FC73
:1014400004460220012100220423CDE9002102905C
:101450000A4643212046FFF763FA044660480460C9
:101460000C20FFF743FC0446022001210022052343
:10147000CDE9002102900A4646212046FFF750FAA6
:101480000446584804600C20FFF730FC0446022054
:10149000012100220B23CDE9002102900A464321BD
:1014A0002046FFF73DFA04464F4804600C20FFF742
:1014B0001DFC04460220012100220346CDE9002143
:1014C00002900A4644212046FFF72AFA044647487C
:1014D00004600C20FFF70AFC0446022001210022D0
:1014E0000A23CDE9002102900A4643212046FFF756
:1014F00017FA04463E4804600C20FFF7F7FB044649
:101500000220012100220C23CDE9002102900A468D
:1015100043212046FFF704FA0446364804600C20B5
:10152000FFF7E4FB04460220012100220423CDE959
:10153000002102900A4646212046FFF7F1F90446B1
:101540002D4804600C20FFF7D1FB04460220012146
:1015500000220623CDE9002102900A4646212046BA
:10156000FFF7DEF90446254804600C20FFF7BEFBB8
:1015700004460220012100220723CDE90021029028
:101580000A4646212046FFF7CBF904461C48046072
:10159000114800681B4908601048006848601048FE
:1015A000006888600F480068C8600F4800681649E6
:1015B00008600E48006848600D48006888600D4863
:1015C0000068C8600C48006808610C480068486101
:1015D0000B48006888613EBD000001200400012026
:1015E000080001200C00012010000120140001203F
:1015F000180001201C0001202000012024000120EF
:10160000280001202C0001203C0001202DED028B40
:1016100082B012274FF079080097CDF804802EE0B1
:1016200000242AE02046FFF775F8002522E0B0EEFE
:10163000008A00EE104AF8EEC08AF0EE680AB0EEBA
:10164000480AFFF77BFBBDEEC00A10EE106A5DF89A
:1016500024003040B04206D1094951F8250000214C
:10166000FFF770F805E0064951F825000121FFF762
:1016700069F86D1C072DDADB641C022CD2DBCFE786
:101680003C0001204FF04070E1EE100A704700006E
:1016900000000000000000000000B33FB2BE7D3A31
:1016A00000002E40DFCF513800007E40BF51FABA13
:1016B00000E0A44019DAC3BA00E0C840C2ED8AB91C
:1016C0000040EB40CD1F2CBA001006412AFFFABAA9
:1016D00000C01541DFCFD13700D024419A97703A2E
:1016E0000050334189478E3600404141E75B9D38C9
:1016F00000B04E41C00A98B900A05B41558F943AA2
:1017000000306841DA92C0BA0040744162B3C63A10
:101710000000803F00A0853F00908B3F00C0913FBC
:101720000030983F00F09E3F00F0A53F0050AD3FD5
:101730000000B53F0000BD3F0060C53F0020CE3F28
:101740000040D73F00C0E03F00C0EA3F0020F53F27
:10175000000000007D36AC397D3C3839EBDCF438D4
:10176000320A7E39124C26399B6AED39A4EE833950
:101770007F661E39F6398A392B426539A4821139C0
:101780005B991F39C3EECD39DDE7C637A5A22F39E6
:101790000000803FC3AA853FC2958B3FD3C3913FD2
:1017A000F037983F32F59E3FD7FEA53F3F58AD3FFB
:1017B000F304B53FA408BD3F2A67C53F8C24CE3F44
:1017C000FD44D73FDFCCE03FC7C0EA3F7D25F53F72
:1017D000F4170008000001202C000000040200089B
:1017E000201800082C0001208C06000020020008B0
:1017F000FDFBFFFF000000000000000000000000F3
:1018000000000000000000000000000000000000D8
:1018100000000000000000000000000000000000C8
:040000050800027578
:00000001FF
