:100000000D308A00BA2D00000A108A100A118207EA
:1000100028340C34013406340C1E2010CC2ACD2296
:10002000CE293A10201020052010A01233173233A9
:1000300020003B3084008313000803192D28013071
:10004000F800F701F70B2228F80B21284A30F700B7
:10005000F70B28282B28800B1F280800420EF039A8
:10006000F7000F30080577048800000008143828CE
:10007000081008000808F700080E0F39F8000800FB
:1000800088100F3083160805F03888008312081591
:100090000000081400003A207808C2000810000090
:1000A000081400003A207808C10008100F308316A9
:1000B000080588008312420EF700F030F705770834
:1000C0004104F8007808C100C11B41283F1C88107A
:1000D0003F1888140000081100000810400EC100ED
:1000E0000F30C1054108C2002E2040080F39C10061
:1000F000C2002E2008000F30831608058800081063
:100100008810081183128810081108100F30BB00E6
:1001100019200130AD002D08033C031C9728033043
:10012000C2002E200530BB001920AD0A8B280230FA
:10013000C2002E20AD012D08033C031CA8282D0869
:100140000420AE00BF012E08C0004020AD0A9B284D
:100150008A150A12CA2D8E30F7006208F80061086D
:10016000F900FA01F808031DBF287908F800F90121
:100170000830F702F808031DBF28F701C72803104D
:10018000F81BC628F90DF80DF703BF28F81308006F
:100190005D0803198D29E900610803198D29E90219
:1001A000031CD7287F30E90703188D29DD2881300B
:1001B000E902031C8D2903198D296908F700F8014C
:1001C000F901FA01E8015E08E700E7175F08E600B9
:1001D0006008E5001930E9006408E5020318002909
:1001E0000130E60203180029E70203180029E8029B
:1001F00003180029E80AE70AE60A6408E507322935
:100200006308E60203181B290130E70203181B29C3
:10021000E80203181B29E80AE70A6308E6076408EE
:10022000E507031C3229E60A031D3229E70A031DEC
:100230003229E80A322962088038E7020318312996
:100240000130E80203183129E80A62088038E7071C
:100250006308E607031C0F29E70A031D0F29E80AB4
:100260000F297A14E90B352940290310E50DE60D15
:10027000E70DE80D0310FA0DF90DF80DEA0DEC2865
:100280006A1C48290310F80CF90CFA0CEA0C4B29EB
:10029000F70303198D29EA1B74290310E50DE60DF8
:1002A000E70DE80D6408E502031860290130E60255
:1002B00003186029E70203186029E802031C832958
:1002C0006308E60203186B290130E70203186B2963
:1002D000E802031C832962088038E70203187429A6
:1002E0000130E802031C8329FA0A031D8329F90A55
:1002F000031D8329F80A031D8329F70A03198D2991
:10030000F80CF90CFA0C5E08E9006208E906E91F2E
:100310008B29F8179129F8139129F701F801F901B0
:10032000FA0108005D080319022AE50061080319B3
:10033000022AE5070318A3297F30E502031C022ADD
:100340000319022AA7298130E5070318022A650844
:10035000F700F801F901FA015E08E900E9175F0802
:10036000E8006008E7001830E500E601671CD029C6
:100370006408FA07031CC229F90A031DC229F80AF6
:100380000319E6176308F907031CC929F80A0319BA
:10039000E6176208DF00DF175F08F8070318E617A3
:1003A000E60DF80CF90CFA0CE90CE80CE70C03105C
:1003B000E50BB5290130F7070318022AF81BE729D6
:1003C000E90DFA0DF90DF80DF7030319022AE91FDB
:1003D000F829FA0A031DF829F90A031DF829F80A71
:1003E000031DF829F80CF90CFA0CF70A0319022A74
:1003F0005E08E6006208E606E61F002AF817062AED
:10040000F813062AF701F801F901FA0108005E085D
:10041000E5006208E506E51F122A03110310DE1B42
:100420000314452A5E08E5006108E6005D08E6025F
:100430000319202AE51F452A0308013A8300452AAB
:100440006208E6005E08E60203192C2AE51F452A29
:100450000308013A8300452A6308E6005F08E602C4
:100460000319382AE51F452A0308013A8300452A63
:100470006408E6006008E6020319442AE51F452ADD
:100480000308013A8300452A031008008E30F70064
:100490005D08F7025E08F9005F08F800F917F70831
:1004A00003195D2A0310F908031D592AF8080319D6
:1004B0005D2AF90CF80CF70B522ADE1F642AF809A2
:1004C000F909F80A0319F90A080080308318E606CA
:1004D000EB01EC016208EA006608EA06610803190C
:1004E000552BE900F700650803195E2BE902031993
:1004F000FA2A031CB82A6608EF00EF176708EE0017
:100500006808ED00EC010310EF0CEE0CED0CEC0CA8
:10051000E90B822AEA1F8F2A6B14722B6B10691069
:100520006B16643084008313872B6B12EA1BA22A9C
:10053000691CAD2AEF0CEE0CED0CEC0CF70A03195C
:100540006D2BAD2AEF1BB02A0310EC0DED0DEE0D57
:10055000EF0DF70303196D2BA22A6B171A2B6B13E0
:100560006208EA00EA1FB62AEF17662BEF13662B24
:100570006508E900F7006108E9026208EF00EF177B
:100580006308EE006408ED00EC010310EF0CEE0CC4
:10059000ED0CEC0CE90BC42AEA1FD12AEB14722BE8
:1005A000EB106910EB16683084008313872BEB1275
:1005B000EA1BE42A691CEF2AEF0CEE0CED0CEC0CA4
:1005C000F70A03196D2BEF2AEF1BF22A0310EC0D2B
:1005D000ED0DEE0DEF0DF70303196D2BE42AEB176C
:1005E0001A2BEB136608EA00EA1FF82AEF17662BAE
:1005F000EF13662B6608EF00EF176708EE00680838
:10060000ED00EA1F072BEF136B15722B6B11EC013A
:100610006910643084008313872BEA1B302B620837
:10062000EA00691C1A2BEF0CEE0CED0CEC0CF70A2F
:1006300003196D2BEC1F2B2BED0A031D2B2BEE0A40
:10064000031D2B2BEF0A031D2B2BEF0CEE0CED0CD7
:10065000F70A03196D2B6B1BAF2AEB1BF12A4F2BEB
:100660008030EF06EF1F382B722B6608EA00452B0F
:100670006208EA00EF08031D452BEE08031D452B19
:10068000ED08031D452BF701662BEF1B4F2B0310C5
:10069000EC0DED0DEE0DEF0DF70B452B6D2BEA1F5D
:1006A000532BEF17662BEF13662B6508F7006608D0
:1006B000EF006708EE006808ED00662B6108F700A0
:1006C0006208EF006308EE006408ED006F08F800B0
:1006D0006E08F9006D08FA00A52BF701F801F90181
:1006E000FA01A52BEC01ED09EE09EF09EC09EC0A82
:1006F000031D802BED0A031D802BEE0A0319EF0A60
:100700006B188E2AEB18D02A6B19062B352B000894
:10071000ED07031C912BEE0A031D912BEF0A031921
:10072000691484030008EE07031C992BEF0A0319D0
:10073000691484030008801F803AEF0703186914C6
:100740006B1A952AEB1AD72A0D2B08005C1050085B
:10075000D5004F08D4004E08D3004D08D2005008F1
:10076000E0004F08DF004E08DE004D08DD00E40128
:10077000E301E201E1010722031CC22B5C145308D0
:10078000803AD3005508E0005408DF005308DE002B
:100790005208DD00E401E301E2018E30E1000722AE
:1007A0000318D42B031DEB2B5508E0005408DF0081
:1007B0005308DE005208DD0046227908E20078087E
:1007C000E100AB207A08D9007908D8007808D70072
:1007D0007708D600A82C5508E0005408DF0053081D
:1007E000DE005208DD008030E4009630E30018306F
:1007F000E2009630E1000722031CA02C5508E0001F
:100800005408DF005308DE005208DD00E401E30174
:10081000E2018E30E100C8207A08E0007908DF00AC
:100820007808DE007708DD0046227908DB007808CA
:10083000DA005508E0005408DF005308DE005208D3
:10084000DD00E401E301E2018E30E100C820770819
:10085000DD007808DE007908DF007A08E0005B0838
:10086000E2005A08E100AB2083146008E4005F084E
:10087000E3005E08E2005D08E1007A08E80079081C
:10088000E7007808E6007708E5006522E001DF016F
:10089000DE018E30DD007A08E4007908E300780894
:1008A000E2007708E10092217A08D5007908D400A7
:1008B0007808D3007708D2005B08E2005A08E1000C
:1008C000AB20E001DF01DE018E30DD007A08E400BC
:1008D0007908E3007808E2007708E10092217A08BD
:1008E000D9007908D8007808D7007708D6005508CD
:1008F000E0005408DF005308DE005208DD00462205
:100900007908E2007808E100AB2083105908E40080
:100910005808E3005708E2005608E1007A08E800AA
:100920007908E7007808E6007708E50065227A088C
:10093000D9007908D8007808D7007708D600A82C05
:100940005508D9005408D8005308D7005208D600DB
:100950005508E0005408DF005308DE005208DD00AF
:1009600046227908E2007808E100AB20831455089C
:10097000E4005408E3005308E2005208E1007A085A
:10098000E8007908E7007808E6007708E5006522C6
:100990007A08D5007908D4007808D3007708D20007
:1009A0005C1CD52C5708803AD7005508E000540845
:1009B000DF005308DE005208DD00E401E301E2013C
:1009C000E101072203191B2D5C1C002DD108031D1A
:1009D000002D83145908E4005808E3005708E2008A
:1009E0005608E100E801E701E6017F30E5006522F5
:1009F0007A08D9007908D8007808D7007708D60097
:100A00005C181B2D510B1B2D83105908E40058084E
:100A1000E3005708E2005608E100E801E701E601BB
:100A20007F30E50065227A08D9007908D800780877
:100A3000D7007708D6005008E0004F08DF004E08C6
:100A4000DE004D08DD00E401E301E201E1010722DF
:100A5000031D2E2DD901D801D701D6015608F70064
:100A60005708F8005808F9005908FA00080040082B
:100A7000E0003F08DF003E08DE003D08DD00E40145
:100A8000E301E201E10107220319F32D3C08E00034
:100A90003B08DF003A08DE003908DD004008E400CA
:100AA0003F08E3003E08E2003D08E100C820770867
:100AB000C5007808C6007908C7007A08C800480849
:100AC000E0004708DF004608DE004508DD00E401DD
:100AD000E301E201E1010722031C9B2D3C08E00039
:100AE0003B08DF003A08DE003908DD004008E4007A
:100AF0003F08E3003E08E2003D08E100C820770817
:100B0000C5007808C6007908C7007A08C8004808F8
:100B1000CC004708CB004608CA004508C9004C086D
:100B2000D0004B08CF004A08CE004908CD00013064
:100B3000D100A623C62D3C08E0003B08DF003A08A0
:100B4000DE003908DD004008E4003F08E3003E080D
:100B5000E2003D08E100C8207708C5007808C6001B
:100B60007908C7007A08C8004808CC004708CB00BD
:100B70004608CA004508C9004C08D0004B08CF0001
:100B80004A08CE004908CD00D101A6237A08C40046
:100B90007908C3007808C2007708C1004408E00063
:100BA0004308DF004208DE004108DD004008E400A1
:100BB0003F08E3003E08E2003D08E1009221831473
:100BC0003C08E4003B08E3003A08E2003908E10091
:100BD0007A08E8007908E7007808E6007708E50079
:100BE0006522F32DF32D08008E30F7005408F8002D
:100BF0005308F900FA01D41F022EF809F909F90A7D
:100C00000319F80AF808031D0F2E7908F800F901F6
:100C10000830F702F808031D0F2EF701182E0310F5
:100C2000F81B162EF90DF80DF7030F2ED41FF8132D
:100C300008003408E0003308DF003208DE00310825
:100C4000DD00E401E301E201E1010722031CF02ED3
:100C50003808BC003708BB003608BA003508B900B0
:100C6000C001BF01BE017F30BD0037257708B90044
:100C70007808BA007908BB007A08BC00E0003B089D
:100C8000DF003A08DE003908DD00E401E301E2019B
:100C9000E1010722031DF02E3808BC003708BB0015
:100CA0003608BA003508B900C001BF01BE01803066
:100CB000BD0037257708B9007808BA007908BB006D
:100CC0007A08BC00E0003B08DF003A08DE00390883
:100CD000DD00E401E301E201E1010722031DAF2E83
:100CE0003108B9003208803ABA003308BB00340832
:100CF000BC00C0003B08BF003A08BE003908BD0078
:100D00008A1500208A117708B9007808BA00790896
:100D1000BB007A08BC00E0003B08DF003A08DE00B8
:100D20003908DD003808E4003708E3003608E2003F
:100D30003508E10092217708B9007808BA007908EF
:100D4000BB007A08BC00C0003B08BF003A08BE00E8
:100D50003908BD008A156C228A117F2FEF2E3108C9
:100D6000B9003208803ABA003308BB003408BC002E
:100D7000C0003B08BF003A08BE003908BD008A1514
:100D800000208A117708B9007808BA007908BB00FA
:100D90007A08BC00E0003B08DF003A08DE003908B2
:100DA000DD003808E4003708E3003608E2003508C3
:100DB000E10092217708B9007808BA007908BB00F1
:100DC0007A08BC00C0003B08BF003A08BE003908E2
:100DD000BD008A156C228A118030F8067F2F7F2F84
:100DE0003408E0003308DF003208DE003108DD009F
:100DF000E401E301E201E1010722031C292F380885
:100E0000BC003708BB003608BA003508B900C0017D
:100E1000BF01BE017F30BD0037257708B9007808D3
:100E2000BA007908BB007A08BC00E0003B08DF008C
:100E30003A08DE003908DD00E401E301E201E101E6
:100E400007220319292FF701F801F901FA017F2F71
:100E50007F2F3408E0003308DF003208DE0031085D
:100E6000DD00E401E301E201E1010722031D492F56
:100E70003808E0003708DF003608DE003508DD00FE
:100E8000E401E301E201E10107220318492F031DF8
:100E90007F2F3408C0003308BF003208BE0031087D
:100EA000BD008A1500208A117708B9007808BA00B9
:100EB0007908BB007A08BC00E0003B08DF003A0874
:100EC000DE003908DD003808E4003708E3003608A2
:100ED000E2003508E10092217708B9007808BA00ED
:100EE0007908BB007A08BC00C0003B08BF003A0884
:100EF000BE003908BD008A156C228A117F2F8A1521
:100F00000A123F2E3C0B852F882F4030BD00892FC1
:100F1000BD0101303B02BD073D088038BE00BF0166
:100F20003E08C000402008003A080C3A03199F2FE1
:100F3000063A0319A72F023A0319AD2FB22FBF01AA
:100F40000130C00040200230BB001920B82F013012
:100F5000BB000230BC008227B82FBF011030C00098
:100F60004020B82F0130BF003A08C0004020B82F01
:100F70000800F701F801F901FA01C201C301C40137
:100F8000C501410840043F043E040319F72F2030F7
:100F9000C6000310BA0DBB0DBC0DBD0DC20DC30DB7
:100FA000C40DC50D41084502031DE02F4008440251
:100FB000031DE02F3F084302031DE02F3E084202BD
:100FC000031CF12F3E08C2023F08031C3F0FC3025F
:100FD0004008031C400FC4024108031C410FC50216
:100FE0000314F70DF80DF90DFA0DC60BC92F423099
:060FF000840083130800D9
:101000004008C4003F08C3003E08C2003D08C100BC
:101010004408E0004308DF004208DE004108DD002C
:10102000E401E301E2017F30E1008A1107228A1521
:1010300003195F2AD3014130D20052088400831380
:10104000531883177E30800083144408E40043085B
:10105000E3004208E2004108E100E801E701E6019F
:101060007F30E5008A1165228A157708D20078085A
:10107000D3007908D4007A08D50083104408E4002E
:101080004308E3004208E2004108E100E801E7010B
:10109000E6017F30E5008A1165228A155508E000D7
:1010A0005408DF005308DE005208DD007A08E4002F
:1010B0007908E3007808E2007708E1008A11C82087
:1010C0008A157A08C4007908C3007808C200770836
:1010D000C1004408E0004308DF004208DE00410888
:1010E000DD004408E4004308E3004208E200410850
:1010F000E1008A1192218A157A08D0007908CF0080
:101100007808CE007708CD00BC30E0002430DF0046
:101110006730DE007D30DD005008E4004F08E3005A
:101120004E08E2004D08E1008A1192218A157708E5
:10113000D2007808D3007908D4007A08D50083104B
:101140005508E4005408E3005308E2005208E100A7
:10115000E330E800E430E7009030E6008230E5005C
:101160008A1165228A157A08C8007908C7007808AC
:10117000C6007708C5004808E0004708DF004608B9
:10118000DE004508DD005008E4004F08E3004E088B
:10119000E2004D08E1008A1192218A157708D200F9
:1011A0007808D3007908D4007A08D5008310550850
:1011B000E4005408E3005308E2005208E1001C3048
:1011C000E8008730E7005730E6008330E5008A11F9
:1011D00065228A157A08C8007908C7007808C60011
:1011E0007708C5004808E0004708DF004608DE0031
:1011F0004508DD005008E4004F08E3004E08E20017
:101200004D08E1008A1192218A157708D2007808EA
:10121000D3007908D4007A08D50083105508E4007B
:101220005408E3005308E2005208E100AB30E80044
:10123000E130E7009E30E6008330E5008A11652248
:101240008A157A08C8007908C7007808C6007708A8
:10125000C500E001DF01DE017F30DD005008E40061
:101260004F08E3004E08E2004D08E1008A11922188
:101270008A157708D2007808D3007908D4007A0854
:10128000D50083105508E4005408E3005308E20039
:101290005208E100B430E8002A30E7008230E6006E
:1012A000E5008A1165228A157A08CC007908CB00FE
:1012B0007808CA007708C9004C08E0004B08DF0036
:1012C0004A08DE004908DD005008E4004F08E3004A
:1012D0004E08E2004D08E1008A1192218A15770834
:1012E000D2007808D3007908D4007A08D50083109A
:1012F0005508E4005408E3005308E2005208E100F6
:101300008030E8003E30E7000630E6008330E5003C
:101310008A1165228A157A08CC007908CB007808F2
:10132000CA007708C9004C08E0004B08DF004A08F3
:10133000DE004908DD005008E4004F08E3004E08D5
:10134000E2004D08E1008A1192218A157708D20047
:101350007808D3007908D4007A08D500831055089E
:10136000E4005408E3005308E2005208E100AB3007
:10137000E800E130E7009E30E6008230E5008A11A7
:1013800065228A157A08CC007908CB007808CA0053
:101390007708C9004408E0004308DF004208DE0087
:1013A0004108DD004808E4004708E3004608E20081
:1013B0004508E1008A1192218A157708D200780841
:1013C000D3007908D4007A08D500E0005408DF0083
:1013D0005308DE005208DD004C08E4004B08E3002F
:1013E0004A08E2004908E1008A11C8208A157A08F3
:1013F000C8007908C7007808C6007708C500D3017F
:101400003D30D200520884008313531883177E3076
:101410000002D100D11F1F2A5108003CD401D30083
:10142000D31BD4038A11F4258A157708C9007808DC
:10143000803ACA007908CB007A08CC002F2AD40160
:101440005108D300D31BD4038A11F4258A157A08D6
:10145000CC007908CB007808CA007708C9004C088E
:10146000E0004B08DF004A08DE004908DD001830C4
:10147000E4007230E3003130E2007E30E1008A1196
:1014800092218A1583104808E4004708E3004608C3
:10149000E2004508E1007A08E8007908E7007808EA
:1014A000E6007708E5008A1165228A157A08C800E7
:1014B0007908C7007808C6007708C500632AC80104
:1014C000C701C601C5014508F7004608F8004708EE
:1014D000F9004808FA0008004008E0003F08DF0073
:1014E0003E08DE003D08DD001830E4007230E30005
:1014F0003130E2007E30E1008A11C8208A157A0876
:10150000E0007908DF007808DE007708DD008A1146
:1015100046228A157808CD004E104008C4003F08C6
:10152000C3003E08C2003D08C1004008E0003F087B
:10153000DF003E08DE003D08DD00E401E301E201DA
:10154000E1018A1107228A15031CAC2A4E14CD0929
:10155000CD0A4208803AC200C801C701C601C501D0
:10156000D0014530CF004F088400831350188317F3
:101570007F304D0780004408E0004308DF00420848
:10158000DE004108DD001830E4007230E300313045
:10159000E2007E30E1008A11C8208A157708CF006A
:1015A0007808D0007908D1007A08D200D4014D081B
:1015B000D300D31BD4038A11F4258A15831452084F
:1015C000E4005108E3005008E2004F08E1007A0807
:1015D000E8007908E7007808E6007708E5008A1156
:1015E00065228A157A08C4007908C3007808C20009
:1015F0007708C1007C30E0008830DF005930DE0021
:101600007230DD004408E4004308E3004208E200D1
:101610004108E1008A1192218A157708CF007808E5
:10162000D0007908D1007A08D20083107A08E4004B
:101630007908E3007808E2007708E100E030E8008C
:101640009730E7002630E6007530E5008A11652204
:101650008A157A08CC007908CB007808CA00770888
:10166000C9004C08E0004B08DF004A08DE004908CA
:10167000DD004408E4004308E3004208E2004108BA
:10168000E1008A1192218A157708CF007808D000EE
:101690007908D1007A08D20083107A08E40079082A
:1016A000E3007808E2007708E100C430E8001D306C
:1016B000E7001E30E6007830E5008A1165228A15C1
:1016C0007A08CC007908CB007808CA007708C900EE
:1016D0004C08E0004B08DF004A08DE004908DD0046
:1016E0004408E4004308E3004208E2004108E10046
:1016F0008A1192218A157708CF007808D0007908DE
:10170000D1007A08D20083107A08E4007908E30057
:101710007808E2007708E1005E30E8005030E7002A
:101720006330E6007A30E5008A1165228A157A086E
:10173000CC007908CB007808CA007708C9004C08AB
:10174000E0004B08DF004A08DE004908DD004408DD
:10175000E4004308E3004208E2004108E1008A1186
:1017600092218A157708CF007808D0007908D10037
:101770007A08D20083107A08E4007908E300780838
:10178000E2007708E1001A30E800FE30E70075302B
:10179000E6007C30E5008A1165228A157A08CC00C3
:1017A0007908CB007808CA007708C9004C08E00027
:1017B0004B08DF004A08DE004908DD004408E40069
:1017C0004308E3004208E2004108E1008A11922147
:1017D0008A157708CF007808D0007908D1007A08F8
:1017E000D20083107A08E4007908E3007808E20068
:1017F0007708E1001830E8007230E7003130E60089
:101800007E30E5008A1165228A157A08CC007908B5
:10181000CB007808CA007708C9004408E0004308F4
:10182000DF004208DE004108DD004C08E4004B0800
:10183000E3004A08E2004908E1008A1192218A1572
:101840008310E401E301E2017F30E1007A08E8005F
:101850007908E7007808E6007708E5008A11652234
:101860008A154808E0004708DF004608DE00450802
:10187000DD007A08E4007908E3007808E2007708E0
:10188000E1008A1192218A157A08C8007908C700F8
:101890007808C6007708C5004E1C662CE001DF0101
:1018A000DE017F30DD004808E4004708E300460819
:1018B000E2004508E1008A11C8208A157A08C800AC
:1018C0007908C7007808C6007708C5004508F70002
:1018D0004608F8004708F9004808FA00080083168F
:1018E00003178C170C14000000000318A02C83129F
:1018F0000C087F390313AE0003170D080313AF0064
:1019000003170F080313B0002E08BA008A1194279A
:101910008A152F0803178D000313300803178F0053
:1019200083168C170C140000000083120313AD0BF8
:101930009A2C9D2C83160317A02CC02C83160317FA
:1019400083120C0D0E0D7F390313AE0003170D0823
:101950000313AF0003170F080313B0002E08BA00DB
:101960008A1194278A152F0803178D000313300856
:1019700003178F008D0A03198F0A0313AD0B6F2C09
:101980008A150A12752E0408B2003108B400031932
:10199000E42C3008E0002F08DF002E08DE002D08C0
:1019A000DD00E401E3012030E2008230E1008A1131
:1019B00092218A157A08B0007908AF007808AE0045
:1019C0007708AD00B40BC92C3008BD002F08BC004F
:1019D0002E08BB002D08BA003A08B63CBA00FA013E
:1019E0003B08BE00BB170310BB0CBC0CBD0CFA0CB3
:1019F000F90CF80CF70CBA0BF32CBE1F0A2DF709E3
:101A0000F809F909FA09F70A0319F80A0319F90A92
:101A10000319FA0A7A08B0007908AF007808AE0016
:101A20007708AD00B01F212DB203B216AD09AE0983
:101A3000AF09B009AD0A0319AE0A0319AF0A0319B9
:101A4000B00A3B30B9009A30B800CA30B700B601CE
:101A50000A30B40031080319B20A3008BD002F085B
:101A6000BC002E08BB002D08BA003908C100380898
:101A7000C0003708BF003608BE008A11B9278A1592
:101A80000008AD00840A0008AE00840A0008AF0018
:101A9000840A0008B000FD308407F708031D632D99
:101AA000310A34020319632D32080319652D0F39E9
:101AB000340203195D2D03189D2DB21B9D2D321B81
:101AC000652D2030972D2030B205B21E752DB21233
:101AD0003108031DB2037708B2002D30BA008A1115
:101AE00094278A153208F700B20131083402031D29
:101AF000852D7708B2002E30BA008A1194278A15F6
:101B00003208F7002030B20500303030B21E972D79
:101B1000B2123108031DB2037708B2002D30BA00AB
:101B20008A1194278A153208F700B2013030F7077E
:101B30007708BA008A1194278A153908BD00380839
:101B4000BC003708BB003608BA00C101C001BF01A4
:101B50000A30BE008A11B9278A157A08B9007908B7
:101B6000B8007808B7007708B600B40B2D2D8A1599
:101B70000A12822E840183131F30830583161F14DB
:101B80009F141F159F1107309C00003088008A1198
:101B900083127B288A1583161F109F141F159F150B
:101BA0001F1783121F179F1383169F1383121F146F
:101BB0006430BB008A1119208A151F151F19DE2DEC
:101BC0001E08E201E1008A11AB208A157A08E000C4
:101BD0007908DF007808DE007708DD00A730E40030
:101BE0001430E3004D30E2008430E1008A11C82057
:101BF0008A157A08A4007908A3007808A20077085B
:101C0000A1006630E000DC30DF000A30DE009630F4
:101C1000DD002408E4002308E3002208E200210894
:101C2000E1008A1192218A15E001B230DF0009300B
:101C3000DE009130DD007A08E4007908E3007808DE
:101C4000E2007708E1008A11C8208A157708AD0004
:101C50007808AE007908AF007A08B000B4007908BF
:101C6000B3007808B2007708B1002F30B800BA305E
:101C7000B700E830B6007E30B5008A11192E8A15FB
:101C80007A08A8007908A7007808A6007708A500B8
:101C900083102808E4002708E3002608E20025084E
:101CA000E100E130E8007A30E7001430E6007D30F2
:101CB000E5008A1165228A157A08AC007908AB0024
:101CC0007808AA007708A9000130BB000230BC00E8
:101CD0008A1182278A150C3003178D0000308F007F
:101CE000031013300313AD006F2C023084002C0856
:101CF000B0002B08AF002A08AE002908AD00023062
:101D0000B100C32C2030BA008A1194278A15D82D2F
:021D100063006E
:02400E00723FFF
:00000001FF
;PIC16F877A
;CRC=DBA4  CREATED="01-sept.-19 23:40"
