:100000000C949E000C94C6000C94C6000C94C60080
:100010000C94C6000C94C6000C94C6000C94C60048
:100020000C94C6000C94C6000C94C6000C94C60038
:100030000C94C6000C94C6000C94C6000C94C60028
:100040000C941E060C94C6000C94EC050C94C6058A
:100050000C94C6000C94C6000C94C6000C94C60008
:100060000C94C6000C94C60007634236B79BD8A711
:100070001A39685618AEBAAB558C1D3CB7CC5763CD
:10008000BD6DEDFD753EF6177231BF000000803F7B
:1000900008000000BE922449123EABAAAA2ABECD97
:1000A000CCCC4C3E00000080BEABAAAAAA3E000009
:1000B0000000BF000000803F000000000008417801
:1000C000D3BB4387D1133D190E3CC3BD4282AD2B38
:1000D0003E68EC8276BED98FE1A93E4C80EFFFBE30
:1000E00001C4FF7F3F000000000000000008000284
:1000F00001000003040700000000000000000000F1
:100100000000250028002B0000000000240027002C
:100110002A00040404040404040402020202020289
:1001200003030303030301020408102040800102BB
:1001300004081020010204081020680611241FBEC4
:10014000CFEFD8E0DEBFCDBF11E0A0E0B1E0E0E34B
:10015000F9E102C005900D92A035B107D9F722E070
:10016000A0E5B1E001C01D92AA32B207E1F710E0AC
:10017000CEE9D0E004C02197FE010E94900CCD3959
:10018000D107C9F70E94B2060C94960C0C9400009B
:1001900090E0FC01EA5DFE4F24918E5E9E4FFC01D3
:1001A0008491882399F090E0880F991FFC01E85F03
:1001B000FE4FA591B491FC01E250FF4F85919491BF
:1001C0008FB7F894EC91E22BEC938FBF0895AF9228
:1001D000BF92CF92DF92EF92FF920F931F93CF9334
:1001E000DF936C017B018B01040F151FEB015E0196
:1001F000AE18BF08C017D10759F06991D601ED912B
:10020000FC910190F081E02DC6010995892B79F7C9
:10021000C501DF91CF911F910F91FF90EF90DF907B
:10022000CF90BF90AF900895FC01538D448D252F42
:1002300030E0842F90E0821B930B541710F0CF9680
:10024000089501970895FC01918D828D981761F0B2
:10025000A28DAE0FBF2FB11D5D968C91928D9F5FC9
:100260009F73928F90E008958FEF9FEF0895FC01A8
:10027000918D828D981731F0828DE80FF11D858D5B
:1002800090E008958FEF9FEF0895FC01918D228DEE
:10029000892F90E0805C9F4F821B91098F73992773
:1002A000089585E791E00E94450121E0892B09F43A
:1002B00020E0822F089580E090E0892B29F00E94B1
:1002C000510181110C9400000895FC01A48DA80F28
:1002D000B92FB11DA35ABF4F2C91848D90E0019688
:1002E0008F739927848FA689B7892C93A089B189A8
:1002F0008C91837080648C93938D848D981306C049
:100300000288F389E02D80818F7D80830895EF92AC
:10031000FF920F931F93CF93DF93EC0181E0888FBF
:100320009B8D8C8D98131AC0E889F989808185FF8F
:1003300015C09FB7F894EE89FF896083E889F98931
:1003400080818370806480839FBF81E090E0DF9133
:10035000CF911F910F91FF90EF900895F62E0B8D86
:1003600010E00F5F1F4F0F731127E02E8C8D8E1141
:100370000CC00FB607FCFACFE889F989808185FFA8
:10038000F5CFCE010E946501F1CFEB8DEC0FFD2F73
:10039000F11DE35AFF4FF0829FB7F8940B8FEA8963
:1003A000FB8980818062CFCFCF93DF93EC01888D72
:1003B0008823B9F0AA89BB89E889F9898C9185FDE0
:1003C00003C0808186FD0DC00FB607FCF7CF8C916E
:1003D00085FFF2CF808185FFEDCFCE010E946501C0
:1003E000E9CFDF91CF91089590E0FC01E651FF4FF6
:1003F0002491FC01EA5DFE4F3491FC01EE5EFE4F5C
:10040000E491EE23C9F0222339F0233001F1A8F45E
:10041000213019F1223029F1F0E0EE0FFF1FE250F8
:10042000FF4FA591B4918FB7F894EC91611126C05C
:1004300030953E233C938FBF08952730A9F0283094
:10044000C9F0243049F7809180008F7D03C08091EE
:1004500080008F7780938000DFCF84B58F7784BD55
:10046000DBCF84B58F7DFBCF8091B0008F778093F9
:10047000B000D2CF8091B0008F7DF9CF3E2BDACF84
:10048000E82FF0E0E651FF4FE491E33029F150F41A
:10049000E130C1F0E230D9F060387105BCF560E0C0
:1004A0000C94F401E73011F1E83041F1E430A1F7A8
:1004B0008091800080628093800070938B006093B5
:1004C0008A00089584B5806884BD67BD089584B5A9
:1004D000806284BD68BD08958091800080688093AB
:1004E0008000709389006093880008958091B00027
:1004F00080688093B0006093B30008958091B0004D
:1005000080628093B0006093B400089561E0C8CF2A
:100510008E50806480937C0080917A008064809308
:100520007A0080917A0086FDFCCF809178009091CE
:1005300079000895089590E080E008958F929F9249
:10054000AF92BF92CF92DF92EF92FF92CF93DF9361
:100550008EE00E9488028FE00E948802BC01990F01
:10056000880B990B0E9475096B017C01C0925001A8
:10057000D0925101E0925201F092530180E10E9429
:100580008802EC012EED3CE04DE45DE3C701B601CD
:100590000E942A0A27EA33E648EC51E40E945908EF
:1005A0002CEB34E743E95CE30E945A084B015C0101
:1005B000BE01DD0F880B990B0E9475092FEA32E905
:1005C00045ED5BE30E942A0A24E43FEF40E85AE34A
:1005D0000E9459086B017C01AC019B01C501B4016B
:1005E0000E942A0A60936101709362018093630103
:1005F00090936401A5019401C701B6010E94CB0844
:1006000060935D0170935E0180935F019093600140
:10061000DF91CF91FF90EF90DF90CF90BF90AF90A0
:100620009F908F900895FC0101900020E9F7319789
:10063000AF01481B590BBC0182E192E00C94E7002A
:100640008F929F92AF92BF920F931F93CF93DF939E
:10065000CDB7DEB7A1970FB6F894DEBF0FBECDBF02
:1006600019A2423008F44AE08E010F5D1F4F842E1C
:10067000912CB12CA12CA50194010E946E0CE62FA7
:10068000B901CA01EA30F4F4E05DD801EE938D01BE
:10069000232B242B252B79F790E080E0109719F07D
:1006A000CD010E941303A1960FB6F894DEBF0FBED2
:1006B000CDBFDF91CF911F910F91BF90AF909F90D1
:1006C0008F900895E95CE1CFCF93DF93EC0160E078
:1006D0008E810E94F40161E08E810E94F40160E04D
:1006E0008E810E94F4018BE891E00197F1F7DF9190
:1006F000CF910895CF92DF92EF92FF920F931F93C5
:10070000CF93DF936C017C0187E0E80EF11CD0E011
:10071000C0E0062F10E0B8010C2E02C07595679559
:100720000A94E2F76170F70181917F010E94F40160
:100730002196C430D10579F7C601DF91CF911F9181
:100740000F91FF90EF90DF90CF900C946403CF92C5
:10075000DF92EF92FF920F931F93CF93DF93EC0101
:10076000F62E642F8C810E94F4018D818F3F19F049
:1007700060E00E94F4010F2D10E08F8584FF25C0FA
:100780006E0187E0C80ED11CF12CE12CB8010E2CB3
:1007900002C0759567950A94E2F76170F601819140
:1007A0006F010E94F401FFEFEF1AFF0A88E0E816DC
:1007B000F10461F7CE01DF91CF911F910F91FF906E
:1007C000EF90DF90CF900C946403B80184E07595AE
:1007D00067958A95E1F7CE010E947A036F2DCE01CD
:1007E000DF91CF911F910F91FF90EF90DF90CF900D
:1007F0000C947A0340E0682F82E192E00C94A70306
:10080000CF93DF93823029F49091210298609093E6
:100810002102809325021092260280E48093270211
:1008200080E18093280280E580932902809116025E
:100830000E94C800809117028F3F11F00E94C800EB
:10084000809118020E94C800C2E1D2E09E012251AC
:1008500032408091210284FD0AC084E090E021961C
:10086000281739073CF48E810E94C800EFCF88E03A
:1008700090E0F5CF8BE39DE00197F1F760E0809188
:1008800016020E94F40160E0809118020E94F401B7
:10089000809117028F3F19F060E00E94F40180916F
:1008A000210284FD39C063E082E192E00E947A0374
:1008B000CBE4D6E4CE010197F1F763E082E192E068
:1008C0000E947A032197F1F763E082E192E00E94AF
:1008D0007A0383E592E00197F1F762E082E192E02A
:1008E0000E947A038091210280620E94FA0384E0D0
:1008F000809322028CE00E94FA0381E00E94FA03B6
:100900008BE39FE10197F1F782E08093230286E079
:10091000DF91CF910C94FA0380620E94FA038BE47A
:1009200096E40197F1F78091210280620E94FA0318
:1009300083E592E00197F1F78091210280620E94A5
:10094000FA03D0CF90912502691710F06FEF690F6D
:10095000E62FF0E0EE5EFD4F9489890F80680C94DD
:10096000FA0341E00E94A70381E090E008954F92CE
:100970005F926F927F928F929F92AF92BF92CF922F
:10098000DF92EF92FF920F931F93CF936B017C0145
:10099000742EAC019B010E942D0B882399F08EE1EF
:1009A00091E0CF911F910F91FF90EF90DF90CF904A
:1009B000BF90AF909F908F907F906F905F904F907F
:1009C0000C94130346015701E894B7F82FEF3FEF5B
:1009D0004FE75FE7C501B4010E942D0B81110DC0E7
:1009E0002FEF3FEF4FE75FE7C501B4010E94C60854
:1009F00018161CF482E291E0D4CF2FEF3FEF4FE7BF
:100A00005FE4C701B6010E94250A18161CF486E2AD
:100A100091E0C7CF2FEF3FEF4FE75FECC701B60183
:100A20000E94C60887FDF3CF20E030E0A901C7018E
:100A3000B6010E94C60810E000E087FF0CC041E04C
:100A40006DE282E192E00E94A703F7FAF094F7F8D2
:100A5000F09401E010E0C0E060E070E080E09FE32F
:100A60007C1641F020E030E040E251E40E94CB08E7
:100A7000CF5FF6CFA70196010E945A084B015C0197
:100A80000E9444092B013C014AE00E942003080F08
:100A9000191FCC23C9F1C301B2010E9473099B0144
:100AA000AC01C501B4010E9459084B015C0141E051
:100AB0006EE282E192E00E94A7030F5F1F4FC150D8
:100AC00018F120E030E040E251E4C501B4010E9499
:100AD0002A0A2B013C010E9444094B01B12CA12C94
:100AE0004AE0C501B4010E942003080F191FC50187
:100AF000B4010E9473099B01AC01C301B2010E94C1
:100B000059084B015C01DBCFC801CF911F910F91B8
:100B1000FF90EF90DF90CF90BF90AF909F908F901D
:100B20007F906F905F904F90089528E03EE240EAFA
:100B30005BE360916D0170916E0180916F01909106
:100B400070010E942A0A28E438ED4FE35AE30E941C
:100B5000590825E733E948E95FE30E94970A9B01BA
:100B6000AC016EE77CE888EC90E40E94CB0820E0C2
:100B700030E040EA5FE30E9459086093650170939A
:100B80006601809367019093680108951F920F9208
:100B90000FB60F9211242F933F934F935F936F9350
:100BA0007F938F939F93AF93BF93EF93FF9385E7CB
:100BB00091E00E946501FF91EF91BF91AF919F91EC
:100BC0008F917F916F915F914F913F912F910F90F6
:100BD0000FBE0F901F9018951F920F920FB60F9295
:100BE00011242F938F939F93EF93FF93E0918501AF
:100BF000F09186018081E0918B01F0918C0182FD62
:100C00001BC0908180918E018F5F8F7320918F0127
:100C1000821741F0E0918E01F0E0EB58FE4F958F86
:100C200080938E01FF91EF919F918F912F910F9063
:100C30000FBE0F901F9018958081F4CF1F920F92D6
:100C40000FB60F9211242F933F938F939F93AF93DF
:100C5000BF938091590190915A01A0915B01B0918D
:100C60005C013091580123E0230F2D3758F5019690
:100C7000A11DB11D209358018093590190935A01F1
:100C8000A0935B01B0935C01809154019091550158
:100C9000A0915601B09157010196A11DB11D8093FD
:100CA000540190935501A0935601B0935701BF9101
:100CB000AF919F918F913F912F910F900FBE0F9009
:100CC0001F90189526E8230F0296A11DB11DD2CFC3
:100CD000E5E7F1E01382128288EE93E0A0E0B0E055
:100CE00084839583A683B78384E091E09183808396
:100CF00085EC90E09587848784EC90E097878687E1
:100D000080EC90E0918B808B81EC90E0938B828BD8
:100D100082EC90E0958B848B86EC90E0978B868BB1
:100D2000118E128E138E148EE2E1F2E01382128283
:100D300086E191E0918380838CE084838FEF8583CB
:100D40008BE0868385E0878384E0808783E08187EA
:100D500082E082871386148615861686178681E0C0
:100D60000C940004789484B5826084BD84B581605D
:100D700084BD85B5826085BD85B5816085BD809166
:100D80006E00816080936E001092810080918100DE
:100D900082608093810080918100816080938100D6
:100DA000809180008160809380008091B100846098
:100DB0008093B1008091B00081608093B0008091F9
:100DC0007A00846080937A0080917A0082608093B8
:100DD0007A0080917A00816080937A0080917A0015
:100DE000806880937A001092C100E0918501F091B3
:100DF000860182E08083E0918101F091820110827E
:100E0000E0918301F09184018FEC808310928D0139
:100E1000E0918901F0918A0186E08083E091870169
:100E2000F0918801808180618083E0918701F09159
:100E30008801808188608083E0918701F09188013A
:100E4000808180688083E0918701F09188018081B2
:100E50008F7D808382E00E94000486E00E94C800AB
:100E600000E010E081E10E948802BC01990F880B2C
:100E7000990B0E9475094B015C018092710190925F
:100E80007201A0927301B09274018EE00E948802F8
:100E9000BC01990F880B990B0E9475096B017C01AD
:100EA000C0926D01D0926E01E0926F01F0927001DC
:100EB00020E030E0A9010E94C608882309F4ECC0B4
:100EC0000E949E020E94950520915D0130915E0175
:100ED00040915F01509160016091650170916601E0
:100EE00080916701909168010E942A0A2B013C01C0
:100EF0000E94ED0A2AE939E949E95FE30E942A0ADA
:100F00009B01AC01C301B2010E94CB0820E030E09C
:100F100040E853E40E942A0A20E030E040EA50E42E
:100F20000E94CB0820E030E040E85FE30E945908CF
:100F30000E943D092B01EB0186E00E94C80020972A
:100F400009F089C060E086E00E94F40120E030E012
:100F5000A901C501B4010E94C608882309F485C00F
:100F60002EEB3FE94AE15EE3C701B6010E94590852
:100F70002CEE31E94CE453E40E94CB0825E733E939
:100F800048E95FEB0E94970A2EEF34ED4EED51E4F5
:100F90000E942A0A6093690170936A0180936B0131
:100FA00090936C0160E080E00E94A2048AE291E0EC
:100FB0000E94130360E082E00E94A2046091690134
:100FC00070916A0180916B0190916C0142E00E94E6
:100FD000B70460E088E00E94A2048DE291E00E94E4
:100FE000130360E08BE00E94A204609165017091A0
:100FF0006601809167019091680142E00E94B70408
:1010000061E080E00E94A20481E391E00E9413036A
:1010100061E086E00E94A20460916101709162012A
:10102000809163019091640142E00E94B70461E005
:101030008BE00E94A20488E391E00E941303011553
:10104000110509F40FCF0E945101882309F40ACF3A
:101050000E94000007CFCF3FD10511F461E073CFAC
:10106000B20186E00E94400271CF60E080E00E9401
:10107000A2048CE391E00E94130361E080E00E94EF
:10108000A20480E491E00E94130361E08BE00E94DF
:10109000A2048CE491E0D1CF81E10E94C8006FEFFF
:1010A00073E081E10E9440020E949E020E94950529
:1010B0004DCF5058BB27AA270E9471080C94EB090A
:1010C0000E94DD0938F00E94E40920F039F49F3FC6
:1010D00019F426F40C94DA090EF4E095E7FB0C946D
:1010E000D409E92F0E94FC0958F3BA176207730765
:1010F0008407950720F079F4A6F50C941E0A0EF4E7
:10110000E0950B2EBA2FA02D0B01B90190010C0117
:10111000CA01A0011124FF27591B99F0593F50F42F
:10112000503E68F11A16F040A22F232F342F442787
:10113000585FF3CF469537952795A795F04053957F
:10114000C9F77EF41F16BA0B620B730B840BBAF04F
:101150009150A1F0FF0FBB1F661F771F881FC2F7BA
:101160000EC0BA0F621F731F841F48F487957795CE
:101170006795B795F7959E3F08F0B0CF9395880F88
:1011800008F09927EE0F9795879508950E94B0096A
:1011900008F481E008950E94DF080C94EB090E9496
:1011A000E40958F00E94DD0940F029F45F3F29F07E
:1011B0000C94D40951110C941F0A0C94DA090E9462
:1011C000FC0968F39923B1F3552391F3951B550B53
:1011D000BB27AA2762177307840738F09F5F5F4F0A
:1011E000220F331F441FAA1FA9F335D00E2E3AF049
:1011F000E0E832D091505040E695001CCAF72BD061
:10120000FE2F29D0660F771F881FBB1F26173707B1
:101210004807AB07B0E809F0BB0B802DBF01FF27E3
:1012200093585F4F3AF09E3F510578F00C94D409E3
:101230000C941F0A5F3FE4F3983ED4F386957795AC
:101240006795B795F7959F5FC9F7880F911D96959C
:10125000879597F90895E1E0660F771F881FBB1FF8
:10126000621773078407BA0720F0621B730B840BA5
:10127000BA0BEE1F88F7E09508950E944409689420
:10128000B1110C941F0A08950E94040A88F09F5718
:1012900098F0B92F9927B751B0F0E1F0660F771F9A
:1012A000881F991F1AF0BA95C9F714C0B13091F090
:1012B0000E941E0AB1E008950C941E0A672F782F31
:1012C0008827B85F39F0B93FCCF386957795679555
:1012D000B395D9F73EF490958095709561957F4FC1
:1012E0008F4F9F4F0895E89409C097FB3EF4909567
:1012F0008095709561957F4F8F4F9F4F9923A9F0EF
:10130000F92F96E9BB279395F6958795779567957D
:10131000B795F111F8CFFAF4BB0F11F460FF1BC0C1
:101320006F5F7F4F8F4F9F4F16C0882311F096E954
:1013300011C0772321F09EE8872F762F05C0662302
:1013400071F096E8862F70E060E02AF09A95660FBB
:10135000771F881FDAF7880F9695879597F9089574
:10136000990F0008550FAA0BE0E8FEEF16161706B6
:10137000E807F907C0F012161306E407F50798F01E
:10138000621B730B840B950B39F40A2661F0232B37
:10139000242B252B21F408950A2609F4A140A695B3
:1013A0008FEF811D811D089597F99F6780E870E098
:1013B00060E008959FEF80EC089500240A941616CB
:1013C000170618060906089500240A941216130633
:1013D000140605060895092E0394000C11F48823C1
:1013E00052F0BB0F40F4BF2B11F460FF04C06F5FDD
:1013F0007F4F8F4F9F4F089557FD9058440F551FB3
:1014000059F05F3F71F04795880F97FB991F61F086
:101410009F3F79F087950895121613061406551FFD
:10142000F2CF4695F1DF08C0161617061806991F69
:10143000F1CF86957105610508940895E894BB275E
:1014400066277727CB0197F908950E94B00908F421
:101450008FEF08950E943D0A0C94EB090E94DD096C
:1014600038F00E94E40920F0952311F00C94D4097F
:101470000C94DA0911240C941F0A0E94FC0970F3E1
:10148000959FC1F3950F50E0551F629FF001729F29
:10149000BB27F00DB11D639FAA27F00DB11DAA1F38
:1014A000649F6627B00DA11D661F829F2227B00D85
:1014B000A11D621F739FB00DA11D621F839FA00D10
:1014C000611D221F749F3327A00D611D231F849F60
:1014D000600D211D822F762F6A2F11249F575040B7
:1014E0009AF0F1F088234AF0EE0FFF1FBB1F661F32
:1014F000771F881F91505040A9F79E3F510580F0FB
:101500000C94D4090C941F0A5F3FE4F3983ED4F383
:10151000869577956795B795F795E7959F5FC1F79E
:10152000FE2B880F911D9695879597F90895FA01DE
:10153000EE0FFF1F309621053105A1F161157105F0
:1015400061F48038BFE39B0749F1689490388105C6
:1015500061F08038BFEF9B0741F099234AF5FF3FC8
:10156000E1053105210519F1E8940894E795D901C1
:10157000AA2329F4AB2FBE2FF85FD0F310C0FF5F72
:1015800070F4A695E0F7F73950F019F0FF3A38F407
:101590009F779F930DD00F9007FC9058089546F0C9
:1015A0000C94DA0960E070E080E89FE308954FE76B
:1015B0009F775F934F933F932F930E94F20B2F914E
:1015C0003F914F915F910E942A0A0C943A0B19F4B3
:1015D00016F40C94DA090C946C0B0E94040AB8F30C
:1015E0009923C9F3B6F39F57550B87FF0E947A0BD7
:1015F0000024A0E640EA900180585695979528F47B
:10160000805C660F771F881F20F026173707480772
:1016100030F4621B730B840B202931294A2BA695C9
:1016200017940794202531254A2758F7660F771F0E
:10163000881F20F026173707480730F4620B730B1A
:10164000840B200D311D411DA09581F7B901842F18
:101650009158880F9695879508950E94B009880B38
:10166000990B089529F416F00C94D4090C941E0AD1
:101670000C94DA090E94040AA8F39638A0F707F838
:101680000F92E8942BE33AEA48EB5FE70E94400AA6
:101690000F920F920F924DB75EB70F920E943A0CC5
:1016A000E8E6F0E00E94810B4F915F91EF91FF918E
:1016B000E595EE1FFF1F49F0FE57E0684427EE0F47
:1016C000441FFA95E1F74195550B0E94B40B0F901A
:1016D00007FE0C94A80B08959F3F31F0915020F421
:1016E000879577956795B795880F911D96958795FE
:1016F00097F9089591505040660F771F881FD2F7D1
:101700000895DF93CF931F930F93FF92EF92DF9291
:101710007B018C01689406C0DA2EEF010E943D0A1D
:10172000FE01E894A5912591359145915591A6F337
:10173000EF010E947108FE019701A801DA9469F790
:10174000DF90EF90FF900F911F91CF91DF9108955F
:101750009B01AC0160E070E080E89FE30C94CB0853
:101760000C94D4090C946C0B0E94040AD8F39923AE
:10177000C9F3940F511DA3F39150504094F059F0C8
:10178000882332F0660F771F881F91505040C1F7B1
:101790009E3F51052CF7880F911D9695879597F9D7
:1017A00008955F3FACF0983E9CF0BB2786957795F7
:1017B0006795B79508F4B1609395C1F7BB0F58F7DB
:1017C00011F460FFE8CF6F5F7F4F8F4F9F4FE3CFE4
:1017D0000C941F0A16F00C946C0B0C94DA096894A4
:1017E0000C94D4090E94040AA8F39923C1F3AEF320
:1017F000DF93CF931F930F93FF92C92FDD27882389
:101800002AF02197660F771F881FDAF720E030E073
:1018100040E85FEB9FE3883920F0803E38F0219666
:101820008F770E945A08E0E9F0E004C00E945A084D
:10183000EDEBF0E00E94810B8B01BE01EC01FB2E71
:101840006F5771097595771F880B990B0E94750961
:1018500028E132E741E35FE30E943D0AAF2D9801A2
:10186000AE01FF900F911F91CF91DF910E947108FF
:101870000C94EB09FA01DC01AA0FBB1F9B01AC0120
:10188000BF5728F4222733274427507820C0B75168
:1018900090F4AB2F0024469537952795011CA3950E
:1018A000D2F3002071F0220F331F441FB395DAF3F7
:1018B0000ED00C94590861307105A0E88A07B9462A
:1018C00030F49B01AC016627772788279078309603
:1018D00021F020833183428353830895A1E21A2E9D
:1018E000AA1BBB1BFD010DC0AA1FBB1FEE1FFF1FC4
:1018F000A217B307E407F50720F0A21BB30BE40B14
:10190000F50B661F771F881F991F1A9469F760955A
:101910007095809590959B01AC01BD01CF01089514
:10192000EE0FFF1F0590F491E02D0994F894FFCF7E
:10193000000000008701E7001401D40145012301E4
:10194000370100000000B104E7009B029A026E61BB
:101950006E00696E66006F766600443A0050523A37
:1019600000502E4D65643A004F6E2E00202020203E
:101970002020202020202020202020004F666600EC
:00000001FF
