:020000040800F2
:1000000088060120E1010008E9010008EB01000871
:10001000ED010008EF010008F101000800000000F8
:10002000000000000000000000000000F3010008D4
:10003000F501000800000000F70100086908000849
:10004000FB010008FB010008FB010008FB010008A0
:10005000FB010008FB010008FB010008FB01000890
:10006000FB010008FB010008FB010008FB01000880
:10007000FB010008FB010008FB010008FB01000870
:10008000FB010008FB010008FB010008FB01000860
:10009000FB010008FB010008FB010008FB01000850
:1000A000FB010008FB010008FB010008FB01000840
:1000B000FB010008FB010008FB010008FB01000830
:1000C000FB010008FB010008FB010008FB01000820
:1000D000FB010008FB010008FB010008FB01000810
:1000E000FB010008FB010008FB010008FB01000800
:1000F000FB010008FB010008FB010008FB010008F0
:10010000FB010008FB010008FB010008FB010008DF
:10011000FB010008FB010008FB010008FB010008CF
:10012000FB010008FB010008FB010008FB010008BF
:10013000FB010008FB010008FB010008FB010008AF
:10014000FB010008FB010008FB010008FB0100089F
:10015000FB010008FB010008FB010008FB0100088F
:10016000FB010008FB010008FB010008FB0100087F
:10017000FB010008FB010008FB0100080000000073
:10018000FB010008FB010008FB010008FB0100085F
:10019000FB010008FB010008FB010008FB0100084F
:1001A000FB010008FB010008FB010008FB0100083F
:1001B000FB010008FB010008FB010008FB0100082F
:1001C000FB010008FB010008DFF810D000F0C2FAC4
:1001D00000F018F800480047D51E000888060120E6
:1001E0000648804706480047FEE7FEE7FEE7FEE7D1
:1001F000FEE7FEE7FEE7FEE7FEE7FEE7710900081F
:10020000C901000870B5054C054D03E02068204485
:100210008047241DAC42F9D170BD0000B022000817
:10022000B42200082DE9F04D81EA030404F0004BEC
:1002300021F0004514464FF0000A23F0004150EA37
:10024000050220D054EA01021DD0C5F30A57024628
:10025000C5F31303C1F31300C1F30A5640F480152C
:1002600043F48013A7EB0608101BD64608F2FD38AE
:1002700073EB050002D308F1010801E092185B411D
:10028000B8F1000F03DA00200146BDE8F08D002030
:100290004FF48011064684460EE0171B73EB0507EA
:1002A00005D3121B63EB050306434CEA010C490816
:1002B0004FEA300092185B4150EA0107EDD152EA53
:1002C000030012D082EA040083EA0501084305D046
:1002D000101BAB4106D20122002306E000224FF0A2
:1002E000004302E06FF0010253101AEB06004CEBE2
:1002F000085110EB0A0041EB0B01BDE8F04D00F096
:1003000073B80EB540F2334102910021CDE90011DE
:100310000A460B4600F077F803B000BD00F000423B
:1003200030F000400AD0C10D01F56071C0F3160035
:1003300042EA0151C20840071143704700200146BC
:10034000704700F0F9B930B50B4601460020202275
:10035000012409E021FA02F59D4205D303FA02F5D2
:10036000491B04FA02F52844151EA2F10102F1DC32
:1003700030BD2DE9F05F0546002092469B46884639
:100380000646814640241BE0284641464746224611
:1003900000F001FA53465A46C01A914110D3114653
:1003A0001846224600F0E8F92D1A67EB01084F467F
:1003B00022460120002100F0DFF917EB00094E4131
:1003C000201EA4F10104DFDC484631462A4643469C
:1003D000BDE8F09F034870470248001D011F886078
:1003E000001D70475000012010B5141E73F1000469
:1003F00008DA401C41F1000192185B411A4301D117
:1004000020F0010010BD2DE9F04D92469B4611B140
:10041000B1FA81F202E0B0FA80F22032904600F0A8
:10042000ABF904460F4640EA0A0041EA0B01534685
:100430005A46084313D0114653EA010019D0C8F1B7
:100440004002504600F0A7F905460E465046594670
:10045000424600F091F9084305D0012004E020460F
:100460003946BDE8F08D0020054346EAE0762C438E
:1004700037430A986305E40AA0EB08000022FD0A4E
:1004800044EA47540A3002D500200146E9E7010555
:1004900010196941DDE9084500196941BDE8F04DD1
:1004A000A2E72DE9FE4F804681EA0300C00F0C460B
:1004B000009021F0004123F00045B8EB0200A94173
:1004C00005D24046214690461C460B46024623F084
:1004D0000040104347D0270DC7F30A00C3F30A5169
:1004E0000290401A019040286BDAC3F3130040F4E5
:1004F000801B0098924620B10023D2EB030A63EBE5
:100500000B0B01985946C0F14002504600F034F9F7
:1005100006460D4650465946019A00F04CF910EB3C
:1005200008006141002487EA115284EAE7731A4304
:1005300040D0009A62B3019A012A4FEA075215DCB3
:10054000001B61EB02014FF0004202EA0752CDE9C5
:100550000042001C41F5801132462B46FFF753FF45
:1005600003B0BDE8F08F40462146F9E7001B61EB80
:100570000201001C41F5801300185B412018A2F510
:10058000001747EB030140EAD570B6196D4111E041
:100590006D084FEA360645EAC0754FEA0752001B60
:1005A00061EB0201001C41F5801149084FEA30005F
:1005B0000019514132462B4603B0BDE8F04FFFF71A
:1005C00013BF0098012240000023D0EB020263EB2E
:1005D000E073009821464FEAE074B8EB000061EB4D
:1005E0000401E9E783F000435BE781F0004158E74D
:1005F0002DE9FE4F81EA030404F0004421F000419C
:1006000000944FF0000B23F0004350EA01045ED049
:1006100052EA03045BD0C3F30A54C1F30A552C44D5
:10062000A4F2F3340194A0FB0254C1F3130141F48A
:100630008011C3F3130343F4801301FB024400FB56
:10064000034E840A970A44EA815447EA8357A4FB7D
:10065000076802958D0A05FB07854FEA932C04FB7A
:100660000C542705029D4FEA065847EA1637B5EBAA
:1006700008056EEB070C870E920E47EA811742EAD7
:100680008312A7FB0201B6EB0B0164EB00042B0DF8
:1006900043EA0C335E1844EB1C50DA465146E7FB44
:1006A0000201C5F313044FEA0B3343EA14534FEA34
:1006B0000432019C43EA0603A4F10C040294009C5A
:1006C000CDE900B4FFF79FFE03B0BDE8F08F002036
:1006D0000146F9E7C1F30A52C1F3130140F2FF33B7
:1006E00041F480119A4202DA00200146704740F23C
:1006F00033439A42A2F2334202DC524200F04BB83A
:1007000000F03AB830B5041E71F1000404DB4FF07C
:100710000044404264EB0101141E73F1000405DB48
:100720001C464FF00043524263EB0403994208BF5A
:10073000904230BD0020704710B500F052F80169BA
:1007400019B100220261884701E080688047AFF359
:1007500000800000064C074D06E0E06840F0010311
:1007600094E8070098471034AC42F6D3FFF730FD09
:1007700090220008B0220008202A04DB203A00FA68
:1007800002F1002070479140C2F1200320FA03F3E8
:10079000194390407047202A04DB203A21FA02F0E6
:1007A0000021704721FA02F3D040C2F120029140AB
:1007B000084319467047202A06DBCB17203A41FA36
:1007C00002F043EAE07306E041FA02F3D040C2F1DE
:1007D00020029140084319467047000010B5AFF35E
:1007E000008070B5FFF7F8FD04680546A4B9202025
:1007F00001F06CFC040011D0094900202C60C4E910
:1008000000010849A1602073206160610649A06170
:1008100009B100F00BF8E061204670BDAFF3008035
:1008200000000000DD0700080000000010B588206F
:1008300001F04CFC002801D00021017010BD80297E
:1008400002D808B1017809B100207047012100F8F1
:10085000081B704718B100F10802914201D0002036
:10086000704700210170704700BF0E48006800F01B
:1008700002000C4908600128F7D00B48006840F0DE
:10088000020009490860002000E0401C074909688F
:100890008842FADB0448006820F002000249086040
:1008A000704700000020014014080240340001207D
:1008B00070B500200022022300240221274D2D685C
:1008C00005F00C0020B1042806D0082834D107E038
:1008D000234D244E356033E0234D224E35602FE00A
:1008E0001E4D2D1F2D68C5F380541C4D2D1F2D68E6
:1008F00005F03F0154B11C4DB5FBF1F5174E361F05
:100900003668C6F3881605FB06F209E0144DB5FB00
:10091000F1F5124E361F3668C6F3881605FB06F24F
:100920000E4D2D1F2D68C5F301456D1C6B00B2FBEC
:10093000F3F50C4E356003E0094D0A4E356000BFFB
:1009400000BF064D2D68C5F30315084E705D054DBB
:100950002D68C540034E356070BD00000838024068
:100960000024F4004800012040787D01382100086F
:100970001448006840F4700012490860124800688A
:1009800040F001001049086000200F49083108605C
:100990000D4800680D4908400B4908600C48091DC6
:1009A0000860081F006820F48020091F08600020EC
:1009B00005490C3108604FF0006002498039086039
:1009C0007047000088ED00E000380240FFFFF6FEAF
:1009D0001030002410B50446204600F09FF8012195
:1009E0000B48006800F0DAF800210A48006800F0BF
:1009F000D5F801210848006800F0D0F841F28830AD
:100A000000F0C0F800210448006800F0C7F810BDED
:100A100024000120280001202000012010B5012021
:100A200000F010F8022000F00DF83C2000F00AF869
:100A30000C2000F007F8062000F004F8802000F0F9
:100A400001F810BD10B50446204600F067F80021FB
:100A50000B48006800F0A2F800210A48006800F086
:100A60009DF801210848006800F098F841F28830AC
:100A700000F088F800210448006800F08FF810BDED
:100A800024000120280001202000012000B52DEDC8
:100A9000028B85B0B0EE408AF0EE608A8DED008B5F
:100AA00005A2052103A800F01BF903A800F02AF80D
:100AB00005B0BDEC028B00BD256600007FB5044685
:100AC0000D46012C05D105F17F01C8B2FFF7BAFF31
:100AD0000FE0022C05D105F1BF01C8B2FFF7B2FF4C
:100AE00007E004A30FCB8DE80F00684600F00AF87A
:100AF00000BF7FBD46696C61206F20506F73204539
:100B000072726F7210B5044603E014F8010BFFF720
:100B100061FF20780028F8D110BD000030B52DED20
:100B2000028B81B0054600200090002422E0B0EE48
:100B3000008A00EE104AF8EEC08AF0EE680AB0EEC5
:100B4000480A00F0F9F8BDEEC00A8DED000A0098E1
:100B500028400099884206D1094951F82400012112
:100B600000F01CF805E0064951F82400002100F0CF
:100B700015F8641C082CDADB01B0BDEC028B30BD2B
:100B80006400012008B500210091009102E0009965
:100B9000491C009100998142F9DB08BD01290AD165
:100BA00000BF8279012303FA02F203685B691A43EA
:100BB00003685A6108E000BF82790123934002680C
:100BC00052699A4303685A6170470000F0B505AC5A
:100BD00070CC01608280C3800472458186812F4F72
:100BE000B94207D12E4F3F6847F00107DFF8B0C088
:100BF000CCF800702B4FB94207D1294F3F6847F01E
:100C00000207DFF89CC0CCF80070274FB94207D12B
:100C1000234F3F6847F00407DFF884C0CCF800702A
:100C2000224FB94207D11E4F3F6847F00807DFF84F
:100C300070C0CCF800701E4FB94207D1184F3F6802
:100C400047F01007DFF858C0CCF80070194FB942D0
:100C500007D1134F3F6847F02007DFF844C0CCF8B6
:100C600000700F684FEA430C02FA0CFC47EA0C07CD
:100C70000F6004FA03F74F608F684FEA430C05FAE0
:100C80000CFC47EA0C078F60CF684FEA430C06FA6A
:100C90000CFC47EA0C07CF60F0BD000000000240EA
:100CA000303802400004024000080240000C0240BC
:100CB000001002400014024010B5040007D10124C6
:100CC00005E0FFF787FB006800B90448804720462D
:100CD00001F0FCF90028F4D010BD00004303000827
:100CE0000FB41CB50246002007AC00290BD0491EEA
:100CF000CDE90021054B6A462146069800F048FDE3
:100D0000009A002111701CBC5DF814FBBF1E000886
:100D10004100080218BF04200A0E18BF40F001006D
:100D20004FF07F4232EA010108BF40F00200012883
:100D300008BF05207047000010B510EE100A2DED19
:100D4000068BB7EE001A10EE901AB0EE418A002220
:100D5000A0F5000CDFEDFE9A4FF00073BCF1FE4FE2
:100D60004FF07F4403EB410C80F0B481BCF1804F25
:100D7000C0F02082F74901449FEDF73AB1F5005FDA
:100D800040F2D48200F58021CB0C03F00F0101EE7C
:100D9000901AC3F307137F3BA0EBC350B8EEE12AD0
:100DA00000EE100A1A44DFEDED2AF0EE411A42EE91
:100DB000221AF0EE613A70EE232A30EE632A12EE28
:100DC000900A00F500606FF30B0001EE900A73EEDD
:100DD000E13A33EE804AC1EE223A22EE230A10EEC7
:100DE000100A00F500606FF30B0000EE100A00EE31
:100DF000612A00EE442A62EE232A70EE221A21EEC6
:100E0000A12ADFEDD73A02EE233A23EE023A20EE92
:100E1000012A22EE811A03EE211A32EE010A10EEA7
:100E2000100A00F500606FF30B0000EE100A72EE7E
:100E3000401A31EE812A9FEDCB1A60EE011A9FED28
:100E4000CA1A20EE011A9FEDC90A02EE001A31EE0D
:100E5000810A10EE100A00F500606FF30B0000EE3F
:100E6000100AC34871EEC01A31EE812A784400EBB3
:100E7000C10090ED003AD0ED011A100101EE100A08
:100E8000F8EEC12A32EE211A31EE001A31EE031AC1
:100E900031EE221A11EE100A00F500606FF30B001C
:100EA00009EE100A39EE621A31EE431A31EE400AA9
:100EB00030EE610A32EE40AA10EE900A002100F5F1
:100EC00000606FF30B0008EE900A084670EEE8AA87
:100ED000FFF730FC29EE280A00F00C01F0EEC00A02
:100EE00010EE900AB0F18B4F0DDD10EE900AB4EBCE
:100EF000400F08D310EE100A4FF08B4262F31E0031
:100F000008EE900A13E069EE2A0A38EEAA1A4AEEB1
:100F1000010A30EE201A11EE100A00F500606FF39E
:100F20000B0008EE900A30EE680A70EE209A0C2052
:100F3000FFF700FC38EEA90AB5EEC00AF1EE10FA90
:100F400034BFFEEE000AF6EE000A30EE800ABDEE77
:100F5000C00A10EE100A011100EE101AF8EEC00AD5
:100F600000EE100AB8EEC00A38EEC00A30EE290AC8
:100F7000DFED801A9FED801A00EE211ADFED7F1A57
:100F80007F4900F00F0040EE011A21EE800A7944FB
:100F900001EB800191ED001A7A49794401EB80015F
:100FA000D1ED001A784901EE801A794401EB8000F6
:100FB000764990ED000A31EE001AB0EEE00A10EE2C
:100FC000100A884215DA10EE100AB4EB400F10D365
:100FD0009FED6F0A30EE800ADFED6E0A20EE200AE8
:100FE00068EE010ABDEC068BBCEEC00A20EE200ABA
:100FF00010BD10EE100A6849884243DA10EE100A5C
:10100000B4EB400F3ED3BDEEE00A68EE010A10EEED
:10101000100A00EBD0725110C90501F17E5100EEAB
:10102000101AA0EB6200C00560EE200A00F17E50AD
:1010300000EE100A60EE808A18EE900AB4EB400FC2
:101040000FD1022000F0E0F900F0BEF910EE101A06
:1010500018EE100ABDEC068B61F31E0000EE100ABC
:1010600010BD18EE900A400011D018EE900AFFF75C
:101070004FFE042808BF00F0AFF9B0EE680ABDECDF
:10108000068B10BDF5EEC00AF1EE10FA0FD2022069
:1010900000F0BAF900F0A0F910EE101A18EE100ADC
:1010A000BDEC068B61F31E0000EE100A10BD02209D
:1010B00000F0AAF900F088F910EE101AB0EE480A14
:1010C00010EE100ABDEC068B61F31E0000EE100A54
:1010D00010BD00BFBCF1804F6CD300BF00F1FF43D7
:1010E000B3F1FE4F24D200BFB0EEC00A10EE100ADA
:1010F000C1F3C7537F2B0DDB972BBFF63BAEC3F17C
:1011000096034FF0010C0CFA03F3A3F1010C1CEA57
:10111000010F08D0012000F077F9BDEC068BBDE887
:10112000104000F049B90B4218BFBFEE008A21E61B
:1011300043001CBF4FF08073B3EB400F34D96FF006
:101140001A02DFED161A20EE210A10EE100A27E02F
:1011500000000000001080C0ABAAAA3E0000803D45
:101160007EE24C3E00B03842D49AB8BB3BAA38422B
:10117000E0120000FC596337C9FF753A1872313D1F
:101180007E120000B2120000221200000000FC4299
:101190000000FE420000004B000040430000004DF4
:1011A00010F0004FA0D1E5E5A0F50003B3F1FE4F2C
:1011B00021D2DFE503EB4103B3F1007F11D3F5EE5C
:1011C000C00AF1EE10FA05D1430018BFB4EB400F8E
:1011D00076D883E701F0004141F0FC5100EE901A0F
:1011E0007CE7B3F1807F06D210EE903AA3F50003BE
:1011F00000EE903A72E720F000426FF0FF4C604C36
:1012000002EB0C03A34210D321F000439C44A445FD
:101210000BD3B0F17E5F18BF5FEA410C50D0B2F142
:10122000FF4F98BFB3F1FF4F05D9BDEC068BBDE86A
:10123000104000F0BDB8B0F1FF4F0FD0C1F3C7525E
:101240007F2A09DB972A11DAC2F19602012303FAF9
:1012500002F2531E0B4205D0002208E011F0004FAD
:1012600055D128E00A4218BF012200D1022210F510
:10127000000F13D028B3B0F1004F26D010F1814FEA
:101280004FD04FF0FE42B2EB400F94BF0120002040
:10129000012202EBE171884239D10CE011F0004FDC
:1012A00002D0012A38D032E0012A02BF9FED350A70
:1012B000BDEC068B10BD9FED340ABDEC068B10BD56
:1012C0002FE011F0004F0CD121E0B1F1FF4F1ED003
:1012D00011F5000F05D011F0004F15D00AB1012A09
:1012E00008D0022000F090F8BDEC068BBDE810405D
:1012F00000F054B8022000F087F800F04FF8BDEC81
:10130000068BB1EE400A10BD0AB1012A04D0B0EE3E
:10131000690ABDEC068B10BDBDEC068B9FED1B0A68
:1013200010BDBDEC068BB7EE000A10BD30EE410AD1
:10133000B5EE001A9FED172A00EE413AB6EE001AFC
:1013400060EE001A00EE431A61EEC11A9FED101A0A
:1013500020EE011A20EE020A9FED0F2A01EE820A0A
:1013600071EE001A11EE900A00F500606FF30B00A9
:1013700009EE100A31EE491A31EE00AA9CE5000090
:10138000FFFF3F00000080FF0000807F0000008022
:1013900000B0B841D49A38BB3BAAB841DFED030A8C
:1013A000B7EE001A81EE200A70470000000000002E
:1013B00030EE200A70470000DFED020A80EEA00A3E
:1013C00070470000000000009FED020A20EE000AB6
:1013D00070470000000000709FED020A20EE000A36
:1013E000704700000000001002E008C8121F08C18A
:1013F000002AFAD170477047002001E001C1121F96
:10140000002AFBD1704700000149086070470000C6
:101410004C0001203EB51020FFF74EFC0446012091
:101420000022CDE90020134602466B490290204677
:10143000FFF7CCFB0446694804601020FFF73CFC32
:10144000044601200022CDE90020034602466249FD
:1014500002902046FFF7BAFB044661480460102062
:10146000FFF72AFC044601200022CDE900200223D8
:101470000246594902902046FFF7A8FB0446594806
:1014800004601020FFF718FC044601200022CDE97B
:1014900000200B230246504902902046FFF796FB9E
:1014A0000446514804601020FFF706FC0446012062
:1014B0000022CDE900200C23024647490290204635
:1014C000FFF784FB0446494804601020FFF7F4FB53
:1014D000044601200022CDE90020052302463E49B2
:1014E00002902046FFF772FB04464148046010203A
:1014F000FFF7E2FB044601200022CDE9002006238D
:101500000246354902902046FFF760FB0446394801
:1015100004601020FFF7D0FB044601200022CDE933
:101520000020072302462C4902902046FFF74EFB7D
:101530000446314804601020FFF7BEFB044601203A
:101540000022CDE9002009230246234902902046CB
:10155000FFF73CFB0446294804601020FFF7ACFB72
:10156000044601200022CDE90020082302461A4942
:1015700002902046FFF72AFB044621480460102011
:10158000FFF79AFB044601200022CDE900200A2340
:101590000246114902902046FFF718FB04461948FD
:1015A00004600E480068184908600D4800684860EB
:1015B0000C48006888600C480068C8600B480068E8
:1015C00008610B48006848610A48006888610A4859
:1015D0000068C8613EBD0000000402400000012018
:1015E00004000120080001200C000120100001204F
:1015F00014000120180001201C00012020000120FF
:101600002400012028000120640001202DE9FF5F53
:1016100082B00021DDE90430020DDDF840B0034363
:1016200018D044F61050A2F2FF324243151411981C
:1016300001281FD0A5EB0B00401C5FEA000A4FF009
:1016400000064E4FDFF83891B046504615D5CAF126
:10165000000413E0119801244AA3012801D16FEA84
:101660000B010298119AC0E90031C0E9024206B0AC
:10167000BDE8F09FCBF10000DFE704460021404ABF
:10168000491842EB0450CDE9001012E0E00707D002
:1016900032463B4640464946FEF7AAFF8046894609
:1016A00032463B4610461946FEF7A2FF06460F4655
:1016B0006410002CEAD1DDE90401DDE90023BAF170
:1016C000000F06DAFEF794FF42464B46FEF790FF06
:1016D00005E0FEF7A7FD42464B46FEF7A3FD044694
:1016E0000E460022284BFFF70DF803D84FF0FF30CD
:1016F000014607E00022254B20463146FEF7D1FE89
:10170000FEF7E8FF102409E0002C0ADB0A22002380
:10171000FEF72FFE039B30321A55641E50EA010279
:10172000F2D1641C039AC4F111031444119A012AE2
:1017300003D0012208430DD10AE0084304D0002061
:101740004FF0110B119072E7A3EB0B056D1E0DE02E
:101750005B4504DD4FF0000205F1010504E003DA0A
:101760004FF00002A5F10105002AECD00298119972
:10177000C0E90231C0E9004579E7000000001440EB
:101780000000F03F300000000000F0430000E03FA8
:101790002DE9FF4F95B09B468946064600250FE28E
:1017A000252877D100242746F84A0121059400E036
:1017B000044316F8013F203B01FA03F01042F7D131
:1017C00030782A2811D06FF02F033078A0F1300242
:1017D000092A16D8059A44F0020402EB820203EBB0
:1017E00042021044761C0590EFE759F8042B05924D
:1017F000002A03DA504244F40054059044F00204F5
:10180000761C30782E2816D116F8010F44F0040407
:101810002A280DD06FF02F023078A0F13003092B69
:1018200009D807EB870302EB4303C718761CF3E7DD
:1018300059F8047B761C30786C280FD006DC4C28D5
:1018400017D068280DD06A2814D104E0742810D06D
:101850007A280FD10DE044F400140AE044F4801417
:1018600001E044F440147278824202D104F58014FD
:10187000761C761C307866280BD013DC582877D07D
:1018800009DC002875D04528F6D04628F4D0472832
:101890001AD19DE118E0632835D0642879D06528F5
:1018A00012D195E1702873D008DC6728F1D069283F
:1018B0006FD06E280DD06F2806D1B5E073282CD0DC
:1018C000752875D0782874D05A46179990476D1CA2
:1018D00075E1C4F30250022809D003280DD0D9F8CD
:1018E000001004280DD00D6009F1040967E1D9F852
:1018F0000010EA17C1E90052F6E7D9F800100D8090
:10190000F2E70D70F0E719F8041B8DF800100020C5
:101910008DF80100EA46012003E059F804AB4FF0CE
:10192000FF3061074FF0000102D40DE008F1010122
:101930008846B9420FDA8045F8DB1AF8081000290A
:10194000F4D108E008F1010188468142FADB1AF877
:1019500008100029F6D105985B46A0EB0807214640
:101960003846179A00F094FA284400EB080507E07F
:101970004DE029E10DE01AF8010B5A4617999047FE
:10198000B8F10108F7D25B4621463846179A13E1B1
:1019900042E00A220092C4F302524FF0000A022AE7
:1019A00008D059F804CB032A4FEAEC710AD00DE0B5
:1019B00029E02AE009F1070121F00702F2E802C15B
:1019C000914609E00FFA8CFC4FEAEC71042A03D12E
:1019D0004FFA8CFC4FEAEC71002907DA0A46002125
:1019E000DCF1000C61EB02012D2202E0220504D59E
:1019F0002B228DF80420012203E0E20701D02022EF
:101A0000F7E7904659E00A2102E010220DE010218C
:101A10004FF0000A00910BE010224FF0000A44F052
:101A200004040827009203E008224FF0000A009205
:101A3000C4F30252022A05D059F804CB0021032A2C
:101A400008D009E009F1070121F00702F2E802C11C
:101A5000914605E01FFA8CFC042A01D10CF0FF0C22
:101A60004FF00008220728D5702806D0009B83F08D
:101A7000100353EA0A0305D00EE040228DF804203B
:101A8000012208E05CEA010206D030228DF8042031
:101A90008DF8050002229046009B83F0080353EA6C
:101AA0000A030AD15CEA010201D1620705D530229E
:101AB0008DF804204FF001087F1E582804D034A070
:101AC00003900EA802900DE036A0F9E75346604659
:101AD000009AFEF74EFC84460398825C0298401EF2
:101AE000029002705CEA0100F0D1029806A9081A7F
:101AF00000F1200A600702D524F4803400E00127B9
:101B0000574502DDA7EB0A0000E0002000EB0A01C8
:101B1000009005984144401A0590E00306D45B46C6
:101B20002146179A059800F0B3F90544002706E00E
:101B300001A85A46C05D179990476D1C7F1C474508
:101B4000F6DBE0030CD55B462146179A059800F0BA
:101B50009FF9054404E030205A46179990476D1CC0
:101B60000099481E00900029F5DC08E002980299CF
:101B70005A460078491C0291179990476D1CBAF19A
:101B80000001AAF1010AF1DC65E100000928010069
:101B900030313233343536373839616263646566E3
:101BA00000000000303132333435363738394142A5
:101BB000434445460000000000F058F90544761CF7
:101BC000307800287FF4ECAD19B02846BDE8F08FDE
:101BD000620700D4062709F1070222F0070CFCE88F
:101BE0000223E14603F000485FEA080C02D00FF23E
:101BF000702C0DE05FEA045C02D50FF2682C07E060
:101C00005FEAC47C02D00FF2602C01E0AFF2700CEE
:101C10004FF0FF3823F00043CDF850C065280CD0BA
:101C200006DC452809D046281DD047283DD13DE097
:101C3000662818D067287ED138E00021112F01DBFB
:101C4000112000E0781CCDE9000106A90EA8FFF7DD
:101C5000DDFCDDE90F010E9A03910021009207F1EE
:101C6000010A04914DE04FF000400097CDE90110CA
:101C700006A90EA8FFF7CAFCDDE90F0203920E9B2E
:101C800011990022DDF80CA00093049211B9791C7F
:101C900000EB010AB7EB0A0004D4C0F1FF3007F1F2
:101CA000010A0490AAEB0700019044E0012F00DA3A
:101CB00001270021112F01DD112000E03846CDE978
:101CC000000106A90EA8FFF7A1FCDDE90F010E9A9D
:101CD0000391002104910092BA4621070CD4039984
:101CE000514500DA8A46BAF1010F05DD009AAAF1E2
:101CF0000101515C302908D0B84202DA10F1040F1A
:101D000006DA0121CDE9011015E0AAF10101E9E7A8
:101D1000002805DC049901440491AAEB000102E0CB
:101D2000411C514500DD8A460499401A401C01902F
:101D30004FF000400290200704D40198504501DB89
:101D4000CDF8048000208DF84F0002980DF14F0768
:101D5000B0F1004F25D02B200E9002984FF00208D2
:101D600000280CDA404202902D200E9007E00A2154
:101D70000298FEF7E8FA3031029007F8011DB8F139
:101D80000001A8F10108F2DC02980028EFD1791EC9
:101D90000E980870307800F0200040F0450007F8F9
:101DA000020D12A8C01B00F107081498007800B1BA
:101DB000012000EB0A01019801EBE0710598414414
:101DC000401A401E0590E00306D45B462146179A50
:101DD000059800F05DF805441498007818B15A464B
:101DE000179990476D1CE00324D55B462146179A4E
:101DF000059800F04DF805441CE00498002807DB26
:101E0000DDE90301884203DD0098405C179901E099
:101E1000179930205A469047049805F10105401C57
:101E200004900198401E019004D12E205A46179923
:101E300090476D1CBAF10001AAF1010ADDDC05E052
:101E400017F8010B5A46179990476D1CB8F100011D
:101E5000A8F10108F4DC5B462146179A0598ABE629
:101E60002D0000002B000000200000002DE9F041B3
:101E7000044600251E461746880404D405E039466A
:101E80002020B0476D1C641EF9D52846BDE8F081BE
:101E90002DE9F041044600251E469046C80301D5B1
:101EA000302700E02027880404D505E04146384665
:101EB000B0476D1C641EF9D52846BDE8F0814A681C
:101EC000002A06D00A68531C0B6010704868401E38
:101ED000486070472DED028B6748006840F00200B3
:101EE000654908600846006840F0040008606248E0
:101EF0001430006840F480705F49143108605F4816
:101F0000006840F007005D4908600020091D086076
:101F1000081D006840F05500091D0860081D006894
:101F200040F00400091D0860554840685449486065
:101F30000846806840F0010088600846C06860F08C
:101F40007840C860084600694E4908434C4908611A
:101F50000A204863FEF7ACFC4B4800680A22B0FB3D
:101F6000F2F1481EB0F1807F00D31BE0481E4FF015
:101F7000E022506150170F22002804DB13071C0ECB
:101F8000424B1C5406E013071D0E414B00F00F049A
:101F9000241F1D5500BF00204FF0E0229061072054
:101FA000106100BFFEF73AFD3AA0FEF7ABFD00213D
:101FB0000220FEF783FD3AA0FEF7A4FD5BE0304867
:101FC000806840F080402E4988600846C06C00EE72
:101FD000100AB8EE400A354880ED000AC86CFEF7DA
:101FE00090F9334A03C22648C06CC0EB001000EBE6
:101FF0008000000A2F4908600B210120FEF75EFDDA
:102000002A4890ED000ADFED2C0A20EE200ADFEDD1
:102010002B0A80EE201A80ED001A0068FEF77EF988
:1020200041EC180BB0EE480AF0EE680AFEF72EFD00
:102030008020FEF707FD0A210220FEF73FFD1B4826
:1020400090ED000ADFED1E0A20EE200A10EE101AB5
:102050000846FEF763F99FED1B0B53EC102BFEF7C0
:10206000E1F8134A03C2124890ED000BFEF70EFD93
:102070008020FEF7E7FCA2E730380240000802406B
:1020800000200140777777374800012000E400E026
:1020900018ED00E020566F6C74616A653A2000000C
:1020A00020477261646F733A2000000038000120FD
:1020B00040000120340001200090FB458096184B21
:1020C000000034436666666666660A40F0B50B300B
:1020D000154D20F007010024144A0FE003688B42DD
:1020E0000BD38B4205D95E1A43184768C3E90067D2
:1020F00000E04368136002C004E0021D106800287D
:10210000ECD12046002802D1286808B10020F0BD9B
:10211000064A07481060074A121A22F00702C0E96F
:10212000002401202860D7E7600001205C00012026
:102130008C00012088020120000000000000000047
:10214000010203040607080900000000010203045D
:1021500000000000000000000000B33FB2BE7D3A66
:1021600000002E40DFCF513800007E40BF51FABA48
:1021700000E0A44019DAC3BA00E0C840C2ED8AB951
:102180000040EB40CD1F2CBA001006412AFFFABADE
:1021900000C01541DFCFD13700D024419A97703A63
:1021A0000050334189478E3600404141E75B9D38FE
:1021B00000B04E41C00A98B900A05B41558F943AD7
:1021C00000306841DA92C0BA0040744162B3C63A46
:1021D0000000803F00A0853F00908B3F00C0913FF2
:1021E0000030983F00F09E3F00F0A53F0050AD3F0B
:1021F0000000B53F0000BD3F0060C53F0020CE3F5E
:102200000040D73F00C0E03F00C0EA3F0020F53F5C
:10221000000000007D36AC397D3C3839EBDCF43809
:10222000320A7E39124C26399B6AED39A4EE833985
:102230007F661E39F6398A392B426539A4821139F5
:102240005B991F39C3EECD39DDE7C637A5A22F391B
:102250000000803FC3AA853FC2958B3FD3C3913F07
:10226000F037983F32F59E3FD7FEA53F3F58AD3F30
:10227000F304B53FA408BD3F2A67C53F8C24CE3F79
:10228000FD44D73FDFCCE03FC7C0EA3F7D25F53FA7
:10229000B42200080000012064000000E8130008D8
:1022A000182300086400012024060000F813000829
:1022B00065F1FFFF000000000000000000000000CA
:1022C000000000000000000000000000000000000E
:1022D00000000000000000000000000000000000FE
:1022E00040414243444546470000000000000000D2
:1022F0000000000000000000000000000024F400C6
:1023000000000000000000000000000000000000CD
:082310000000000000000000C5
:04000005080001E10D
:00000001FF
