:020000040800F2
:1000000070060120E1010008E9010008EB01000889
:10001000ED010008EF010008F101000800000000F8
:10002000000000000000000000000000F3010008D4
:10003000F501000800000000F7010008F9010008C0
:10004000FB010008FB010008FB010008FB010008A0
:10005000FB010008FB010008FB010008FB01000890
:10006000FB010008FB010008FB010008FB01000880
:10007000FB010008FB010008FB010008FB01000870
:10008000FB010008FB010008FB010008FB01000860
:10009000FB010008FB010008FB010008FB01000850
:1000A000FB010008FB010008FB010008FB01000840
:1000B000FB010008FB010008FB010008FB01000830
:1000C000FB010008FB010008FB010008FB01000820
:1000D000FB010008FB010008FB010008FB01000810
:1000E000FB010008FB010008FB010008FB01000800
:1000F000FB010008FB010008FB010008FB010008F0
:10010000FB010008FB010008FB010008FB010008DF
:10011000FB010008FB010008FB010008FB010008CF
:10012000FB010008FB010008FB010008FB010008BF
:10013000FB010008FB010008FB010008FB010008AF
:10014000FB010008FB010008FB010008FB0100089F
:10015000FB010008FB010008FB010008FB0100088F
:10016000FB010008FB010008FB010008FB0100087F
:10017000FB010008FB010008FB0100080000000073
:10018000FB010008FB010008FB010008FB0100085F
:10019000FB010008FB010008FB010008FB0100084F
:1001A000FB010008FB010008FB010008FB0100083F
:1001B000FB010008FB010008FB010008FB0100082F
:1001C000FB010008FB010008DFF810D000F046F842
:1001D00000F018F8004800477D0E00087006012066
:1001E0000648804706480047FEE7FEE7FEE7FEE7D1
:1001F000FEE7FEE7FEE7FEE7FEE7FEE70D03000889
:10020000C901000870B5054C054D03E02068204485
:100210008047241DAC42F9D170BD0000DC110008FC
:10022000E011000800F00CB8034870470248001DB8
:10023000011F8860001D70473800012000207047B2
:1002400010B500F020F8016919B100220261884759
:1002500001E080688047AFF300800000064C074D46
:1002600006E0E06840F0010394E807009847103486
:10027000AC42F6D3FFF7ACFFBC110008DC1100085C
:1002800010B5AFF3008070B5FFF7D0FF04680546E6
:10029000A4B9202000F0BCFE040011D009490020C0
:1002A0002C60C4E900010849A160207320616061ED
:1002B0000649A06109B100F00BF8E061204670BD6D
:1002C000AFF3008000000000810200080000000081
:1002D00010B5882000F09CFE002801D0002101709C
:1002E00010BD802902D808B1017809B100207047FB
:1002F000012100F8081B704718B100F10802914273
:1003000001D0002070470021017070471448006838
:1003100040F47000124908601248006840F0010083
:100320001049086000200F49083108600D48006836
:100330000D4908400B4908600C48091D0860081F5A
:10034000006820F48020091F0860002005490C3156
:1003500008604FF000600249803908607047000073
:1003600088ED00E000380240FFFFF6FE1030002468
:1003700010B50446204600F01FF801210B48006824
:1003800000F05AF800210A48006800F055F80121F1
:100390000848006800F050F841F2883000F040F85A
:1003A00000210448006800F047F810BD2400012037
:1003B000280001202000012030B52DED028B81B0F6
:1003C000054600200090002422E0B0EE008A00EEF6
:1003D000104AF8EEC08AF0EE680AB0EE480A00F063
:1003E000E1F8BDEEC00A8DED000A009828400099A2
:1003F000884206D1094951F82400012100F01CF877
:1004000005E0064951F82400002100F015F8641CAD
:10041000082CDADB01B0BDEC028B30BD4C000120B2
:1004200008B500210091009102E00099491C00915B
:1004300000998142F9DB08BD01290AD100BF827908
:10044000012303FA02F203685B691A4303685A61E5
:1004500008E000BF827901239340026852699A4301
:1004600003685A6170470000F0B505AC70CC0160BC
:100470008280C3800472458186812F4FB94207D1A3
:100480002E4F3F6847F00107DFF8B0C0CCF800708E
:100490002B4FB94207D1294F3F6847F00207DFF8D9
:1004A0009CC0CCF80070274FB94207D1234F3F685A
:1004B00047F00407DFF884C0CCF80070224FB9423F
:1004C00007D11E4F3F6847F00807DFF870C0CCF82F
:1004D00000701E4FB94207D1184F3F6847F0100710
:1004E000DFF858C0CCF80070194FB94207D1134F4C
:1004F0003F6847F02007DFF844C0CCF800700F6871
:100500004FEA430C02FA0CFC47EA0C070F6004FAAE
:1005100003F74F608F684FEA430C05FA0CFC47EA7B
:100520000C078F60CF684FEA430C06FA0CFC47EAD1
:100530000C07CF60F0BD00000000024030380240E0
:100540000004024000080240000C0240001002407B
:100550000014024010B5040007D1012405E0FFF7A4
:1005600063FE006800B904488047204600F050FD53
:100570000028F4D010BD0000250200084100080248
:1005800018BF04200A0E18BF40F001004FF07F4250
:1005900032EA010108BF40F00200012808BF05202F
:1005A0007047000010B510EE100A2DED068BB7EE67
:1005B000001A10EE901AB0EE418A0022A0F5000C4D
:1005C000DFEDFE9A4FF00073BCF1FE4F4FF07F4419
:1005D00003EB410C80F0B481BCF1804FC0F020826D
:1005E000F74901449FEDF73AB1F5005F40F2D4823C
:1005F00000F58021CB0C03F00F0101EE901AC3F33C
:1006000007137F3BA0EBC350B8EEE12A00EE100ABF
:100610001A44DFEDED2AF0EE411A42EE221AF0EE16
:10062000613A70EE232A30EE632A12EE900A00F54A
:1006300000606FF30B0001EE900A73EEE13A33EEC7
:10064000804AC1EE223A22EE230A10EE100A00F58B
:1006500000606FF30B0000EE100A00EE612A00EE5E
:10066000442A62EE232A70EE221A21EEA12ADFED3F
:10067000D73A02EE233A23EE023A20EE012A22EE86
:10068000811A03EE211A32EE010A10EE100A00F56B
:1006900000606FF30B0000EE100A72EE401A31EEAC
:1006A000812A9FEDCB1A60EE011A9FEDCA1A20EE47
:1006B000011A9FEDC90A02EE001A31EE810A10EE0E
:1006C000100A00F500606FF30B0000EE100AC3483B
:1006D00071EEC01A31EE812A784400EBC10090ED32
:1006E000003AD0ED011A100101EE100AF8EEC12A0D
:1006F00032EE211A31EE001A31EE031A31EE221ACF
:1007000011EE100A00F500606FF30B0009EE100AFD
:1007100039EE621A31EE431A31EE400A30EE610AC8
:1007200032EE40AA10EE900A002100F500606FF34F
:100730000B0008EE900A084670EEE8AAFFF77EFD6F
:1007400029EE280A00F00C01F0EEC00A10EE900A23
:10075000B0F18B4F0DDD10EE900AB4EB400F08D3D3
:1007600010EE100A4FF08B4262F31E0008EE900A62
:1007700013E069EE2A0A38EEAA1A4AEE010A30EEB0
:10078000201A11EE100A00F500606FF30B0008EE5E
:10079000900A30EE680A70EE209A0C20FFF74EFDAA
:1007A00038EEA90AB5EEC00AF1EE10FA34BFFEEE3B
:1007B000000AF6EE000A30EE800ABDEEC00A10EE26
:1007C000100A011100EE101AF8EEC00A00EE100A2D
:1007D000B8EEC00A38EEC00A30EE290ADFED801A02
:1007E0009FED801A00EE211ADFED7F1A7F4900F09D
:1007F0000F0040EE011A21EE800A794401EB8001DE
:1008000091ED001A7A49794401EB8001D1ED001A8B
:10081000784901EE801A794401EB8000764990ED29
:10082000000A31EE001AB0EEE00A10EE100A88421B
:1008300015DA10EE100AB4EB400F10D39FED6F0ADB
:1008400030EE800ADFED6E0A20EE200A68EE010A23
:10085000BDEC068BBCEEC00A20EE200A10BD10EEE7
:10086000100A6849884243DA10EE100AB4EB400FD0
:100870003ED3BDEEE00A68EE010A10EE100A00EB6E
:10088000D0725110C90501F17E5100EE101AA0EB93
:100890006200C00560EE200A00F17E5000EE100AF2
:1008A00060EE808A18EE900AB4EB400F0FD1022060
:1008B00000F0E0F900F0BEF910EE101A18EE100A80
:1008C000BDEC068B61F31E0000EE100A10BD18EEA1
:1008D000900A400011D018EE900AFFF74FFE04284E
:1008E00008BF00F0AFF9B0EE680ABDEC068B10BD92
:1008F000F5EEC00AF1EE10FA0FD2022000F0BAF9BC
:1009000000F0A0F910EE101A18EE100ABDEC068BDC
:1009100061F31E0000EE100A10BD022000F0AAF9DB
:1009200000F088F910EE101AB0EE480A10EE100A26
:10093000BDEC068B61F31E0000EE100A10BD00BF77
:10094000BCF1804F6CD300BF00F1FF43B3F1FE4F09
:1009500024D200BFB0EEC00A10EE100AC1F3C75394
:100960007F2B0DDB972BBFF63BAEC3F196034FF009
:10097000010C0CFA03F3A3F1010C1CEA010F08D0DF
:10098000012000F077F9BDEC068BBDE8104000F0C7
:1009900049B90B4218BFBFEE008A21E643001CBFD5
:1009A0004FF08073B3EB400F34D96FF01A02DFEDD4
:1009B000161A20EE210A10EE100A27E000000000AF
:1009C000001080C0ABAAAA3E0000803D7EE24C3EF3
:1009D00000B03842D49AB8BB3BAA3842A009000004
:1009E000FC596337C9FF753A1872313D3E09000062
:1009F00072090000E20800000000FC420000FE4214
:100A00000000004B000040430000004D10F0004F7C
:100A1000A0D1E5E5A0F50003B3F1FE4F21D2DFE55B
:100A200003EB4103B3F1007F11D3F5EEC00AF1EE01
:100A300010FA05D1430018BFB4EB400F76D883E716
:100A400001F0004141F0FC5100EE901A7CE7B3F157
:100A5000807F06D210EE903AA3F5000300EE903AA4
:100A600072E720F000426FF0FF4C604C02EB0C0389
:100A7000A34210D321F000439C44A4450BD3B0F112
:100A80007E5F18BF5FEA410C50D0B2F1FF4F98BFB4
:100A9000B3F1FF4F05D9BDEC068BBDE8104000F067
:100AA000BDB8B0F1FF4F0FD0C1F3C7527F2A09DBA9
:100AB000972A11DAC2F19602012303FA02F2531EB9
:100AC0000B4205D0002208E011F0004F55D128E07C
:100AD0000A4218BF012200D1022210F5000F13D0E4
:100AE00028B3B0F1004F26D010F1814F4FD04FF016
:100AF000FE42B2EB400F94BF01200020012202EB26
:100B0000E171884239D10CE011F0004F02D0012A86
:100B100038D032E0012A02BF9FED350ABDEC068BCA
:100B200010BD9FED340ABDEC068B10BD2FE011F017
:100B3000004F0CD121E0B1F1FF4F1ED011F5000F95
:100B400005D011F0004F15D00AB1012A08D00220BB
:100B500000F090F8BDEC068BBDE8104000F054B8F2
:100B6000022000F087F800F04FF8BDEC068BB1EEE4
:100B7000400A10BD0AB1012A04D0B0EE690ABDECEA
:100B8000068B10BDBDEC068B9FED1B0A10BDBDECA6
:100B9000068BB7EE000A10BD30EE410AB5EE001A22
:100BA0009FED172A00EE413AB6EE001A60EE001AE9
:100BB00000EE431A61EEC11A9FED101A20EE011AE1
:100BC00020EE020A9FED0F2A01EE820A71EE001A52
:100BD00011EE900A00F500606FF30B0009EE100AA9
:100BE00031EE491A31EE00AA9CE50000FFFF3F00FC
:100BF000000080FF0000807F0000008000B0B8414E
:100C0000D49A38BB3BAAB841DFED030AB7EE001A0D
:100C100081EE200A704700000000000030EE200A3C
:100C200070470000DFED020A80EEA00A7047000066
:100C3000000000009FED020A20EE000A704700004D
:100C4000000000709FED020A20EE000A70470000CD
:100C50000000001002E008C8121F08C1002AFAD1E3
:100C600070477047002001E001C1121F002AFBD12C
:100C700070470000014908607047000034000120FF
:100C80003EB51020FFF766FC044601200022CDE9A6
:100C90000020134602466B4902902046FFF7E4FB12
:100CA0000446694804601020FFF754FC0446012004
:100CB0000022CDE900200346024662490290204608
:100CC000FFF7D2FB0446614804601020FFF742FCA6
:100CD000044601200022CDE90020022302465949A2
:100CE00002902046FFF7C0FB0446594804601020DC
:100CF000FFF730FC044601200022CDE90020134616
:100D00000246544902902046FFF7AEFB0446524883
:100D100004601020FFF71EFC044601200022CDE9EC
:100D20000020034602464B4902902046FFF79CFBF9
:100D300004464A4804601020FFF70CFC04460120DA
:100D40000022CDE90020052302463E4902902046BC
:100D5000FFF78AFB0446424804601020FFF7FAFBC5
:100D6000044601200022CDE9002006230246354931
:100D700002902046FFF778FB04463A4804601020B2
:100D8000FFF7E8FB044601200022CDE900200723FD
:100D900002462C4902902046FFF766FB0446324883
:100DA00004601020FFF7D6FB044601200022CDE9A5
:100DB000002009230246234902902046FFF754FBF6
:100DC00004462A4804601020FFF7C4FB04460120B3
:100DD0000022CDE90020082302461A49029020464D
:100DE000FFF742FB0446224804601020FFF7B2FBE5
:100DF000044601200022CDE900200A2302461149C1
:100E000002902046FFF730FB04461A4804600E4863
:100E10000068194908600D48006848600C4800687F
:100E200088600D480068C8600C48006808610C487C
:100E3000006848610B48006888610B480068C86119
:100E40003EBD00000004024000000120040001201B
:100E500008000120000802400C00012010000120C1
:100E600014000120180001201C0001202000012096
:100E700024000120280001204C00012006206049A8
:100E8000086088155E49143108605E48006840F0CB
:100E900004005C4908605C4800685C49C1F80401D2
:100EA0005948001D006840F2012108435649091DB8
:100EB00008600A20544930310860A0E05248001D03
:100EC000006840F080405149C1F808010846D0F858
:100ED0004C0100F00400C1F84C0101280CD84A482C
:100EE0004830006800F00400C1F84C01052803D325
:100EF0004120FFF73DFA82E043484830006800F0A7
:100F000004004249C1F84C01012808D83E48483045
:100F1000006800F00400C1F84C0105286FD23A487F
:100F20004830006800F004003849C1F84C0101283D
:100F300008D835484830006800F00400C1F84C017A
:100F400005285CD230484830006800F004002F4982
:100F5000C1F84C01012808D82B484830006800F03F
:100F60000400C1F84C01052849D2274848300068E0
:100F700000F004002549C1F84C01012808D8224896
:100F80004830006800F00400C1F84C01052836D252
:100F90001D484830006800F004001C49C1F84C01AD
:100FA000012808D118484830006800F00400C1F852
:100FB0004C01052823D01448001F006800F00400ED
:100FC0001249C1F80001012808D10F4848300068D3
:100FD00000F00400C1F84C01052810D00A48483040
:100FE000006800F004000949C1F84C01012806D14D
:100FF00005484830006800F00400C1F84C015DE786
:101000003038024000080240042101400020014025
:10101000F0B50B30154D20F007010024144A0FE005
:1010200003688B420BD38B4205D95E1A431847687D
:10103000C3E9006700E04368136002C004E0021DDA
:1010400010680028ECD12046002802D1286808B199
:101050000020F0BD064A07481060074A121A22F025
:101060000702C0E9002401202860D7E748000120DA
:1010700044000120740001207002012000000000E3
:10108000000000000000B33FB2BE7D3A00002E40D9
:10109000DFCF513800007E40BF51FABA00E0A440D3
:1010A00019DAC3BA00E0C840C2ED8AB90040EB408B
:1010B000CD1F2CBA001006412AFFFABA00C0154114
:1010C000DFCFD13700D024419A97703A0050334196
:1010D00089478E3600404141E75B9D3800B04E4164
:1010E000C00A98B900A05B41558F943A003068411E
:1010F000DA92C0BA0040744162B3C63A0000803F41
:1011000000A0853F00908B3F00C0913F0030983F8A
:1011100000F09E3F00F0A53F0050AD3F0000B53FFE
:101120000000BD3F0060C53F0020CE3F0040D73FDC
:1011300000C0E03F00C0EA3F0020F53F0000000093
:101140007D36AC397D3C3839EBDCF438320A7E39F7
:10115000124C26399B6AED39A4EE83397F661E391D
:10116000F6398A392B426539A48211395B991F39C6
:10117000C3EECD39DDE7C637A5A22F390000803F89
:10118000C3AA853FC2958B3FD3C3913FF037983FA9
:1011900032F59E3FD7FEA53F3F58AD3FF304B53F24
:1011A000A408BD3F2A67C53F8C24CE3FFD44D73FEE
:1011B000DFCCE03FC7C0EA3F7D25F53FE0110008E6
:1011C000000001204C000000540C00082C12000804
:1011D0004C00012024060000640C0008A5FAFFFF63
:1011E00000000000000000000000000000000000FF
:1011F00000000000000000000000000000000000EF
:1012000000000000000000000000000040414243D8
:1012100044454647000000000000000000000000B8
:0C122000000000000000000000000000C2
:04000005080001E10D
:00000001FF
